{
  "contractName": "FollowProfiles",
  "abi": [
    {
      "inputs": [],
      "name": "getMyProfile",
      "outputs": [
        {
          "components": [
            {
              "internalType": "address",
              "name": "adr",
              "type": "address"
            },
            {
              "internalType": "string",
              "name": "name",
              "type": "string"
            },
            {
              "internalType": "string",
              "name": "profilePictureUrl",
              "type": "string"
            },
            {
              "internalType": "string",
              "name": "bio",
              "type": "string"
            },
            {
              "internalType": "uint256",
              "name": "followerCount",
              "type": "uint256"
            },
            {
              "internalType": "uint256",
              "name": "followingCount",
              "type": "uint256"
            },
            {
              "internalType": "bool",
              "name": "unfollowed",
              "type": "bool"
            },
            {
              "internalType": "bool",
              "name": "unfollowing",
              "type": "bool"
            }
          ],
          "internalType": "struct Profiles.Profile",
          "name": "",
          "type": "tuple"
        }
      ],
      "stateMutability": "view",
      "type": "function"
    },
    {
      "inputs": [
        {
          "internalType": "address",
          "name": "adr",
          "type": "address"
        }
      ],
      "name": "getProfile",
      "outputs": [
        {
          "components": [
            {
              "internalType": "address",
              "name": "adr",
              "type": "address"
            },
            {
              "internalType": "string",
              "name": "name",
              "type": "string"
            },
            {
              "internalType": "string",
              "name": "profilePictureUrl",
              "type": "string"
            },
            {
              "internalType": "string",
              "name": "bio",
              "type": "string"
            },
            {
              "internalType": "uint256",
              "name": "followerCount",
              "type": "uint256"
            },
            {
              "internalType": "uint256",
              "name": "followingCount",
              "type": "uint256"
            },
            {
              "internalType": "bool",
              "name": "unfollowed",
              "type": "bool"
            },
            {
              "internalType": "bool",
              "name": "unfollowing",
              "type": "bool"
            }
          ],
          "internalType": "struct Profiles.Profile",
          "name": "",
          "type": "tuple"
        }
      ],
      "stateMutability": "view",
      "type": "function"
    },
    {
      "inputs": [
        {
          "internalType": "string",
          "name": "bio",
          "type": "string"
        }
      ],
      "name": "setBio",
      "outputs": [],
      "stateMutability": "nonpayable",
      "type": "function"
    },
    {
      "inputs": [
        {
          "internalType": "uint256",
          "name": "followerCount",
          "type": "uint256"
        }
      ],
      "name": "setFollowerCount",
      "outputs": [],
      "stateMutability": "nonpayable",
      "type": "function"
    },
    {
      "inputs": [
        {
          "internalType": "address",
          "name": "adr",
          "type": "address"
        },
        {
          "internalType": "uint256",
          "name": "followerCount",
          "type": "uint256"
        }
      ],
      "name": "setFollowerCountForAddress",
      "outputs": [],
      "stateMutability": "nonpayable",
      "type": "function"
    },
    {
      "inputs": [
        {
          "internalType": "uint256",
          "name": "followingCount",
          "type": "uint256"
        }
      ],
      "name": "setFollowingCount",
      "outputs": [],
      "stateMutability": "nonpayable",
      "type": "function"
    },
    {
      "inputs": [
        {
          "internalType": "address",
          "name": "adr",
          "type": "address"
        },
        {
          "internalType": "uint256",
          "name": "followingCount",
          "type": "uint256"
        }
      ],
      "name": "setFollowingCountForAddress",
      "outputs": [],
      "stateMutability": "nonpayable",
      "type": "function"
    },
    {
      "inputs": [
        {
          "internalType": "string",
          "name": "name",
          "type": "string"
        }
      ],
      "name": "setName",
      "outputs": [],
      "stateMutability": "nonpayable",
      "type": "function"
    },
    {
      "inputs": [
        {
          "internalType": "string",
          "name": "name",
          "type": "string"
        },
        {
          "internalType": "string",
          "name": "profilePictureUrl",
          "type": "string"
        },
        {
          "internalType": "string",
          "name": "bio",
          "type": "string"
        }
      ],
      "name": "setProfileInfo",
      "outputs": [],
      "stateMutability": "nonpayable",
      "type": "function"
    },
    {
      "inputs": [
        {
          "internalType": "string",
          "name": "profilePictureUrl",
          "type": "string"
        }
      ],
      "name": "setProfilePictureUrl",
      "outputs": [],
      "stateMutability": "nonpayable",
      "type": "function"
    },
    {
      "inputs": [
        {
          "internalType": "address",
          "name": "adr",
          "type": "address"
        }
      ],
      "name": "followUser",
      "outputs": [],
      "stateMutability": "nonpayable",
      "type": "function"
    },
    {
      "inputs": [
        {
          "internalType": "address",
          "name": "adr",
          "type": "address"
        }
      ],
      "name": "unfollowUser",
      "outputs": [],
      "stateMutability": "nonpayable",
      "type": "function"
    },
    {
      "inputs": [
        {
          "internalType": "address",
          "name": "adr",
          "type": "address"
        }
      ],
      "name": "getFollowers",
      "outputs": [
        {
          "components": [
            {
              "internalType": "address",
              "name": "adr",
              "type": "address"
            },
            {
              "internalType": "string",
              "name": "name",
              "type": "string"
            },
            {
              "internalType": "string",
              "name": "profilePictureUrl",
              "type": "string"
            },
            {
              "internalType": "string",
              "name": "bio",
              "type": "string"
            },
            {
              "internalType": "uint256",
              "name": "followerCount",
              "type": "uint256"
            },
            {
              "internalType": "uint256",
              "name": "followingCount",
              "type": "uint256"
            },
            {
              "internalType": "bool",
              "name": "unfollowed",
              "type": "bool"
            },
            {
              "internalType": "bool",
              "name": "unfollowing",
              "type": "bool"
            }
          ],
          "internalType": "struct Profiles.Profile[]",
          "name": "",
          "type": "tuple[]"
        }
      ],
      "stateMutability": "view",
      "type": "function"
    },
    {
      "inputs": [],
      "name": "getMyFollowers",
      "outputs": [
        {
          "components": [
            {
              "internalType": "address",
              "name": "adr",
              "type": "address"
            },
            {
              "internalType": "string",
              "name": "name",
              "type": "string"
            },
            {
              "internalType": "string",
              "name": "profilePictureUrl",
              "type": "string"
            },
            {
              "internalType": "string",
              "name": "bio",
              "type": "string"
            },
            {
              "internalType": "uint256",
              "name": "followerCount",
              "type": "uint256"
            },
            {
              "internalType": "uint256",
              "name": "followingCount",
              "type": "uint256"
            },
            {
              "internalType": "bool",
              "name": "unfollowed",
              "type": "bool"
            },
            {
              "internalType": "bool",
              "name": "unfollowing",
              "type": "bool"
            }
          ],
          "internalType": "struct Profiles.Profile[]",
          "name": "",
          "type": "tuple[]"
        }
      ],
      "stateMutability": "view",
      "type": "function"
    },
    {
      "inputs": [
        {
          "internalType": "address",
          "name": "adr",
          "type": "address"
        }
      ],
      "name": "getIsUserFollowingMe",
      "outputs": [
        {
          "internalType": "bool",
          "name": "",
          "type": "bool"
        }
      ],
      "stateMutability": "view",
      "type": "function"
    },
    {
      "inputs": [
        {
          "internalType": "address",
          "name": "adr",
          "type": "address"
        }
      ],
      "name": "getFollowing",
      "outputs": [
        {
          "components": [
            {
              "internalType": "address",
              "name": "adr",
              "type": "address"
            },
            {
              "internalType": "string",
              "name": "name",
              "type": "string"
            },
            {
              "internalType": "string",
              "name": "profilePictureUrl",
              "type": "string"
            },
            {
              "internalType": "string",
              "name": "bio",
              "type": "string"
            },
            {
              "internalType": "uint256",
              "name": "followerCount",
              "type": "uint256"
            },
            {
              "internalType": "uint256",
              "name": "followingCount",
              "type": "uint256"
            },
            {
              "internalType": "bool",
              "name": "unfollowed",
              "type": "bool"
            },
            {
              "internalType": "bool",
              "name": "unfollowing",
              "type": "bool"
            }
          ],
          "internalType": "struct Profiles.Profile[]",
          "name": "",
          "type": "tuple[]"
        }
      ],
      "stateMutability": "view",
      "type": "function"
    }
  ],
  "bytecode": "0x608060405234801561001057600080fd5b50612e8d806100206000396000f3fe608060405234801561001057600080fd5b50600436106101005760003560e01c806391fc36ee11610097578063c47f002711610066578063c47f002714610295578063d8236dff146102b1578063f107cfcb146102e1578063fb7e06d8146102fd57610100565b806391fc36ee146101fd578063a5d4ccbc14610219578063a70806f714610249578063c2fe20221461026557610100565b80636633330b116100d35780636633330b1461018b5780637cd38b06146101a95780638e11d6ff146101c5578063906eb124146101e157610100565b80630f53a4701461010557806321527e50146101355780634dd9c968146101535780635ce460a51461016f575b600080fd5b61011f600480360381019061011a919061269b565b610319565b60405161012c9190612862565b60405180910390f35b61013d6105c8565b60405161014a9190612862565b60405180910390f35b61016d600480360381019061016891906128b0565b610875565b005b610189600480360381019061018491906128b0565b6108bf565b005b610193610909565b6040516101a09190612a70565b60405180910390f35b6101c360048036038101906101be9190612a92565b610bfc565b005b6101df60048036038101906101da9190612bf4565b610c45565b005b6101fb60048036038101906101f69190612c9b565b610d4c565b005b61021760048036038101906102129190612a92565b610da5565b005b610233600480360381019061022e919061269b565b610dee565b6040516102409190612cf3565b60405180910390f35b610263600480360381019061025e919061269b565b610f87565b005b61027f600480360381019061027a919061269b565b611b22565b60405161028c9190612a70565b60405180910390f35b6102af60048036038101906102aa9190612c9b565b611e17565b005b6102cb60048036038101906102c6919061269b565b611e70565b6040516102d89190612a70565b60405180910390f35b6102fb60048036038101906102f6919061269b565b612165565b005b61031760048036038101906103129190612c9b565b6124ce565b005b610321612527565b6000808373ffffffffffffffffffffffffffffffffffffffff1673ffffffffffffffffffffffffffffffffffffffff168152602001908152602001600020604051806101000160405290816000820160009054906101000a900473ffffffffffffffffffffffffffffffffffffffff1673ffffffffffffffffffffffffffffffffffffffff1673ffffffffffffffffffffffffffffffffffffffff1681526020016001820180546103d190612d3d565b80601f01602080910402602001604051908101604052809291908181526020018280546103fd90612d3d565b801561044a5780601f1061041f5761010080835404028352916020019161044a565b820191906000526020600020905b81548152906001019060200180831161042d57829003601f168201915b5050505050815260200160028201805461046390612d3d565b80601f016020809104026020016040519081016040528092919081815260200182805461048f90612d3d565b80156104dc5780601f106104b1576101008083540402835291602001916104dc565b820191906000526020600020905b8154815290600101906020018083116104bf57829003601f168201915b505050505081526020016003820180546104f590612d3d565b80601f016020809104026020016040519081016040528092919081815260200182805461052190612d3d565b801561056e5780601f106105435761010080835404028352916020019161056e565b820191906000526020600020905b81548152906001019060200180831161055157829003601f168201915b5050505050815260200160048201548152602001600582015481526020016006820160009054906101000a900460ff161515151581526020016006820160019054906101000a900460ff1615151515815250509050919050565b6105d0612527565b6000803373ffffffffffffffffffffffffffffffffffffffff1673ffffffffffffffffffffffffffffffffffffffff168152602001908152602001600020604051806101000160405290816000820160009054906101000a900473ffffffffffffffffffffffffffffffffffffffff1673ffffffffffffffffffffffffffffffffffffffff1673ffffffffffffffffffffffffffffffffffffffff16815260200160018201805461068090612d3d565b80601f01602080910402602001604051908101604052809291908181526020018280546106ac90612d3d565b80156106f95780601f106106ce576101008083540402835291602001916106f9565b820191906000526020600020905b8154815290600101906020018083116106dc57829003601f168201915b5050505050815260200160028201805461071290612d3d565b80601f016020809104026020016040519081016040528092919081815260200182805461073e90612d3d565b801561078b5780601f106107605761010080835404028352916020019161078b565b820191906000526020600020905b81548152906001019060200180831161076e57829003601f168201915b505050505081526020016003820180546107a490612d3d565b80601f01602080910402602001604051908101604052809291908181526020018280546107d090612d3d565b801561081d5780601f106107f25761010080835404028352916020019161081d565b820191906000526020600020905b81548152906001019060200180831161080057829003601f168201915b5050505050815260200160048201548152602001600582015481526020016006820160009054906101000a900460ff161515151581526020016006820160019054906101000a900460ff161515151581525050905090565b806000808473ffffffffffffffffffffffffffffffffffffffff1673ffffffffffffffffffffffffffffffffffffffff168152602001908152602001600020600401819055505050565b806000808473ffffffffffffffffffffffffffffffffffffffff1673ffffffffffffffffffffffffffffffffffffffff168152602001908152602001600020600501819055505050565b6060600360003373ffffffffffffffffffffffffffffffffffffffff1673ffffffffffffffffffffffffffffffffffffffff168152602001908152602001600020805480602002602001604051908101604052809291908181526020016000905b82821015610bf35783829060005260206000209060070201604051806101000160405290816000820160009054906101000a900473ffffffffffffffffffffffffffffffffffffffff1673ffffffffffffffffffffffffffffffffffffffff1673ffffffffffffffffffffffffffffffffffffffff1681526020016001820180546109f490612d3d565b80601f0160208091040260200160405190810160405280929190818152602001828054610a2090612d3d565b8015610a6d5780601f10610a4257610100808354040283529160200191610a6d565b820191906000526020600020905b815481529060010190602001808311610a5057829003601f168201915b50505050508152602001600282018054610a8690612d3d565b80601f0160208091040260200160405190810160405280929190818152602001828054610ab290612d3d565b8015610aff5780601f10610ad457610100808354040283529160200191610aff565b820191906000526020600020905b815481529060010190602001808311610ae257829003601f168201915b50505050508152602001600382018054610b1890612d3d565b80601f0160208091040260200160405190810160405280929190818152602001828054610b4490612d3d565b8015610b915780601f10610b6657610100808354040283529160200191610b91565b820191906000526020600020905b815481529060010190602001808311610b7457829003601f168201915b5050505050815260200160048201548152602001600582015481526020016006820160009054906101000a900460ff161515151581526020016006820160019054906101000a900460ff1615151515815250508152602001906001019061096a565b50505050905090565b806000803373ffffffffffffffffffffffffffffffffffffffff1673ffffffffffffffffffffffffffffffffffffffff1681526020019081526020016000206005018190555050565b826000803373ffffffffffffffffffffffffffffffffffffffff1673ffffffffffffffffffffffffffffffffffffffff1681526020019081526020016000206001019080519060200190610c9a929190612586565b50816000803373ffffffffffffffffffffffffffffffffffffffff1673ffffffffffffffffffffffffffffffffffffffff1681526020019081526020016000206002019080519060200190610cf0929190612586565b50806000803373ffffffffffffffffffffffffffffffffffffffff1673ffffffffffffffffffffffffffffffffffffffff1681526020019081526020016000206003019080519060200190610d46929190612586565b50505050565b806000803373ffffffffffffffffffffffffffffffffffffffff1673ffffffffffffffffffffffffffffffffffffffff1681526020019081526020016000206002019080519060200190610da1929190612586565b5050565b806000803373ffffffffffffffffffffffffffffffffffffffff1673ffffffffffffffffffffffffffffffffffffffff1681526020019081526020016000206004018190555050565b600080600160008473ffffffffffffffffffffffffffffffffffffffff1673ffffffffffffffffffffffffffffffffffffffff16815260200190815260200160002060003373ffffffffffffffffffffffffffffffffffffffff1673ffffffffffffffffffffffffffffffffffffffff16815260200190815260200160002060009054906101000a900460ff1690506000600260008573ffffffffffffffffffffffffffffffffffffffff1673ffffffffffffffffffffffffffffffffffffffff16815260200190815260200160002060003373ffffffffffffffffffffffffffffffffffffffff1673ffffffffffffffffffffffffffffffffffffffff1681526020019081526020016000205490506000600360008673ffffffffffffffffffffffffffffffffffffffff1673ffffffffffffffffffffffffffffffffffffffff1681526020019081526020016000208281548110610f5157610f50612d6f565b5b90600052602060002090600702019050828015610f7d57508060060160009054906101000a900460ff16155b9350505050919050565b6000600160003373ffffffffffffffffffffffffffffffffffffffff1673ffffffffffffffffffffffffffffffffffffffff16815260200190815260200160002060008373ffffffffffffffffffffffffffffffffffffffff1673ffffffffffffffffffffffffffffffffffffffff16815260200190815260200160002060009054906101000a900460ff1690506000600260008473ffffffffffffffffffffffffffffffffffffffff1673ffffffffffffffffffffffffffffffffffffffff16815260200190815260200160002060003373ffffffffffffffffffffffffffffffffffffffff1673ffffffffffffffffffffffffffffffffffffffff1681526020019081526020016000205490506000600360008573ffffffffffffffffffffffffffffffffffffffff1673ffffffffffffffffffffffffffffffffffffffff16815260200190815260200160002090506110e1612527565b600082805490501461137357818381548110611100576110ff612d6f565b5b9060005260206000209060070201604051806101000160405290816000820160009054906101000a900473ffffffffffffffffffffffffffffffffffffffff1673ffffffffffffffffffffffffffffffffffffffff1673ffffffffffffffffffffffffffffffffffffffff16815260200160018201805461118090612d3d565b80601f01602080910402602001604051908101604052809291908181526020018280546111ac90612d3d565b80156111f95780601f106111ce576101008083540402835291602001916111f9565b820191906000526020600020905b8154815290600101906020018083116111dc57829003601f168201915b5050505050815260200160028201805461121290612d3d565b80601f016020809104026020016040519081016040528092919081815260200182805461123e90612d3d565b801561128b5780601f106112605761010080835404028352916020019161128b565b820191906000526020600020905b81548152906001019060200180831161126e57829003601f168201915b505050505081526020016003820180546112a490612d3d565b80601f01602080910402602001604051908101604052809291908181526020018280546112d090612d3d565b801561131d5780601f106112f25761010080835404028352916020019161131d565b820191906000526020600020905b81548152906001019060200180831161130057829003601f168201915b5050505050815260200160048201548152602001600582015481526020016006820160009054906101000a900460ff161515151581526020016006820160019054906101000a900460ff16151515158152505090505b61137b612527565b611383612527565b85801561139157508260c001515b156115625761139e6105c8565b91506113a987610319565b90506000600460003373ffffffffffffffffffffffffffffffffffffffff1673ffffffffffffffffffffffffffffffffffffffff16815260200190815260200160002060008973ffffffffffffffffffffffffffffffffffffffff1673ffffffffffffffffffffffffffffffffffffffff1681526020019081526020016000205490506000600360008a73ffffffffffffffffffffffffffffffffffffffff1673ffffffffffffffffffffffffffffffffffffffff168152602001908152602001600020878154811061147f5761147e612d6f565b5b906000526020600020906007020160060160006101000a81548160ff0219169083151502179055506000600560003373ffffffffffffffffffffffffffffffffffffffff1673ffffffffffffffffffffffffffffffffffffffff16815260200190815260200160002082815481106114fa576114f9612d6f565b5b906000526020600020906007020160060160016101000a81548160ff02191690831515021790555061153c88600184608001516115379190612dcd565b610875565b6115563360018560a001516115519190612dcd565b6108bf565b50505050505050611b1f565b851561157357505050505050611b1f565b61157b6105c8565b915061158687610319565b905033826000019073ffffffffffffffffffffffffffffffffffffffff16908173ffffffffffffffffffffffffffffffffffffffff168152505086816000019073ffffffffffffffffffffffffffffffffffffffff16908173ffffffffffffffffffffffffffffffffffffffff1681525050600360008873ffffffffffffffffffffffffffffffffffffffff1673ffffffffffffffffffffffffffffffffffffffff16815260200190815260200160002082908060018154018082558091505060019003906000526020600020906007020160009091909190915060008201518160000160006101000a81548173ffffffffffffffffffffffffffffffffffffffff021916908373ffffffffffffffffffffffffffffffffffffffff16021790555060208201518160010190805190602001906116c4929190612586565b5060408201518160020190805190602001906116e1929190612586565b5060608201518160030190805190602001906116fe929190612586565b506080820151816004015560a0820151816005015560c08201518160060160006101000a81548160ff02191690831515021790555060e08201518160060160016101000a81548160ff0219169083151502179055505050600560003373ffffffffffffffffffffffffffffffffffffffff1673ffffffffffffffffffffffffffffffffffffffff16815260200190815260200160002081908060018154018082558091505060019003906000526020600020906007020160009091909190915060008201518160000160006101000a81548173ffffffffffffffffffffffffffffffffffffffff021916908373ffffffffffffffffffffffffffffffffffffffff1602179055506020820151816001019080519060200190611821929190612586565b50604082015181600201908051906020019061183e929190612586565b50606082015181600301908051906020019061185b929190612586565b506080820151816004015560a0820151816005015560c08201518160060160006101000a81548160ff02191690831515021790555060e08201518160060160016101000a81548160ff02191690831515021790555050506001600360008973ffffffffffffffffffffffffffffffffffffffff1673ffffffffffffffffffffffffffffffffffffffff168152602001908152602001600020805490506119019190612e23565b600260008973ffffffffffffffffffffffffffffffffffffffff1673ffffffffffffffffffffffffffffffffffffffff16815260200190815260200160002060003373ffffffffffffffffffffffffffffffffffffffff1673ffffffffffffffffffffffffffffffffffffffff168152602001908152602001600020819055506001600560003373ffffffffffffffffffffffffffffffffffffffff1673ffffffffffffffffffffffffffffffffffffffff168152602001908152602001600020805490506119d09190612e23565b600460003373ffffffffffffffffffffffffffffffffffffffff1673ffffffffffffffffffffffffffffffffffffffff16815260200190815260200160002060008973ffffffffffffffffffffffffffffffffffffffff1673ffffffffffffffffffffffffffffffffffffffff1681526020019081526020016000208190555060018060003373ffffffffffffffffffffffffffffffffffffffff1673ffffffffffffffffffffffffffffffffffffffff16815260200190815260200160002060008973ffffffffffffffffffffffffffffffffffffffff1673ffffffffffffffffffffffffffffffffffffffff16815260200190815260200160002060006101000a81548160ff021916908315150217905550611afe8760018360800151611af99190612dcd565b610875565b611b183360018460a00151611b139190612dcd565b6108bf565b5050505050505b50565b6060600360008373ffffffffffffffffffffffffffffffffffffffff1673ffffffffffffffffffffffffffffffffffffffff168152602001908152602001600020805480602002602001604051908101604052809291908181526020016000905b82821015611e0c5783829060005260206000209060070201604051806101000160405290816000820160009054906101000a900473ffffffffffffffffffffffffffffffffffffffff1673ffffffffffffffffffffffffffffffffffffffff1673ffffffffffffffffffffffffffffffffffffffff168152602001600182018054611c0d90612d3d565b80601f0160208091040260200160405190810160405280929190818152602001828054611c3990612d3d565b8015611c865780601f10611c5b57610100808354040283529160200191611c86565b820191906000526020600020905b815481529060010190602001808311611c6957829003601f168201915b50505050508152602001600282018054611c9f90612d3d565b80601f0160208091040260200160405190810160405280929190818152602001828054611ccb90612d3d565b8015611d185780601f10611ced57610100808354040283529160200191611d18565b820191906000526020600020905b815481529060010190602001808311611cfb57829003601f168201915b50505050508152602001600382018054611d3190612d3d565b80601f0160208091040260200160405190810160405280929190818152602001828054611d5d90612d3d565b8015611daa5780601f10611d7f57610100808354040283529160200191611daa565b820191906000526020600020905b815481529060010190602001808311611d8d57829003601f168201915b5050505050815260200160048201548152602001600582015481526020016006820160009054906101000a900460ff161515151581526020016006820160019054906101000a900460ff16151515158152505081526020019060010190611b83565b505050509050919050565b806000803373ffffffffffffffffffffffffffffffffffffffff1673ffffffffffffffffffffffffffffffffffffffff1681526020019081526020016000206001019080519060200190611e6c929190612586565b5050565b6060600560008373ffffffffffffffffffffffffffffffffffffffff1673ffffffffffffffffffffffffffffffffffffffff168152602001908152602001600020805480602002602001604051908101604052809291908181526020016000905b8282101561215a5783829060005260206000209060070201604051806101000160405290816000820160009054906101000a900473ffffffffffffffffffffffffffffffffffffffff1673ffffffffffffffffffffffffffffffffffffffff1673ffffffffffffffffffffffffffffffffffffffff168152602001600182018054611f5b90612d3d565b80601f0160208091040260200160405190810160405280929190818152602001828054611f8790612d3d565b8015611fd45780601f10611fa957610100808354040283529160200191611fd4565b820191906000526020600020905b815481529060010190602001808311611fb757829003601f168201915b50505050508152602001600282018054611fed90612d3d565b80601f016020809104026020016040519081016040528092919081815260200182805461201990612d3d565b80156120665780601f1061203b57610100808354040283529160200191612066565b820191906000526020600020905b81548152906001019060200180831161204957829003601f168201915b5050505050815260200160038201805461207f90612d3d565b80601f01602080910402602001604051908101604052809291908181526020018280546120ab90612d3d565b80156120f85780601f106120cd576101008083540402835291602001916120f8565b820191906000526020600020905b8154815290600101906020018083116120db57829003601f168201915b5050505050815260200160048201548152602001600582015481526020016006820160009054906101000a900460ff161515151581526020016006820160019054906101000a900460ff16151515158152505081526020019060010190611ed1565b505050509050919050565b6000600160003373ffffffffffffffffffffffffffffffffffffffff1673ffffffffffffffffffffffffffffffffffffffff16815260200190815260200160002060008373ffffffffffffffffffffffffffffffffffffffff1673ffffffffffffffffffffffffffffffffffffffff16815260200190815260200160002060009054906101000a900460ff1690506000600260008473ffffffffffffffffffffffffffffffffffffffff1673ffffffffffffffffffffffffffffffffffffffff16815260200190815260200160002060003373ffffffffffffffffffffffffffffffffffffffff1673ffffffffffffffffffffffffffffffffffffffff1681526020019081526020016000205490506000600360008573ffffffffffffffffffffffffffffffffffffffff1673ffffffffffffffffffffffffffffffffffffffff16815260200190815260200160002082815481106122c7576122c6612d6f565b5b906000526020600020906007020190508280156122f357508060060160009054906101000a900460ff16155b156124c75760006123026105c8565b9050600061230f86610319565b90506000600460003373ffffffffffffffffffffffffffffffffffffffff1673ffffffffffffffffffffffffffffffffffffffff16815260200190815260200160002060008873ffffffffffffffffffffffffffffffffffffffff1673ffffffffffffffffffffffffffffffffffffffff1681526020019081526020016000205490506001600360008973ffffffffffffffffffffffffffffffffffffffff1673ffffffffffffffffffffffffffffffffffffffff16815260200190815260200160002086815481106123e5576123e4612d6f565b5b906000526020600020906007020160060160006101000a81548160ff0219169083151502179055506001600560003373ffffffffffffffffffffffffffffffffffffffff1673ffffffffffffffffffffffffffffffffffffffff16815260200190815260200160002082815481106124605761245f612d6f565b5b906000526020600020906007020160060160016101000a81548160ff0219169083151502179055506124a2876001846080015161249d9190612e23565b610875565b6124bc3360018560a001516124b79190612e23565b6108bf565b5050505050506124cb565b5050505b50565b806000803373ffffffffffffffffffffffffffffffffffffffff1673ffffffffffffffffffffffffffffffffffffffff1681526020019081526020016000206003019080519060200190612523929190612586565b5050565b604051806101000160405280600073ffffffffffffffffffffffffffffffffffffffff16815260200160608152602001606081526020016060815260200160008152602001600081526020016000151581526020016000151581525090565b82805461259290612d3d565b90600052602060002090601f0160209004810192826125b457600085556125fb565b82601f106125cd57805160ff19168380011785556125fb565b828001600101855582156125fb579182015b828111156125fa5782518255916020019190600101906125df565b5b509050612608919061260c565b5090565b5b8082111561262557600081600090555060010161260d565b5090565b6000604051905090565b600080fd5b600080fd5b600073ffffffffffffffffffffffffffffffffffffffff82169050919050565b60006126688261263d565b9050919050565b6126788161265d565b811461268357600080fd5b50565b6000813590506126958161266f565b92915050565b6000602082840312156126b1576126b0612633565b5b60006126bf84828501612686565b91505092915050565b6126d18161265d565b82525050565b600081519050919050565b600082825260208201905092915050565b60005b838110156127115780820151818401526020810190506126f6565b83811115612720576000848401525b50505050565b6000601f19601f8301169050919050565b6000612742826126d7565b61274c81856126e2565b935061275c8185602086016126f3565b61276581612726565b840191505092915050565b6000819050919050565b61278381612770565b82525050565b60008115159050919050565b61279e81612789565b82525050565b6000610100830160008301516127bd60008601826126c8565b50602083015184820360208601526127d58282612737565b915050604083015184820360408601526127ef8282612737565b915050606083015184820360608601526128098282612737565b915050608083015161281e608086018261277a565b5060a083015161283160a086018261277a565b5060c083015161284460c0860182612795565b5060e083015161285760e0860182612795565b508091505092915050565b6000602082019050818103600083015261287c81846127a4565b905092915050565b61288d81612770565b811461289857600080fd5b50565b6000813590506128aa81612884565b92915050565b600080604083850312156128c7576128c6612633565b5b60006128d585828601612686565b92505060206128e68582860161289b565b9150509250929050565b600081519050919050565b600082825260208201905092915050565b6000819050602082019050919050565b60006101008301600083015161293560008601826126c8565b506020830151848203602086015261294d8282612737565b915050604083015184820360408601526129678282612737565b915050606083015184820360608601526129818282612737565b9150506080830151612996608086018261277a565b5060a08301516129a960a086018261277a565b5060c08301516129bc60c0860182612795565b5060e08301516129cf60e0860182612795565b508091505092915050565b60006129e6838361291c565b905092915050565b6000602082019050919050565b6000612a06826128f0565b612a1081856128fb565b935083602082028501612a228561290c565b8060005b85811015612a5e5784840389528151612a3f85826129da565b9450612a4a836129ee565b925060208a01995050600181019050612a26565b50829750879550505050505092915050565b60006020820190508181036000830152612a8a81846129fb565b905092915050565b600060208284031215612aa857612aa7612633565b5b6000612ab68482850161289b565b91505092915050565b600080fd5b600080fd5b7f4e487b7100000000000000000000000000000000000000000000000000000000600052604160045260246000fd5b612b0182612726565b810181811067ffffffffffffffff82111715612b2057612b1f612ac9565b5b80604052505050565b6000612b33612629565b9050612b3f8282612af8565b919050565b600067ffffffffffffffff821115612b5f57612b5e612ac9565b5b612b6882612726565b9050602081019050919050565b82818337600083830152505050565b6000612b97612b9284612b44565b612b29565b905082815260208101848484011115612bb357612bb2612ac4565b5b612bbe848285612b75565b509392505050565b600082601f830112612bdb57612bda612abf565b5b8135612beb848260208601612b84565b91505092915050565b600080600060608486031215612c0d57612c0c612633565b5b600084013567ffffffffffffffff811115612c2b57612c2a612638565b5b612c3786828701612bc6565b935050602084013567ffffffffffffffff811115612c5857612c57612638565b5b612c6486828701612bc6565b925050604084013567ffffffffffffffff811115612c8557612c84612638565b5b612c9186828701612bc6565b9150509250925092565b600060208284031215612cb157612cb0612633565b5b600082013567ffffffffffffffff811115612ccf57612cce612638565b5b612cdb84828501612bc6565b91505092915050565b612ced81612789565b82525050565b6000602082019050612d086000830184612ce4565b92915050565b7f4e487b7100000000000000000000000000000000000000000000000000000000600052602260045260246000fd5b60006002820490506001821680612d5557607f821691505b60208210811415612d6957612d68612d0e565b5b50919050565b7f4e487b7100000000000000000000000000000000000000000000000000000000600052603260045260246000fd5b7f4e487b7100000000000000000000000000000000000000000000000000000000600052601160045260246000fd5b6000612dd882612770565b9150612de383612770565b9250827fffffffffffffffffffffffffffffffffffffffffffffffffffffffffffffffff03821115612e1857612e17612d9e565b5b828201905092915050565b6000612e2e82612770565b9150612e3983612770565b925082821015612e4c57612e4b612d9e565b5b82820390509291505056fea2646970667358221220685e9d4fc58ab022e059345254ef5e6e3b9eee26778345494ed4e4848dfaeb1264736f6c634300080a0033",
  "immutableReferences": {},
  "source": "// SPDX-License-Identifier: GPL-3.0\n\npragma solidity >=0.7.0 <0.9.0;\nimport './Profiles.sol';\n\n/**\n * @title Storage\n * @dev Store & retrieve value in a variable\n */\ncontract FollowProfiles is Profiles {\n\n    mapping(address => mapping(address => bool)) hasFollowedMapping; // a boolean mapping for follow history\n    mapping(address => mapping(address => uint)) followersIndexMapping; // an index mapping of each follower within a user's follower list\n    mapping(address => Profile[]) followersMapping; // mapping of addresses to the corresponding user's follower list\n\n    mapping(address => mapping(address => uint)) followingIndexMapping; // an index mapping of each follower within a user's following list\n    mapping(address => Profile[]) followingMapping; // mapping of addresses to the corresponding user's following list\n\n    /**\n     * @dev Follow a user\n     * @param adr address of the user to follow\n     */\n    function followUser(address adr) public {\n\n        bool hasFollowed = hasFollowedMapping[msg.sender][adr];\n        uint followerIndex = followersIndexMapping[adr][msg.sender];\n        Profile[] storage followedProfiles = followersMapping[adr];\n        Profile memory alreadyFollowedProfile;\n        if (followedProfiles.length != 0) {\n            alreadyFollowedProfile = followedProfiles[followerIndex];\n        }\n\n        Profile memory ownProfile;\n        Profile memory followProfile;\n\n        // check if the mapping already exists, and if so re-follow the user that was unfollowed\n        if (hasFollowed && alreadyFollowedProfile.unfollowed) {\n\n            ownProfile = getMyProfile();\n            followProfile = getProfile(adr);\n\n            uint followingIndex = followingIndexMapping[msg.sender][adr];\n\n            followersMapping[adr][followerIndex].unfollowed = false;\n            followingMapping[msg.sender][followingIndex].unfollowing = false;\n\n            setFollowerCountForAddress(adr, followProfile.followerCount + 1);\n            setFollowingCountForAddress(msg.sender, ownProfile.followingCount + 1);\n\n            return;\n        } else if (hasFollowed) {\n            return; // if the user is not unfollowed, do nothing\n        }\n\n        ownProfile = getMyProfile();\n        followProfile = getProfile(adr);\n\n        ownProfile.adr = msg.sender;\n        followProfile.adr = adr;\n\n        followersMapping[adr].push(ownProfile);\n        followingMapping[msg.sender].push(followProfile);\n\n        followersIndexMapping[adr][msg.sender] = followersMapping[adr].length - 1;\n        followingIndexMapping[msg.sender][adr] = followingMapping[msg.sender].length - 1;\n\n        hasFollowedMapping[msg.sender][adr] = true;\n\n        setFollowerCountForAddress(adr, followProfile.followerCount + 1);\n        setFollowingCountForAddress(msg.sender, ownProfile.followingCount + 1);\n    }\n\n    /**\n     * @dev Follow a user\n     * @param adr address of the user to unfollow\n     */\n    function unfollowUser(address adr) public {\n\n        bool hasFollowed = hasFollowedMapping[msg.sender][adr];\n        uint followerIndex = followersIndexMapping[adr][msg.sender];\n        Profile storage alreadyFollowedProfile = followersMapping[adr][followerIndex];\n\n        // if mapping already exists, unfollow the user that was followed\n        if (hasFollowed && !alreadyFollowedProfile.unfollowed) {\n\n            Profile memory ownProfile = getMyProfile();\n            Profile memory followProfile = getProfile(adr);\n\n            uint followingIndex = followingIndexMapping[msg.sender][adr];\n\n            followersMapping[adr][followerIndex].unfollowed = true;\n            followingMapping[msg.sender][followingIndex].unfollowing = true;\n\n            setFollowerCountForAddress(adr, followProfile.followerCount - 1);\n            setFollowingCountForAddress(msg.sender, ownProfile.followingCount - 1);\n\n            return;\n        }\n    }\n\n    /**\n     * @dev Fetch profiles that follow a user\n     * @param adr the address of the profile\n     * @return profiles that follow a user\n     */\n    function getFollowers(address adr) public view returns (Profile[] memory) {\n        return followersMapping[adr];\n    }\n\n    /**\n     * @dev Fetch profiles that follow 'me'\n     * @return profiles that follow msg.sender\n     */\n    function getMyFollowers() public view returns (Profile[] memory) {\n        return followersMapping[msg.sender];\n    }\n\n    /**\n     * @dev Fetch if a user is following 'me'\n     * @param adr the address of the profile\n     * @return true if user is following msg.sender, otherwise false\n     */\n    function getIsUserFollowingMe(address adr) public view returns (bool) {\n        bool hasFollowed = hasFollowedMapping[adr][msg.sender];\n\n        uint followerIndex = followersIndexMapping[adr][msg.sender];\n        Profile storage profile = followersMapping[adr][followerIndex];\n        return (hasFollowed && !profile.unfollowed);\n    }\n\n    /**\n     * @dev Fetch profiles a user is following\n     * @param adr the address of the profile\n     * @return profiles the user is following\n     */\n    function getFollowing(address adr) public view returns (Profile[] memory) {\n        return followingMapping[adr];\n    }\n\n}",
  "sourcePath": "/Users/chriscushman/smartcontract/contracts/FollowProfiles.sol",
  "compiler": {
    "name": "solc",
    "version": "0.8.10+commit.fc410830.Emscripten.clang"
  },
  "schemaVersion": "3.4.3",
  "updatedAt": "2021-11-29T13:27:10.033Z",
  "devdoc": {
    "details": "Store & retrieve value in a variable",
    "kind": "dev",
    "methods": {
      "followUser(address)": {
        "details": "Follow a user",
        "params": {
          "adr": "address of the user to follow"
        }
      },
      "getFollowers(address)": {
        "details": "Fetch profiles that follow a user",
        "params": {
          "adr": "the address of the profile"
        },
        "returns": {
          "_0": "profiles that follow a user"
        }
      },
      "getFollowing(address)": {
        "details": "Fetch profiles a user is following",
        "params": {
          "adr": "the address of the profile"
        },
        "returns": {
          "_0": "profiles the user is following"
        }
      },
      "getIsUserFollowingMe(address)": {
        "details": "Fetch if a user is following 'me'",
        "params": {
          "adr": "the address of the profile"
        },
        "returns": {
          "_0": "true if user is following msg.sender, otherwise false"
        }
      },
      "getMyFollowers()": {
        "details": "Fetch profiles that follow 'me'",
        "returns": {
          "_0": "profiles that follow msg.sender"
        }
      },
      "getMyProfile()": {
        "details": "Fetch own profile",
        "returns": {
          "_0": "profile"
        }
      },
      "getProfile(address)": {
        "details": "Fetch user's profile",
        "params": {
          "adr": "the address of the profile"
        },
        "returns": {
          "_0": "profile"
        }
      },
      "setBio(string)": {
        "details": "Set bio on own profile",
        "params": {
          "bio": "the bio to be set"
        }
      },
      "setFollowerCount(uint256)": {
        "details": "Set the follower count of own profile",
        "params": {
          "followerCount": "the follower count to be set"
        }
      },
      "setFollowerCountForAddress(address,uint256)": {
        "details": "Set the follower count of a profile",
        "params": {
          "adr": "the address of the profile",
          "followerCount": "the follower count to be set"
        }
      },
      "setFollowingCount(uint256)": {
        "details": "Set the following count of own profile",
        "params": {
          "followingCount": "the following count to be set"
        }
      },
      "setFollowingCountForAddress(address,uint256)": {
        "details": "Set the following count of a profile",
        "params": {
          "adr": "the address of the profile",
          "followingCount": "the following count to be set"
        }
      },
      "setName(string)": {
        "details": "Set name on own profile",
        "params": {
          "name": "the name to be set"
        }
      },
      "setProfileInfo(string,string,string)": {
        "details": "Set name, profile picture url, & bio on profile",
        "params": {
          "bio": "the bio to be set",
          "name": "the name to be set",
          "profilePictureUrl": "the profile picture url to be set"
        }
      },
      "setProfilePictureUrl(string)": {
        "details": "Set profile picture url on own profile",
        "params": {
          "profilePictureUrl": "the profile picture url to be set"
        }
      },
      "unfollowUser(address)": {
        "details": "Follow a user",
        "params": {
          "adr": "address of the user to unfollow"
        }
      }
    },
    "title": "Storage",
    "version": 1
  },
  "userdoc": {
    "kind": "user",
    "methods": {},
    "version": 1
  }
}