{
  "contractName": "FollowProfiles",
  "abi": [
    {
      "inputs": [],
      "name": "retrieveMyProfile",
      "outputs": [
        {
          "components": [
            {
              "internalType": "address",
              "name": "adr",
              "type": "address"
            },
            {
              "internalType": "string",
              "name": "name",
              "type": "string"
            },
            {
              "internalType": "string",
              "name": "profilePictureUrl",
              "type": "string"
            },
            {
              "internalType": "string",
              "name": "bio",
              "type": "string"
            },
            {
              "internalType": "uint256",
              "name": "followerCount",
              "type": "uint256"
            },
            {
              "internalType": "uint256",
              "name": "followingCount",
              "type": "uint256"
            },
            {
              "internalType": "bool",
              "name": "unfollowed",
              "type": "bool"
            },
            {
              "internalType": "bool",
              "name": "unfollowing",
              "type": "bool"
            }
          ],
          "internalType": "struct Profiles.Profile",
          "name": "",
          "type": "tuple"
        }
      ],
      "stateMutability": "view",
      "type": "function"
    },
    {
      "inputs": [
        {
          "internalType": "address",
          "name": "adr",
          "type": "address"
        }
      ],
      "name": "retrieveProfile",
      "outputs": [
        {
          "components": [
            {
              "internalType": "address",
              "name": "adr",
              "type": "address"
            },
            {
              "internalType": "string",
              "name": "name",
              "type": "string"
            },
            {
              "internalType": "string",
              "name": "profilePictureUrl",
              "type": "string"
            },
            {
              "internalType": "string",
              "name": "bio",
              "type": "string"
            },
            {
              "internalType": "uint256",
              "name": "followerCount",
              "type": "uint256"
            },
            {
              "internalType": "uint256",
              "name": "followingCount",
              "type": "uint256"
            },
            {
              "internalType": "bool",
              "name": "unfollowed",
              "type": "bool"
            },
            {
              "internalType": "bool",
              "name": "unfollowing",
              "type": "bool"
            }
          ],
          "internalType": "struct Profiles.Profile",
          "name": "",
          "type": "tuple"
        }
      ],
      "stateMutability": "view",
      "type": "function"
    },
    {
      "inputs": [
        {
          "internalType": "string",
          "name": "bio",
          "type": "string"
        }
      ],
      "name": "setBio",
      "outputs": [],
      "stateMutability": "nonpayable",
      "type": "function"
    },
    {
      "inputs": [
        {
          "internalType": "uint256",
          "name": "followerCount",
          "type": "uint256"
        }
      ],
      "name": "setFollowerCount",
      "outputs": [],
      "stateMutability": "nonpayable",
      "type": "function"
    },
    {
      "inputs": [
        {
          "internalType": "address",
          "name": "adr",
          "type": "address"
        },
        {
          "internalType": "uint256",
          "name": "followerCount",
          "type": "uint256"
        }
      ],
      "name": "setFollowerCountForAddress",
      "outputs": [],
      "stateMutability": "nonpayable",
      "type": "function"
    },
    {
      "inputs": [
        {
          "internalType": "uint256",
          "name": "followingCount",
          "type": "uint256"
        }
      ],
      "name": "setFollowingCount",
      "outputs": [],
      "stateMutability": "nonpayable",
      "type": "function"
    },
    {
      "inputs": [
        {
          "internalType": "address",
          "name": "adr",
          "type": "address"
        },
        {
          "internalType": "uint256",
          "name": "followingCount",
          "type": "uint256"
        }
      ],
      "name": "setFollowingCountForAddress",
      "outputs": [],
      "stateMutability": "nonpayable",
      "type": "function"
    },
    {
      "inputs": [
        {
          "internalType": "string",
          "name": "name",
          "type": "string"
        }
      ],
      "name": "setName",
      "outputs": [],
      "stateMutability": "nonpayable",
      "type": "function"
    },
    {
      "inputs": [
        {
          "internalType": "string",
          "name": "profilePictureUrl",
          "type": "string"
        }
      ],
      "name": "setProfilePictureUrl",
      "outputs": [],
      "stateMutability": "nonpayable",
      "type": "function"
    },
    {
      "inputs": [
        {
          "internalType": "address",
          "name": "adr",
          "type": "address"
        }
      ],
      "name": "followUser",
      "outputs": [],
      "stateMutability": "nonpayable",
      "type": "function"
    },
    {
      "inputs": [
        {
          "internalType": "address",
          "name": "adr",
          "type": "address"
        }
      ],
      "name": "unfollowUser",
      "outputs": [],
      "stateMutability": "nonpayable",
      "type": "function"
    }
  ],
  "bytecode": "0x608060405234801561001057600080fd5b506110a9806100206000396000f3fe608060405234801561001057600080fd5b50600436106100a95760003560e01c8063906eb12411610071578063906eb1241461015057806391fc36ee1461016c578063a70806f714610188578063c47f0027146101a4578063f107cfcb146101c0578063fb7e06d8146101dc576100a9565b80632aec83b7146100ae57806348d50240146100cc5780634dd9c968146100fc5780635ce460a5146101185780637cd38b0614610134575b600080fd5b6100b66101f8565b6040516100c39190610d3d565b60405180910390f35b6100e660048036038101906100e19190610d9f565b6104a5565b6040516100f39190610d3d565b60405180910390f35b61011660048036038101906101119190610df8565b610754565b005b610132600480360381019061012d9190610df8565b61079e565b005b61014e60048036038101906101499190610e38565b6107e8565b005b61016a60048036038101906101659190610f9a565b610831565b005b61018660048036038101906101819190610e38565b61088a565b005b6101a2600480360381019061019d9190610d9f565b6108d3565b005b6101be60048036038101906101b99190610f9a565b6109ba565b005b6101da60048036038101906101d59190610d9f565b610a13565b005b6101f660048036038101906101f19190610f9a565b610a16565b005b610200610a6f565b6000803373ffffffffffffffffffffffffffffffffffffffff1673ffffffffffffffffffffffffffffffffffffffff168152602001908152602001600020604051806101000160405290816000820160009054906101000a900473ffffffffffffffffffffffffffffffffffffffff1673ffffffffffffffffffffffffffffffffffffffff1673ffffffffffffffffffffffffffffffffffffffff1681526020016001820180546102b090611012565b80601f01602080910402602001604051908101604052809291908181526020018280546102dc90611012565b80156103295780601f106102fe57610100808354040283529160200191610329565b820191906000526020600020905b81548152906001019060200180831161030c57829003601f168201915b5050505050815260200160028201805461034290611012565b80601f016020809104026020016040519081016040528092919081815260200182805461036e90611012565b80156103bb5780601f10610390576101008083540402835291602001916103bb565b820191906000526020600020905b81548152906001019060200180831161039e57829003601f168201915b505050505081526020016003820180546103d490611012565b80601f016020809104026020016040519081016040528092919081815260200182805461040090611012565b801561044d5780601f106104225761010080835404028352916020019161044d565b820191906000526020600020905b81548152906001019060200180831161043057829003601f168201915b5050505050815260200160048201548152602001600582015481526020016006820160009054906101000a900460ff161515151581526020016006820160019054906101000a900460ff161515151581525050905090565b6104ad610a6f565b6000808373ffffffffffffffffffffffffffffffffffffffff1673ffffffffffffffffffffffffffffffffffffffff168152602001908152602001600020604051806101000160405290816000820160009054906101000a900473ffffffffffffffffffffffffffffffffffffffff1673ffffffffffffffffffffffffffffffffffffffff1673ffffffffffffffffffffffffffffffffffffffff16815260200160018201805461055d90611012565b80601f016020809104026020016040519081016040528092919081815260200182805461058990611012565b80156105d65780601f106105ab576101008083540402835291602001916105d6565b820191906000526020600020905b8154815290600101906020018083116105b957829003601f168201915b505050505081526020016002820180546105ef90611012565b80601f016020809104026020016040519081016040528092919081815260200182805461061b90611012565b80156106685780601f1061063d57610100808354040283529160200191610668565b820191906000526020600020905b81548152906001019060200180831161064b57829003601f168201915b5050505050815260200160038201805461068190611012565b80601f01602080910402602001604051908101604052809291908181526020018280546106ad90611012565b80156106fa5780601f106106cf576101008083540402835291602001916106fa565b820191906000526020600020905b8154815290600101906020018083116106dd57829003601f168201915b5050505050815260200160048201548152602001600582015481526020016006820160009054906101000a900460ff161515151581526020016006820160019054906101000a900460ff1615151515815250509050919050565b806000808473ffffffffffffffffffffffffffffffffffffffff1673ffffffffffffffffffffffffffffffffffffffff168152602001908152602001600020600401819055505050565b806000808473ffffffffffffffffffffffffffffffffffffffff1673ffffffffffffffffffffffffffffffffffffffff168152602001908152602001600020600501819055505050565b806000803373ffffffffffffffffffffffffffffffffffffffff1673ffffffffffffffffffffffffffffffffffffffff1681526020019081526020016000206005018190555050565b806000803373ffffffffffffffffffffffffffffffffffffffff1673ffffffffffffffffffffffffffffffffffffffff1681526020019081526020016000206002019080519060200190610886929190610ace565b5050565b806000803373ffffffffffffffffffffffffffffffffffffffff1673ffffffffffffffffffffffffffffffffffffffff1681526020019081526020016000206004018190555050565b6000600160008373ffffffffffffffffffffffffffffffffffffffff1673ffffffffffffffffffffffffffffffffffffffff16815260200190815260200160002060003373ffffffffffffffffffffffffffffffffffffffff1673ffffffffffffffffffffffffffffffffffffffff1681526020019081526020016000205490506000600260008473ffffffffffffffffffffffffffffffffffffffff1673ffffffffffffffffffffffffffffffffffffffff1681526020019081526020016000206000815481106109a8576109a7611044565b5b90600052602060002001549050505050565b806000803373ffffffffffffffffffffffffffffffffffffffff1673ffffffffffffffffffffffffffffffffffffffff1681526020019081526020016000206001019080519060200190610a0f929190610ace565b5050565b50565b806000803373ffffffffffffffffffffffffffffffffffffffff1673ffffffffffffffffffffffffffffffffffffffff1681526020019081526020016000206003019080519060200190610a6b929190610ace565b5050565b604051806101000160405280600073ffffffffffffffffffffffffffffffffffffffff16815260200160608152602001606081526020016060815260200160008152602001600081526020016000151581526020016000151581525090565b828054610ada90611012565b90600052602060002090601f016020900481019282610afc5760008555610b43565b82601f10610b1557805160ff1916838001178555610b43565b82800160010185558215610b43579182015b82811115610b42578251825591602001919060010190610b27565b5b509050610b509190610b54565b5090565b5b80821115610b6d576000816000905550600101610b55565b5090565b600073ffffffffffffffffffffffffffffffffffffffff82169050919050565b6000610b9c82610b71565b9050919050565b610bac81610b91565b82525050565b600081519050919050565b600082825260208201905092915050565b60005b83811015610bec578082015181840152602081019050610bd1565b83811115610bfb576000848401525b50505050565b6000601f19601f8301169050919050565b6000610c1d82610bb2565b610c278185610bbd565b9350610c37818560208601610bce565b610c4081610c01565b840191505092915050565b6000819050919050565b610c5e81610c4b565b82525050565b60008115159050919050565b610c7981610c64565b82525050565b600061010083016000830151610c986000860182610ba3565b5060208301518482036020860152610cb08282610c12565b91505060408301518482036040860152610cca8282610c12565b91505060608301518482036060860152610ce48282610c12565b9150506080830151610cf96080860182610c55565b5060a0830151610d0c60a0860182610c55565b5060c0830151610d1f60c0860182610c70565b5060e0830151610d3260e0860182610c70565b508091505092915050565b60006020820190508181036000830152610d578184610c7f565b905092915050565b6000604051905090565b600080fd5b600080fd5b610d7c81610b91565b8114610d8757600080fd5b50565b600081359050610d9981610d73565b92915050565b600060208284031215610db557610db4610d69565b5b6000610dc384828501610d8a565b91505092915050565b610dd581610c4b565b8114610de057600080fd5b50565b600081359050610df281610dcc565b92915050565b60008060408385031215610e0f57610e0e610d69565b5b6000610e1d85828601610d8a565b9250506020610e2e85828601610de3565b9150509250929050565b600060208284031215610e4e57610e4d610d69565b5b6000610e5c84828501610de3565b91505092915050565b600080fd5b600080fd5b7f4e487b7100000000000000000000000000000000000000000000000000000000600052604160045260246000fd5b610ea782610c01565b810181811067ffffffffffffffff82111715610ec657610ec5610e6f565b5b80604052505050565b6000610ed9610d5f565b9050610ee58282610e9e565b919050565b600067ffffffffffffffff821115610f0557610f04610e6f565b5b610f0e82610c01565b9050602081019050919050565b82818337600083830152505050565b6000610f3d610f3884610eea565b610ecf565b905082815260208101848484011115610f5957610f58610e6a565b5b610f64848285610f1b565b509392505050565b600082601f830112610f8157610f80610e65565b5b8135610f91848260208601610f2a565b91505092915050565b600060208284031215610fb057610faf610d69565b5b600082013567ffffffffffffffff811115610fce57610fcd610d6e565b5b610fda84828501610f6c565b91505092915050565b7f4e487b7100000000000000000000000000000000000000000000000000000000600052602260045260246000fd5b6000600282049050600182168061102a57607f821691505b6020821081141561103e5761103d610fe3565b5b50919050565b7f4e487b7100000000000000000000000000000000000000000000000000000000600052603260045260246000fdfea2646970667358221220349ab3972c3a5a9bac4799a50bf39f11a2ce20da05a8d3fe836fc89c3b4fac2b64736f6c634300080a0033",
  "immutableReferences": {},
  "source": "// SPDX-License-Identifier: GPL-3.0\n\npragma solidity >=0.7.0 <0.9.0;\nimport './Profiles.sol';\n\n/**\n * @title Storage\n * @dev Store & retrieve value in a variable\n */\ncontract FollowProfiles is Profiles {\n\n    mapping(address => mapping(address => uint)) followersIndexMapping; // an index mapping of each follower within a user's follower list\n    mapping(address => uint[]) followersMapping; // mapping of addresses to the corresponding user's follower list\n\n    mapping(address => mapping(address => uint)) followingIndexMapping; // an index mapping of each follower within a user's following list\n    mapping(address => Profile[]) followingMapping; // mapping of addresses to the corresponding user's following list\n\n    /**\n     * @dev Follow a user\n     * @param adr address of the user to follow\n     */\n    function followUser(address adr) public {\n\n        uint followerIndex = followersIndexMapping[adr][msg.sender];\n        uint alreadyFollowedProfile = followersMapping[adr][0];\n\n        /* Profile memory ownProfile;\n        Profile memory followProfile;\n\n        // check if the mapping already exists, and if so re-follow the user that was unfollowed\n        if (alreadyFollowedProfile.adr != address(0) && alreadyFollowedProfile.unfollowed) {\n\n            ownProfile = retrieveMyProfile();\n            followProfile = retrieveProfile(adr);\n\n            uint followingIndex = followingIndexMapping[msg.sender][adr];\n\n            followersMapping[adr][followerIndex].unfollowed = false;\n            followingMapping[msg.sender][followingIndex].unfollowing = false;\n\n            setFollowerCountForAddress(adr, followProfile.followerCount + 1);\n            setFollowingCountForAddress(msg.sender, ownProfile.followingCount + 1);\n\n            return;\n        } else if (alreadyFollowedProfile.adr != address(0)) {\n            return; // if the user is not unfollowed, do nothing\n        }\n\n        ownProfile = retrieveMyProfile();\n        followProfile = retrieveProfile(adr);\n\n        ownProfile.adr = msg.sender;\n        followProfile.adr = adr;\n\n        followersMapping[adr].push(ownProfile);\n        followingMapping[msg.sender].push(followProfile);\n\n        followersIndexMapping[adr][msg.sender] = followersMapping[adr].length - 1;\n        followingIndexMapping[msg.sender][adr] = followingMapping[msg.sender].length - 1;\n\n        setFollowerCountForAddress(adr, followProfile.followerCount + 1);\n        setFollowingCountForAddress(msg.sender, ownProfile.followingCount + 1); */\n    }\n\n    /**\n     * @dev Follow a user\n     * @param adr address of the user to follow\n     */\n    function unfollowUser(address adr) public {\n\n        /* uint followerIndex = followersIndexMapping[adr][msg.sender];\n        Profile storage alreadyFollowedProfile = followersMapping[adr][followerIndex];\n\n        // if mapping already exists, unfollow the user that was followed\n        if (alreadyFollowedProfile.adr != address(0) && !alreadyFollowedProfile.unfollowed) {\n\n            Profile memory ownProfile = retrieveMyProfile();\n            Profile memory followProfile = retrieveProfile(adr);\n\n            uint followingIndex = followingIndexMapping[msg.sender][adr];\n\n            followersMapping[adr][followerIndex].unfollowed = true;\n            followingMapping[msg.sender][followingIndex].unfollowing = true;\n\n            setFollowerCountForAddress(adr, followProfile.followerCount - 1);\n            setFollowingCountForAddress(msg.sender, ownProfile.followingCount - 1);\n\n            return;\n        } */\n    }\n\n}",
  "sourcePath": "/Users/chriscushman/smartcontract/contracts/FollowProfiles.sol",
  "compiler": {
    "name": "solc",
    "version": "0.8.10+commit.fc410830.Emscripten.clang"
  },
  "schemaVersion": "3.4.3",
  "updatedAt": "2021-11-23T02:13:20.306Z",
  "devdoc": {
    "details": "Store & retrieve value in a variable",
    "kind": "dev",
    "methods": {
      "followUser(address)": {
        "details": "Follow a user",
        "params": {
          "adr": "address of the user to follow"
        }
      },
      "retrieveMyProfile()": {
        "details": "Fetch own profile",
        "returns": {
          "_0": "profile"
        }
      },
      "retrieveProfile(address)": {
        "details": "Fetch user's profile",
        "returns": {
          "_0": "profile"
        }
      },
      "setBio(string)": {
        "details": "Set bio on own profile",
        "params": {
          "bio": "the bio to be set"
        }
      },
      "setFollowerCount(uint256)": {
        "details": "Set the follower count of own profile",
        "params": {
          "followerCount": "the follower count to be set"
        }
      },
      "setFollowerCountForAddress(address,uint256)": {
        "details": "Set the follower count of a profile",
        "params": {
          "adr": "the address of the profile",
          "followerCount": "the follower count to be set"
        }
      },
      "setFollowingCount(uint256)": {
        "details": "Set the following count of own profile",
        "params": {
          "followingCount": "the following count to be set"
        }
      },
      "setFollowingCountForAddress(address,uint256)": {
        "details": "Set the following count of a profile",
        "params": {
          "adr": "the address of the profile",
          "followingCount": "the following count to be set"
        }
      },
      "setName(string)": {
        "details": "Set name on own profile",
        "params": {
          "name": "the name to be set"
        }
      },
      "setProfilePictureUrl(string)": {
        "details": "Set profile picture url on own profile",
        "params": {
          "profilePictureUrl": "the profile picture url to be set"
        }
      },
      "unfollowUser(address)": {
        "details": "Follow a user",
        "params": {
          "adr": "address of the user to follow"
        }
      }
    },
    "title": "Storage",
    "version": 1
  },
  "userdoc": {
    "kind": "user",
    "methods": {},
    "version": 1
  }
}