{
  "contractName": "Likes",
  "abi": [
    {
      "inputs": [
        {
          "internalType": "string",
          "name": "title",
          "type": "string"
        },
        {
          "internalType": "string",
          "name": "description",
          "type": "string"
        }
      ],
      "name": "addPost",
      "outputs": [],
      "stateMutability": "nonpayable",
      "type": "function"
    },
    {
      "inputs": [
        {
          "internalType": "uint256",
          "name": "limit",
          "type": "uint256"
        },
        {
          "internalType": "uint256",
          "name": "offset",
          "type": "uint256"
        }
      ],
      "name": "getMyPosts",
      "outputs": [
        {
          "components": [
            {
              "internalType": "address",
              "name": "author",
              "type": "address"
            },
            {
              "internalType": "uint256",
              "name": "postId",
              "type": "uint256"
            },
            {
              "internalType": "string",
              "name": "title",
              "type": "string"
            },
            {
              "internalType": "string",
              "name": "description",
              "type": "string"
            },
            {
              "internalType": "string",
              "name": "externalLink",
              "type": "string"
            },
            {
              "internalType": "uint256",
              "name": "likeCount",
              "type": "uint256"
            },
            {
              "internalType": "uint256",
              "name": "replyCount",
              "type": "uint256"
            },
            {
              "internalType": "uint256",
              "name": "shareCount",
              "type": "uint256"
            },
            {
              "internalType": "bool",
              "name": "isReply",
              "type": "bool"
            }
          ],
          "internalType": "struct UserPosts.Post[]",
          "name": "",
          "type": "tuple[]"
        }
      ],
      "stateMutability": "view",
      "type": "function",
      "constant": true
    },
    {
      "inputs": [
        {
          "internalType": "address",
          "name": "adr",
          "type": "address"
        },
        {
          "internalType": "uint256",
          "name": "limit",
          "type": "uint256"
        },
        {
          "internalType": "uint256",
          "name": "offset",
          "type": "uint256"
        }
      ],
      "name": "getRepliesFromUser",
      "outputs": [
        {
          "components": [
            {
              "internalType": "address",
              "name": "author",
              "type": "address"
            },
            {
              "internalType": "uint256",
              "name": "postId",
              "type": "uint256"
            },
            {
              "internalType": "string",
              "name": "title",
              "type": "string"
            },
            {
              "internalType": "string",
              "name": "description",
              "type": "string"
            },
            {
              "internalType": "string",
              "name": "externalLink",
              "type": "string"
            },
            {
              "internalType": "uint256",
              "name": "likeCount",
              "type": "uint256"
            },
            {
              "internalType": "uint256",
              "name": "replyCount",
              "type": "uint256"
            },
            {
              "internalType": "uint256",
              "name": "shareCount",
              "type": "uint256"
            },
            {
              "internalType": "bool",
              "name": "isReply",
              "type": "bool"
            }
          ],
          "internalType": "struct UserPosts.Post[]",
          "name": "",
          "type": "tuple[]"
        }
      ],
      "stateMutability": "view",
      "type": "function",
      "constant": true
    },
    {
      "inputs": [
        {
          "internalType": "uint256",
          "name": "postId",
          "type": "uint256"
        },
        {
          "internalType": "uint256",
          "name": "limit",
          "type": "uint256"
        },
        {
          "internalType": "uint256",
          "name": "offset",
          "type": "uint256"
        }
      ],
      "name": "getRepliesToPost",
      "outputs": [
        {
          "components": [
            {
              "internalType": "address",
              "name": "author",
              "type": "address"
            },
            {
              "internalType": "uint256",
              "name": "postId",
              "type": "uint256"
            },
            {
              "internalType": "string",
              "name": "title",
              "type": "string"
            },
            {
              "internalType": "string",
              "name": "description",
              "type": "string"
            },
            {
              "internalType": "string",
              "name": "externalLink",
              "type": "string"
            },
            {
              "internalType": "uint256",
              "name": "likeCount",
              "type": "uint256"
            },
            {
              "internalType": "uint256",
              "name": "replyCount",
              "type": "uint256"
            },
            {
              "internalType": "uint256",
              "name": "shareCount",
              "type": "uint256"
            },
            {
              "internalType": "bool",
              "name": "isReply",
              "type": "bool"
            }
          ],
          "internalType": "struct UserPosts.Post[]",
          "name": "",
          "type": "tuple[]"
        }
      ],
      "stateMutability": "view",
      "type": "function",
      "constant": true
    },
    {
      "inputs": [
        {
          "internalType": "address",
          "name": "adr",
          "type": "address"
        },
        {
          "internalType": "uint256",
          "name": "limit",
          "type": "uint256"
        },
        {
          "internalType": "uint256",
          "name": "offset",
          "type": "uint256"
        }
      ],
      "name": "getUserPosts",
      "outputs": [
        {
          "components": [
            {
              "internalType": "address",
              "name": "author",
              "type": "address"
            },
            {
              "internalType": "uint256",
              "name": "postId",
              "type": "uint256"
            },
            {
              "internalType": "string",
              "name": "title",
              "type": "string"
            },
            {
              "internalType": "string",
              "name": "description",
              "type": "string"
            },
            {
              "internalType": "string",
              "name": "externalLink",
              "type": "string"
            },
            {
              "internalType": "uint256",
              "name": "likeCount",
              "type": "uint256"
            },
            {
              "internalType": "uint256",
              "name": "replyCount",
              "type": "uint256"
            },
            {
              "internalType": "uint256",
              "name": "shareCount",
              "type": "uint256"
            },
            {
              "internalType": "bool",
              "name": "isReply",
              "type": "bool"
            }
          ],
          "internalType": "struct UserPosts.Post[]",
          "name": "",
          "type": "tuple[]"
        }
      ],
      "stateMutability": "view",
      "type": "function",
      "constant": true
    },
    {
      "inputs": [
        {
          "internalType": "uint256",
          "name": "postId",
          "type": "uint256"
        },
        {
          "internalType": "address",
          "name": "author",
          "type": "address"
        },
        {
          "internalType": "string",
          "name": "description",
          "type": "string"
        }
      ],
      "name": "replyToPost",
      "outputs": [],
      "stateMutability": "nonpayable",
      "type": "function"
    },
    {
      "inputs": [
        {
          "internalType": "uint256",
          "name": "replyId",
          "type": "uint256"
        },
        {
          "internalType": "address",
          "name": "author",
          "type": "address"
        },
        {
          "internalType": "string",
          "name": "description",
          "type": "string"
        }
      ],
      "name": "replyToReply",
      "outputs": [],
      "stateMutability": "nonpayable",
      "type": "function"
    },
    {
      "inputs": [
        {
          "internalType": "uint256",
          "name": "postId",
          "type": "uint256"
        }
      ],
      "name": "likePost",
      "outputs": [],
      "stateMutability": "nonpayable",
      "type": "function"
    },
    {
      "inputs": [
        {
          "internalType": "uint256",
          "name": "replyId",
          "type": "uint256"
        },
        {
          "internalType": "uint256",
          "name": "postId",
          "type": "uint256"
        },
        {
          "internalType": "address",
          "name": "adr",
          "type": "address"
        }
      ],
      "name": "likeReply",
      "outputs": [],
      "stateMutability": "nonpayable",
      "type": "function"
    },
    {
      "inputs": [
        {
          "internalType": "uint256",
          "name": "postId",
          "type": "uint256"
        }
      ],
      "name": "getPostIsLiked",
      "outputs": [
        {
          "internalType": "bool",
          "name": "",
          "type": "bool"
        }
      ],
      "stateMutability": "view",
      "type": "function",
      "constant": true
    },
    {
      "inputs": [
        {
          "internalType": "uint256",
          "name": "replyId",
          "type": "uint256"
        }
      ],
      "name": "getReplyIsLiked",
      "outputs": [
        {
          "internalType": "bool",
          "name": "",
          "type": "bool"
        }
      ],
      "stateMutability": "view",
      "type": "function",
      "constant": true
    }
  ],
  "bytecode": "0x608060405234801561001057600080fd5b5061275a806100206000396000f3fe608060405234801561001057600080fd5b50600436106100a95760003560e01c8063a8c91fde11610071578063a8c91fde14610162578063b02c651614610192578063c3fd8236146101ae578063cb2f4a0b146101de578063d05b4b601461020e578063fb0c92f11461023e576100a9565b80633a24cb7b146100ae5780634773a699146100de57806357d2bcb8146100fa578063725009d3146101165780639572d98814610132575b600080fd5b6100c860048036038101906100c39190611f33565b61025a565b6040516100d591906121ed565b60405180910390f35b6100f860048036038101906100f39190612344565b610655565b005b610114600480360381019061010f9190612344565b610aab565b005b610130600480360381019061012b91906123b3565b610f01565b005b61014c600480360381019061014791906123b3565b6110ae565b60405161015991906123ef565b60405180910390f35b61017c6004803603810190610177919061240a565b611115565b60405161018991906121ed565b60405180910390f35b6101ac60048036038101906101a7919061245d565b6114b9565b005b6101c860048036038101906101c391906124d5565b6116e3565b6040516101d591906121ed565b60405180910390f35b6101f860048036038101906101f391906123b3565b6116f8565b60405161020591906123ef565b60405180910390f35b61022860048036038101906102239190611f33565b61175f565b60405161023591906121ed565b60405180910390f35b61025860048036038101906102539190612515565b611b5b565b005b606060008367ffffffffffffffff81111561027857610277612219565b5b6040519080825280602002602001820160405280156102b157816020015b61029e611d84565b8152602001906001900390816102965790505b5090506000600160008773ffffffffffffffffffffffffffffffffffffffff1673ffffffffffffffffffffffffffffffffffffffff168152602001908152602001600020905060008060008873ffffffffffffffffffffffffffffffffffffffff1673ffffffffffffffffffffffffffffffffffffffff168152602001908152602001600020905060008180549050905060005b878110801561035e575081878261035c9190612597565b105b1561064657600083886001846103749190612597565b8561037f91906125ed565b61038991906125ed565b8154811061039a57610399612621565b5b90600052602060002001549050846000828152602001908152602001600020604051806101200160405290816000820160009054906101000a900473ffffffffffffffffffffffffffffffffffffffff1673ffffffffffffffffffffffffffffffffffffffff1673ffffffffffffffffffffffffffffffffffffffff168152602001600182015481526020016002820180546104359061267f565b80601f01602080910402602001604051908101604052809291908181526020018280546104619061267f565b80156104ae5780601f10610483576101008083540402835291602001916104ae565b820191906000526020600020905b81548152906001019060200180831161049157829003601f168201915b505050505081526020016003820180546104c79061267f565b80601f01602080910402602001604051908101604052809291908181526020018280546104f39061267f565b80156105405780601f1061051557610100808354040283529160200191610540565b820191906000526020600020905b81548152906001019060200180831161052357829003601f168201915b505050505081526020016004820180546105599061267f565b80601f01602080910402602001604051908101604052809291908181526020018280546105859061267f565b80156105d25780601f106105a7576101008083540402835291602001916105d2565b820191906000526020600020905b8154815290600101906020018083116105b557829003601f168201915b505050505081526020016005820154815260200160068201548152602001600782015481526020016008820160009054906101000a900460ff16151515158152505086838151811061062757610626612621565b5b602002602001018190525050808061063e906126b1565b915050610345565b50839450505050509392505050565b6000600160008473ffffffffffffffffffffffffffffffffffffffff1673ffffffffffffffffffffffffffffffffffffffff168152602001908152602001600020600085815260200190815260200160002090506000816001015414156106bc5750610aa6565b60006001436106cb91906125ed565b4060001c905060006040518061012001604052803373ffffffffffffffffffffffffffffffffffffffff16815260200183815260200160405180602001604052806000815250815260200185815260200160405180602001604052806000815250815260200160008152602001600081526020016000815260200160011515815250905080600360003373ffffffffffffffffffffffffffffffffffffffff1673ffffffffffffffffffffffffffffffffffffffff168152602001908152602001600020600084815260200190815260200160002060008201518160000160006101000a81548173ffffffffffffffffffffffffffffffffffffffff021916908373ffffffffffffffffffffffffffffffffffffffff16021790555060208201518160010155604082015181600201908051906020019061080d929190611de8565b50606082015181600301908051906020019061082a929190611de8565b506080820151816004019080519060200190610847929190611de8565b5060a0820151816005015560c0820151816006015560e082015181600701556101008201518160080160006101000a81548160ff021916908315150217905550905050600260003373ffffffffffffffffffffffffffffffffffffffff1673ffffffffffffffffffffffffffffffffffffffff168152602001908152602001600020829080600181540180825580915050600190039060005260206000200160009091909190915055600460008781526020019081526020016000208290806001815401808255809150506001900390600052602060002001600090919091909150558060056000888152602001908152602001600020600084815260200190815260200160002060008201518160000160006101000a81548173ffffffffffffffffffffffffffffffffffffffff021916908373ffffffffffffffffffffffffffffffffffffffff1602179055506020820151816001015560408201518160020190805190602001906109bc929190611de8565b5060608201518160030190805190602001906109d9929190611de8565b5060808201518160040190805190602001906109f6929190611de8565b5060a0820151816005015560c0820151816006015560e082015181600701556101008201518160080160006101000a81548160ff021916908315150217905550905050600160008673ffffffffffffffffffffffffffffffffffffffff1673ffffffffffffffffffffffffffffffffffffffff16815260200190815260200160002060008781526020019081526020016000206006016000815480929190610a9d906126b1565b91905055505050505b505050565b6000600360008473ffffffffffffffffffffffffffffffffffffffff1673ffffffffffffffffffffffffffffffffffffffff16815260200190815260200160002060008581526020019081526020016000209050600081600101541415610b125750610efc565b6000600143610b2191906125ed565b4060001c905060006040518061012001604052803373ffffffffffffffffffffffffffffffffffffffff16815260200183815260200160405180602001604052806000815250815260200185815260200160405180602001604052806000815250815260200160008152602001600081526020016000815260200160011515815250905080600360003373ffffffffffffffffffffffffffffffffffffffff1673ffffffffffffffffffffffffffffffffffffffff168152602001908152602001600020600084815260200190815260200160002060008201518160000160006101000a81548173ffffffffffffffffffffffffffffffffffffffff021916908373ffffffffffffffffffffffffffffffffffffffff160217905550602082015181600101556040820151816002019080519060200190610c63929190611de8565b506060820151816003019080519060200190610c80929190611de8565b506080820151816004019080519060200190610c9d929190611de8565b5060a0820151816005015560c0820151816006015560e082015181600701556101008201518160080160006101000a81548160ff021916908315150217905550905050600260003373ffffffffffffffffffffffffffffffffffffffff1673ffffffffffffffffffffffffffffffffffffffff168152602001908152602001600020829080600181540180825580915050600190039060005260206000200160009091909190915055600460008781526020019081526020016000208290806001815401808255809150506001900390600052602060002001600090919091909150558060056000888152602001908152602001600020600084815260200190815260200160002060008201518160000160006101000a81548173ffffffffffffffffffffffffffffffffffffffff021916908373ffffffffffffffffffffffffffffffffffffffff160217905550602082015181600101556040820151816002019080519060200190610e12929190611de8565b506060820151816003019080519060200190610e2f929190611de8565b506080820151816004019080519060200190610e4c929190611de8565b5060a0820151816005015560c0820151816006015560e082015181600701556101008201518160080160006101000a81548160ff021916908315150217905550905050600360008673ffffffffffffffffffffffffffffffffffffffff1673ffffffffffffffffffffffffffffffffffffffff16815260200190815260200160002060008781526020019081526020016000206006016000815480929190610ef3906126b1565b91905055505050505b505050565b6000600660003373ffffffffffffffffffffffffffffffffffffffff1673ffffffffffffffffffffffffffffffffffffffff168152602001908152602001600020600083815260200190815260200160002060009054906101000a900460ff1615905080600660003373ffffffffffffffffffffffffffffffffffffffff1673ffffffffffffffffffffffffffffffffffffffff168152602001908152602001600020600084815260200190815260200160002060006101000a81548160ff021916908315150217905550801561104057600160003373ffffffffffffffffffffffffffffffffffffffff1673ffffffffffffffffffffffffffffffffffffffff16815260200190815260200160002060008381526020019081526020016000206005016000815480929190611036906126b1565b91905055506110aa565b600160003373ffffffffffffffffffffffffffffffffffffffff1673ffffffffffffffffffffffffffffffffffffffff168152602001908152602001600020600083815260200190815260200160002060050160008154809291906110a4906126fa565b91905055505b5050565b6000600760003373ffffffffffffffffffffffffffffffffffffffff1673ffffffffffffffffffffffffffffffffffffffff168152602001908152602001600020600083815260200190815260200160002060009054906101000a900460ff169050919050565b606060008367ffffffffffffffff81111561113357611132612219565b5b60405190808252806020026020018201604052801561116c57816020015b611159611d84565b8152602001906001900390816111515790505b5090506000600560008781526020019081526020016000209050600060046000888152602001908152602001600020905060008180549050905060005b87811080156111c257508187826111c09190612597565b105b156114aa57600083886001846111d89190612597565b856111e391906125ed565b6111ed91906125ed565b815481106111fe576111fd612621565b5b90600052602060002001549050846000828152602001908152602001600020604051806101200160405290816000820160009054906101000a900473ffffffffffffffffffffffffffffffffffffffff1673ffffffffffffffffffffffffffffffffffffffff1673ffffffffffffffffffffffffffffffffffffffff168152602001600182015481526020016002820180546112999061267f565b80601f01602080910402602001604051908101604052809291908181526020018280546112c59061267f565b80156113125780601f106112e757610100808354040283529160200191611312565b820191906000526020600020905b8154815290600101906020018083116112f557829003601f168201915b5050505050815260200160038201805461132b9061267f565b80601f01602080910402602001604051908101604052809291908181526020018280546113579061267f565b80156113a45780601f10611379576101008083540402835291602001916113a4565b820191906000526020600020905b81548152906001019060200180831161138757829003601f168201915b505050505081526020016004820180546113bd9061267f565b80601f01602080910402602001604051908101604052809291908181526020018280546113e99061267f565b80156114365780601f1061140b57610100808354040283529160200191611436565b820191906000526020600020905b81548152906001019060200180831161141957829003601f168201915b505050505081526020016005820154815260200160068201548152602001600782015481526020016008820160009054906101000a900460ff16151515158152505086838151811061148b5761148a612621565b5b60200260200101819052505080806114a2906126b1565b9150506111a9565b50839450505050509392505050565b60006001436114c891906125ed565b4060001c905060006040518061012001604052803373ffffffffffffffffffffffffffffffffffffffff16815260200183815260200185815260200184815260200160405180602001604052806000815250815260200160008152602001600081526020016000815260200160001515815250905080600160003373ffffffffffffffffffffffffffffffffffffffff1673ffffffffffffffffffffffffffffffffffffffff168152602001908152602001600020600084815260200190815260200160002060008201518160000160006101000a81548173ffffffffffffffffffffffffffffffffffffffff021916908373ffffffffffffffffffffffffffffffffffffffff1602179055506020820151816001015560408201518160020190805190602001906115fb929190611de8565b506060820151816003019080519060200190611618929190611de8565b506080820151816004019080519060200190611635929190611de8565b5060a0820151816005015560c0820151816006015560e082015181600701556101008201518160080160006101000a81548160ff0219169083151502179055509050506000803373ffffffffffffffffffffffffffffffffffffffff1673ffffffffffffffffffffffffffffffffffffffff16815260200190815260200160002082908060018154018082558091505060019003906000526020600020016000909190919091505550505050565b60606116f033848461025a565b905092915050565b6000600660003373ffffffffffffffffffffffffffffffffffffffff1673ffffffffffffffffffffffffffffffffffffffff168152602001908152602001600020600083815260200190815260200160002060009054906101000a900460ff169050919050565b606060008367ffffffffffffffff81111561177d5761177c612219565b5b6040519080825280602002602001820160405280156117b657816020015b6117a3611d84565b81526020019060019003908161179b5790505b5090506000600360008773ffffffffffffffffffffffffffffffffffffffff1673ffffffffffffffffffffffffffffffffffffffff16815260200190815260200160002090506000600260008873ffffffffffffffffffffffffffffffffffffffff1673ffffffffffffffffffffffffffffffffffffffff168152602001908152602001600020905060008180549050905060005b878110801561186457508187826118629190612597565b105b15611b4c576000838860018461187a9190612597565b8561188591906125ed565b61188f91906125ed565b815481106118a05761189f612621565b5b90600052602060002001549050846000828152602001908152602001600020604051806101200160405290816000820160009054906101000a900473ffffffffffffffffffffffffffffffffffffffff1673ffffffffffffffffffffffffffffffffffffffff1673ffffffffffffffffffffffffffffffffffffffff1681526020016001820154815260200160028201805461193b9061267f565b80601f01602080910402602001604051908101604052809291908181526020018280546119679061267f565b80156119b45780601f10611989576101008083540402835291602001916119b4565b820191906000526020600020905b81548152906001019060200180831161199757829003601f168201915b505050505081526020016003820180546119cd9061267f565b80601f01602080910402602001604051908101604052809291908181526020018280546119f99061267f565b8015611a465780601f10611a1b57610100808354040283529160200191611a46565b820191906000526020600020905b815481529060010190602001808311611a2957829003601f168201915b50505050508152602001600482018054611a5f9061267f565b80601f0160208091040260200160405190810160405280929190818152602001828054611a8b9061267f565b8015611ad85780601f10611aad57610100808354040283529160200191611ad8565b820191906000526020600020905b815481529060010190602001808311611abb57829003601f168201915b505050505081526020016005820154815260200160068201548152602001600782015481526020016008820160009054906101000a900460ff161515151581525050868381518110611b2d57611b2c612621565b5b6020026020010181905250508080611b44906126b1565b91505061184b565b50839450505050509392505050565b6000600760008373ffffffffffffffffffffffffffffffffffffffff1673ffffffffffffffffffffffffffffffffffffffff168152602001908152602001600020600085815260200190815260200160002060009054906101000a900460ff1615905080600760008473ffffffffffffffffffffffffffffffffffffffff1673ffffffffffffffffffffffffffffffffffffffff168152602001908152602001600020600086815260200190815260200160002060006101000a81548160ff0219169083151502179055508015611cd757600360008373ffffffffffffffffffffffffffffffffffffffff1673ffffffffffffffffffffffffffffffffffffffff16815260200190815260200160002060008581526020019081526020016000206005016000815480929190611c90906126b1565b91905055506005600084815260200190815260200160002060008581526020019081526020016000206005016000815480929190611ccd906126b1565b9190505550611d7e565b600360008373ffffffffffffffffffffffffffffffffffffffff1673ffffffffffffffffffffffffffffffffffffffff16815260200190815260200160002060008581526020019081526020016000206005016000815480929190611d3b906126fa565b91905055506005600084815260200190815260200160002060008581526020019081526020016000206005016000815480929190611d78906126fa565b91905055505b50505050565b604051806101200160405280600073ffffffffffffffffffffffffffffffffffffffff168152602001600081526020016060815260200160608152602001606081526020016000815260200160008152602001600081526020016000151581525090565b828054611df49061267f565b90600052602060002090601f016020900481019282611e165760008555611e5d565b82601f10611e2f57805160ff1916838001178555611e5d565b82800160010185558215611e5d579182015b82811115611e5c578251825591602001919060010190611e41565b5b509050611e6a9190611e6e565b5090565b5b80821115611e87576000816000905550600101611e6f565b5090565b6000604051905090565b600080fd5b600080fd5b600073ffffffffffffffffffffffffffffffffffffffff82169050919050565b6000611eca82611e9f565b9050919050565b611eda81611ebf565b8114611ee557600080fd5b50565b600081359050611ef781611ed1565b92915050565b6000819050919050565b611f1081611efd565b8114611f1b57600080fd5b50565b600081359050611f2d81611f07565b92915050565b600080600060608486031215611f4c57611f4b611e95565b5b6000611f5a86828701611ee8565b9350506020611f6b86828701611f1e565b9250506040611f7c86828701611f1e565b9150509250925092565b600081519050919050565b600082825260208201905092915050565b6000819050602082019050919050565b611fbb81611ebf565b82525050565b611fca81611efd565b82525050565b600081519050919050565b600082825260208201905092915050565b60005b8381101561200a578082015181840152602081019050611fef565b83811115612019576000848401525b50505050565b6000601f19601f8301169050919050565b600061203b82611fd0565b6120458185611fdb565b9350612055818560208601611fec565b61205e8161201f565b840191505092915050565b60008115159050919050565b61207e81612069565b82525050565b60006101208301600083015161209d6000860182611fb2565b5060208301516120b06020860182611fc1565b50604083015184820360408601526120c88282612030565b915050606083015184820360608601526120e28282612030565b915050608083015184820360808601526120fc8282612030565b91505060a083015161211160a0860182611fc1565b5060c083015161212460c0860182611fc1565b5060e083015161213760e0860182611fc1565b5061010083015161214c610100860182612075565b508091505092915050565b60006121638383612084565b905092915050565b6000602082019050919050565b600061218382611f86565b61218d8185611f91565b93508360208202850161219f85611fa2565b8060005b858110156121db57848403895281516121bc8582612157565b94506121c78361216b565b925060208a019950506001810190506121a3565b50829750879550505050505092915050565b600060208201905081810360008301526122078184612178565b905092915050565b600080fd5b600080fd5b7f4e487b7100000000000000000000000000000000000000000000000000000000600052604160045260246000fd5b6122518261201f565b810181811067ffffffffffffffff821117156122705761226f612219565b5b80604052505050565b6000612283611e8b565b905061228f8282612248565b919050565b600067ffffffffffffffff8211156122af576122ae612219565b5b6122b88261201f565b9050602081019050919050565b82818337600083830152505050565b60006122e76122e284612294565b612279565b90508281526020810184848401111561230357612302612214565b5b61230e8482856122c5565b509392505050565b600082601f83011261232b5761232a61220f565b5b813561233b8482602086016122d4565b91505092915050565b60008060006060848603121561235d5761235c611e95565b5b600061236b86828701611f1e565b935050602061237c86828701611ee8565b925050604084013567ffffffffffffffff81111561239d5761239c611e9a565b5b6123a986828701612316565b9150509250925092565b6000602082840312156123c9576123c8611e95565b5b60006123d784828501611f1e565b91505092915050565b6123e981612069565b82525050565b600060208201905061240460008301846123e0565b92915050565b60008060006060848603121561242357612422611e95565b5b600061243186828701611f1e565b935050602061244286828701611f1e565b925050604061245386828701611f1e565b9150509250925092565b6000806040838503121561247457612473611e95565b5b600083013567ffffffffffffffff81111561249257612491611e9a565b5b61249e85828601612316565b925050602083013567ffffffffffffffff8111156124bf576124be611e9a565b5b6124cb85828601612316565b9150509250929050565b600080604083850312156124ec576124eb611e95565b5b60006124fa85828601611f1e565b925050602061250b85828601611f1e565b9150509250929050565b60008060006060848603121561252e5761252d611e95565b5b600061253c86828701611f1e565b935050602061254d86828701611f1e565b925050604061255e86828701611ee8565b9150509250925092565b7f4e487b7100000000000000000000000000000000000000000000000000000000600052601160045260246000fd5b60006125a282611efd565b91506125ad83611efd565b9250827fffffffffffffffffffffffffffffffffffffffffffffffffffffffffffffffff038211156125e2576125e1612568565b5b828201905092915050565b60006125f882611efd565b915061260383611efd565b92508282101561261657612615612568565b5b828203905092915050565b7f4e487b7100000000000000000000000000000000000000000000000000000000600052603260045260246000fd5b7f4e487b7100000000000000000000000000000000000000000000000000000000600052602260045260246000fd5b6000600282049050600182168061269757607f821691505b602082108114156126ab576126aa612650565b5b50919050565b60006126bc82611efd565b91507fffffffffffffffffffffffffffffffffffffffffffffffffffffffffffffffff8214156126ef576126ee612568565b5b600182019050919050565b600061270582611efd565b9150600082141561271957612718612568565b5b60018203905091905056fea26469706673582212200e4070341828b02b04eb2bebdc369b26463c7d5394268aea0a0ee289f653ce5864736f6c634300080a0033",
  "immutableReferences": {},
  "source": "// SPDX-License-Identifier: GPL-3.0\n\npragma solidity >=0.7.0 <0.9.0;\n\nimport './UserPosts.sol';\nimport './Replies.sol';\n\ncontract Likes is UserPosts, Replies {\n\n    mapping(address => mapping(uint => bool) ) likedPosts;\n    mapping(address => mapping(uint => bool) ) likedReplies;\n\n    function likePost(uint postId) public {\n          \n        bool isLiked = !likedPosts[msg.sender][postId];\n        likedPosts[msg.sender][postId] = isLiked;\n        \n        if (isLiked) {\n            userPosts[msg.sender][postId].likeCount++;\n        } else {\n            userPosts[msg.sender][postId].likeCount--;\n        }\n    }\n    \n    function likeReply(uint replyId, uint postId, address adr) public {\n\n        bool isLiked = !likedReplies[adr][replyId];\n        likedReplies[adr][replyId] = isLiked;\n\n        if (isLiked) {\n            userReplies[adr][replyId].likeCount++;\n            postReplies[postId][replyId].likeCount++;\n        } else {\n            userReplies[adr][replyId].likeCount--;\n            postReplies[postId][replyId].likeCount--;\n        }\n    }\n\n    function getPostIsLiked(uint postId) public view returns (bool) {\n        return likedPosts[msg.sender][postId];\n    }\n    \n    function getReplyIsLiked(uint replyId) public view returns (bool) {\n        return likedReplies[msg.sender][replyId];\n    }\n}",
  "sourcePath": "/Users/chriscushman/smartcontract/contracts/Likes.sol",
  "compiler": {
    "name": "solc",
    "version": "0.8.10+commit.fc410830.Emscripten.clang"
  },
  "schemaVersion": "3.4.3",
  "updatedAt": "2021-11-23T01:40:21.863Z",
  "networkType": "ethereum",
  "devdoc": {
    "kind": "dev",
    "methods": {},
    "version": 1
  },
  "userdoc": {
    "kind": "user",
    "methods": {},
    "version": 1
  }
}