{
  "contractName": "Profiles",
  "abi": [
    {
      "inputs": [
        {
          "internalType": "string",
          "name": "name",
          "type": "string"
        }
      ],
      "name": "setName",
      "outputs": [],
      "stateMutability": "nonpayable",
      "type": "function"
    },
    {
      "inputs": [
        {
          "internalType": "string",
          "name": "profilePictureUrl",
          "type": "string"
        }
      ],
      "name": "setProfilePictureUrl",
      "outputs": [],
      "stateMutability": "nonpayable",
      "type": "function"
    },
    {
      "inputs": [
        {
          "internalType": "string",
          "name": "bio",
          "type": "string"
        }
      ],
      "name": "setBio",
      "outputs": [],
      "stateMutability": "nonpayable",
      "type": "function"
    },
    {
      "inputs": [
        {
          "internalType": "uint256",
          "name": "followerCount",
          "type": "uint256"
        }
      ],
      "name": "setFollowerCount",
      "outputs": [],
      "stateMutability": "nonpayable",
      "type": "function"
    },
    {
      "inputs": [
        {
          "internalType": "uint256",
          "name": "followingCount",
          "type": "uint256"
        }
      ],
      "name": "setFollowingCount",
      "outputs": [],
      "stateMutability": "nonpayable",
      "type": "function"
    },
    {
      "inputs": [
        {
          "internalType": "address",
          "name": "adr",
          "type": "address"
        },
        {
          "internalType": "uint256",
          "name": "followerCount",
          "type": "uint256"
        }
      ],
      "name": "setFollowerCountForAddress",
      "outputs": [],
      "stateMutability": "nonpayable",
      "type": "function"
    },
    {
      "inputs": [
        {
          "internalType": "address",
          "name": "adr",
          "type": "address"
        },
        {
          "internalType": "uint256",
          "name": "followingCount",
          "type": "uint256"
        }
      ],
      "name": "setFollowingCountForAddress",
      "outputs": [],
      "stateMutability": "nonpayable",
      "type": "function"
    },
    {
      "inputs": [],
      "name": "retrieveMyProfile",
      "outputs": [
        {
          "components": [
            {
              "internalType": "address",
              "name": "adr",
              "type": "address"
            },
            {
              "internalType": "string",
              "name": "name",
              "type": "string"
            },
            {
              "internalType": "string",
              "name": "profilePictureUrl",
              "type": "string"
            },
            {
              "internalType": "string",
              "name": "bio",
              "type": "string"
            },
            {
              "internalType": "uint256",
              "name": "followerCount",
              "type": "uint256"
            },
            {
              "internalType": "uint256",
              "name": "followingCount",
              "type": "uint256"
            },
            {
              "internalType": "bool",
              "name": "unfollowed",
              "type": "bool"
            },
            {
              "internalType": "bool",
              "name": "unfollowing",
              "type": "bool"
            }
          ],
          "internalType": "struct Profiles.Profile",
          "name": "",
          "type": "tuple"
        }
      ],
      "stateMutability": "view",
      "type": "function",
      "constant": true
    },
    {
      "inputs": [
        {
          "internalType": "address",
          "name": "adr",
          "type": "address"
        }
      ],
      "name": "retrieveProfile",
      "outputs": [
        {
          "components": [
            {
              "internalType": "address",
              "name": "adr",
              "type": "address"
            },
            {
              "internalType": "string",
              "name": "name",
              "type": "string"
            },
            {
              "internalType": "string",
              "name": "profilePictureUrl",
              "type": "string"
            },
            {
              "internalType": "string",
              "name": "bio",
              "type": "string"
            },
            {
              "internalType": "uint256",
              "name": "followerCount",
              "type": "uint256"
            },
            {
              "internalType": "uint256",
              "name": "followingCount",
              "type": "uint256"
            },
            {
              "internalType": "bool",
              "name": "unfollowed",
              "type": "bool"
            },
            {
              "internalType": "bool",
              "name": "unfollowing",
              "type": "bool"
            }
          ],
          "internalType": "struct Profiles.Profile",
          "name": "",
          "type": "tuple"
        }
      ],
      "stateMutability": "view",
      "type": "function",
      "constant": true
    }
  ],
  "bytecode": "0x608060405234801561001057600080fd5b50610f42806100206000396000f3fe608060405234801561001057600080fd5b50600436106100935760003560e01c80637cd38b06116100665780637cd38b061461011e578063906eb1241461013a57806391fc36ee14610156578063c47f002714610172578063fb7e06d81461018e57610093565b80632aec83b71461009857806348d50240146100b65780634dd9c968146100e65780635ce460a514610102575b600080fd5b6100a06101aa565b6040516100ad9190610c05565b60405180910390f35b6100d060048036038101906100cb9190610c67565b610457565b6040516100dd9190610c05565b60405180910390f35b61010060048036038101906100fb9190610cc0565b610706565b005b61011c60048036038101906101179190610cc0565b610750565b005b61013860048036038101906101339190610d00565b61079a565b005b610154600480360381019061014f9190610e62565b6107e3565b005b610170600480360381019061016b9190610d00565b61083c565b005b61018c60048036038101906101879190610e62565b610885565b005b6101a860048036038101906101a39190610e62565b6108de565b005b6101b2610937565b6000803373ffffffffffffffffffffffffffffffffffffffff1673ffffffffffffffffffffffffffffffffffffffff168152602001908152602001600020604051806101000160405290816000820160009054906101000a900473ffffffffffffffffffffffffffffffffffffffff1673ffffffffffffffffffffffffffffffffffffffff1673ffffffffffffffffffffffffffffffffffffffff16815260200160018201805461026290610eda565b80601f016020809104026020016040519081016040528092919081815260200182805461028e90610eda565b80156102db5780601f106102b0576101008083540402835291602001916102db565b820191906000526020600020905b8154815290600101906020018083116102be57829003601f168201915b505050505081526020016002820180546102f490610eda565b80601f016020809104026020016040519081016040528092919081815260200182805461032090610eda565b801561036d5780601f106103425761010080835404028352916020019161036d565b820191906000526020600020905b81548152906001019060200180831161035057829003601f168201915b5050505050815260200160038201805461038690610eda565b80601f01602080910402602001604051908101604052809291908181526020018280546103b290610eda565b80156103ff5780601f106103d4576101008083540402835291602001916103ff565b820191906000526020600020905b8154815290600101906020018083116103e257829003601f168201915b5050505050815260200160048201548152602001600582015481526020016006820160009054906101000a900460ff161515151581526020016006820160019054906101000a900460ff161515151581525050905090565b61045f610937565b6000808373ffffffffffffffffffffffffffffffffffffffff1673ffffffffffffffffffffffffffffffffffffffff168152602001908152602001600020604051806101000160405290816000820160009054906101000a900473ffffffffffffffffffffffffffffffffffffffff1673ffffffffffffffffffffffffffffffffffffffff1673ffffffffffffffffffffffffffffffffffffffff16815260200160018201805461050f90610eda565b80601f016020809104026020016040519081016040528092919081815260200182805461053b90610eda565b80156105885780601f1061055d57610100808354040283529160200191610588565b820191906000526020600020905b81548152906001019060200180831161056b57829003601f168201915b505050505081526020016002820180546105a190610eda565b80601f01602080910402602001604051908101604052809291908181526020018280546105cd90610eda565b801561061a5780601f106105ef5761010080835404028352916020019161061a565b820191906000526020600020905b8154815290600101906020018083116105fd57829003601f168201915b5050505050815260200160038201805461063390610eda565b80601f016020809104026020016040519081016040528092919081815260200182805461065f90610eda565b80156106ac5780601f10610681576101008083540402835291602001916106ac565b820191906000526020600020905b81548152906001019060200180831161068f57829003601f168201915b5050505050815260200160048201548152602001600582015481526020016006820160009054906101000a900460ff161515151581526020016006820160019054906101000a900460ff1615151515815250509050919050565b806000808473ffffffffffffffffffffffffffffffffffffffff1673ffffffffffffffffffffffffffffffffffffffff168152602001908152602001600020600401819055505050565b806000808473ffffffffffffffffffffffffffffffffffffffff1673ffffffffffffffffffffffffffffffffffffffff168152602001908152602001600020600501819055505050565b806000803373ffffffffffffffffffffffffffffffffffffffff1673ffffffffffffffffffffffffffffffffffffffff1681526020019081526020016000206005018190555050565b806000803373ffffffffffffffffffffffffffffffffffffffff1673ffffffffffffffffffffffffffffffffffffffff1681526020019081526020016000206002019080519060200190610838929190610996565b5050565b806000803373ffffffffffffffffffffffffffffffffffffffff1673ffffffffffffffffffffffffffffffffffffffff1681526020019081526020016000206004018190555050565b806000803373ffffffffffffffffffffffffffffffffffffffff1673ffffffffffffffffffffffffffffffffffffffff16815260200190815260200160002060010190805190602001906108da929190610996565b5050565b806000803373ffffffffffffffffffffffffffffffffffffffff1673ffffffffffffffffffffffffffffffffffffffff1681526020019081526020016000206003019080519060200190610933929190610996565b5050565b604051806101000160405280600073ffffffffffffffffffffffffffffffffffffffff16815260200160608152602001606081526020016060815260200160008152602001600081526020016000151581526020016000151581525090565b8280546109a290610eda565b90600052602060002090601f0160209004810192826109c45760008555610a0b565b82601f106109dd57805160ff1916838001178555610a0b565b82800160010185558215610a0b579182015b82811115610a0a5782518255916020019190600101906109ef565b5b509050610a189190610a1c565b5090565b5b80821115610a35576000816000905550600101610a1d565b5090565b600073ffffffffffffffffffffffffffffffffffffffff82169050919050565b6000610a6482610a39565b9050919050565b610a7481610a59565b82525050565b600081519050919050565b600082825260208201905092915050565b60005b83811015610ab4578082015181840152602081019050610a99565b83811115610ac3576000848401525b50505050565b6000601f19601f8301169050919050565b6000610ae582610a7a565b610aef8185610a85565b9350610aff818560208601610a96565b610b0881610ac9565b840191505092915050565b6000819050919050565b610b2681610b13565b82525050565b60008115159050919050565b610b4181610b2c565b82525050565b600061010083016000830151610b606000860182610a6b565b5060208301518482036020860152610b788282610ada565b91505060408301518482036040860152610b928282610ada565b91505060608301518482036060860152610bac8282610ada565b9150506080830151610bc16080860182610b1d565b5060a0830151610bd460a0860182610b1d565b5060c0830151610be760c0860182610b38565b5060e0830151610bfa60e0860182610b38565b508091505092915050565b60006020820190508181036000830152610c1f8184610b47565b905092915050565b6000604051905090565b600080fd5b600080fd5b610c4481610a59565b8114610c4f57600080fd5b50565b600081359050610c6181610c3b565b92915050565b600060208284031215610c7d57610c7c610c31565b5b6000610c8b84828501610c52565b91505092915050565b610c9d81610b13565b8114610ca857600080fd5b50565b600081359050610cba81610c94565b92915050565b60008060408385031215610cd757610cd6610c31565b5b6000610ce585828601610c52565b9250506020610cf685828601610cab565b9150509250929050565b600060208284031215610d1657610d15610c31565b5b6000610d2484828501610cab565b91505092915050565b600080fd5b600080fd5b7f4e487b7100000000000000000000000000000000000000000000000000000000600052604160045260246000fd5b610d6f82610ac9565b810181811067ffffffffffffffff82111715610d8e57610d8d610d37565b5b80604052505050565b6000610da1610c27565b9050610dad8282610d66565b919050565b600067ffffffffffffffff821115610dcd57610dcc610d37565b5b610dd682610ac9565b9050602081019050919050565b82818337600083830152505050565b6000610e05610e0084610db2565b610d97565b905082815260208101848484011115610e2157610e20610d32565b5b610e2c848285610de3565b509392505050565b600082601f830112610e4957610e48610d2d565b5b8135610e59848260208601610df2565b91505092915050565b600060208284031215610e7857610e77610c31565b5b600082013567ffffffffffffffff811115610e9657610e95610c36565b5b610ea284828501610e34565b91505092915050565b7f4e487b7100000000000000000000000000000000000000000000000000000000600052602260045260246000fd5b60006002820490506001821680610ef257607f821691505b60208210811415610f0657610f05610eab565b5b5091905056fea2646970667358221220252a2a4cb5e11abfd63b0e1e4acdf254ffb9baaa84cbf9cfcc4e0b954e41313c64736f6c634300080a0033",
  "immutableReferences": {},
  "source": "// SPDX-License-Identifier: GPL-3.0\n\npragma solidity >=0.7.0 <0.9.0;\n\n/**\n * @title Profiles\n * @dev Mutate & retrieve user profiles\n */\ncontract Profiles {\n\n    struct Profile {\n        address adr; // the user's wallet address\n        string name; // the user's name or nickname\n        string profilePictureUrl; // the url of the user's profile picture\n        string bio; // the user's bio\n        uint followerCount; // the user's follower count\n        uint followingCount; // the number of people the user follows\n        bool unfollowed;\n        bool unfollowing;\n    }\n\n    mapping(address => Profile) profiles; // a mapping of addresses to their corresponding profiles\n\n    /**\n     * @dev Set name on own profile\n     * @param name the name to be set\n     */\n    function setName(string memory name) public {\n       profiles[msg.sender].name = name;\n    }\n    \n    /**\n     * @dev Set profile picture url on own profile\n     * @param profilePictureUrl the profile picture url to be set\n     */\n    function setProfilePictureUrl(string memory profilePictureUrl) public {\n       profiles[msg.sender].profilePictureUrl = profilePictureUrl;\n    }\n    \n    /**\n     * @dev Set bio on own profile\n     * @param bio the bio to be set\n     */\n    function setBio(string memory bio) public {\n       profiles[msg.sender].bio = bio;\n    }\n\n    /**\n     * @dev Set the follower count of own profile\n     * @param followerCount the follower count to be set\n     */\n    function setFollowerCount(uint followerCount) public {\n       profiles[msg.sender].followerCount = followerCount;\n    }\n\n    /**\n     * @dev Set the following count of own profile\n     * @param followingCount the following count to be set\n     */\n    function setFollowingCount(uint followingCount) public {\n       profiles[msg.sender].followingCount = followingCount;\n    }\n\n    /**\n     * @dev Set the follower count of a profile\n     * @param adr the address of the profile\n     * @param followerCount the follower count to be set\n     */\n    function setFollowerCountForAddress(address adr, uint followerCount) public {\n       profiles[adr].followerCount = followerCount;\n    }\n\n    /**\n     * @dev Set the following count of a profile\n     * @param adr the address of the profile\n     * @param followingCount the following count to be set\n     */\n    function setFollowingCountForAddress(address adr, uint followingCount) public {\n       profiles[adr].followingCount = followingCount;\n    }\n\n    /**\n     * @dev Fetch own profile\n     * @return profile\n     */\n    function retrieveMyProfile() public view returns (Profile memory){\n        return profiles[msg.sender];\n    }\n\n    /**\n     * @dev Fetch user's profile\n     * @return profile\n     */\n    function retrieveProfile(address adr) public view returns (Profile memory){\n        return profiles[adr];\n    }\n}",
  "sourcePath": "/Users/chriscushman/smartcontract/contracts/Profiles.sol",
  "compiler": {
    "name": "solc",
    "version": "0.8.10+commit.fc410830.Emscripten.clang"
  },
  "schemaVersion": "3.4.3",
  "updatedAt": "2021-11-23T01:40:21.858Z",
  "networkType": "ethereum",
  "devdoc": {
    "details": "Mutate & retrieve user profiles",
    "kind": "dev",
    "methods": {
      "retrieveMyProfile()": {
        "details": "Fetch own profile",
        "returns": {
          "_0": "profile"
        }
      },
      "retrieveProfile(address)": {
        "details": "Fetch user's profile",
        "returns": {
          "_0": "profile"
        }
      },
      "setBio(string)": {
        "details": "Set bio on own profile",
        "params": {
          "bio": "the bio to be set"
        }
      },
      "setFollowerCount(uint256)": {
        "details": "Set the follower count of own profile",
        "params": {
          "followerCount": "the follower count to be set"
        }
      },
      "setFollowerCountForAddress(address,uint256)": {
        "details": "Set the follower count of a profile",
        "params": {
          "adr": "the address of the profile",
          "followerCount": "the follower count to be set"
        }
      },
      "setFollowingCount(uint256)": {
        "details": "Set the following count of own profile",
        "params": {
          "followingCount": "the following count to be set"
        }
      },
      "setFollowingCountForAddress(address,uint256)": {
        "details": "Set the following count of a profile",
        "params": {
          "adr": "the address of the profile",
          "followingCount": "the following count to be set"
        }
      },
      "setName(string)": {
        "details": "Set name on own profile",
        "params": {
          "name": "the name to be set"
        }
      },
      "setProfilePictureUrl(string)": {
        "details": "Set profile picture url on own profile",
        "params": {
          "profilePictureUrl": "the profile picture url to be set"
        }
      }
    },
    "title": "Profiles",
    "version": 1
  },
  "userdoc": {
    "kind": "user",
    "methods": {},
    "version": 1
  }
}