{
  "contractName": "Profiles",
  "abi": [
    {
      "inputs": [
        {
          "internalType": "string",
          "name": "name",
          "type": "string"
        }
      ],
      "name": "setName",
      "outputs": [],
      "stateMutability": "nonpayable",
      "type": "function"
    },
    {
      "inputs": [
        {
          "internalType": "string",
          "name": "profilePictureUrl",
          "type": "string"
        }
      ],
      "name": "setProfilePictureUrl",
      "outputs": [],
      "stateMutability": "nonpayable",
      "type": "function"
    },
    {
      "inputs": [
        {
          "internalType": "string",
          "name": "bio",
          "type": "string"
        }
      ],
      "name": "setBio",
      "outputs": [],
      "stateMutability": "nonpayable",
      "type": "function"
    },
    {
      "inputs": [
        {
          "internalType": "string",
          "name": "name",
          "type": "string"
        },
        {
          "internalType": "string",
          "name": "profilePictureUrl",
          "type": "string"
        },
        {
          "internalType": "string",
          "name": "bio",
          "type": "string"
        }
      ],
      "name": "setProfileInfo",
      "outputs": [],
      "stateMutability": "nonpayable",
      "type": "function"
    },
    {
      "inputs": [
        {
          "internalType": "uint256",
          "name": "followerCount",
          "type": "uint256"
        }
      ],
      "name": "setFollowerCount",
      "outputs": [],
      "stateMutability": "nonpayable",
      "type": "function"
    },
    {
      "inputs": [
        {
          "internalType": "uint256",
          "name": "followingCount",
          "type": "uint256"
        }
      ],
      "name": "setFollowingCount",
      "outputs": [],
      "stateMutability": "nonpayable",
      "type": "function"
    },
    {
      "inputs": [
        {
          "internalType": "address",
          "name": "adr",
          "type": "address"
        },
        {
          "internalType": "uint256",
          "name": "followerCount",
          "type": "uint256"
        }
      ],
      "name": "setFollowerCountForAddress",
      "outputs": [],
      "stateMutability": "nonpayable",
      "type": "function"
    },
    {
      "inputs": [
        {
          "internalType": "address",
          "name": "adr",
          "type": "address"
        },
        {
          "internalType": "uint256",
          "name": "followingCount",
          "type": "uint256"
        }
      ],
      "name": "setFollowingCountForAddress",
      "outputs": [],
      "stateMutability": "nonpayable",
      "type": "function"
    },
    {
      "inputs": [],
      "name": "getMyProfile",
      "outputs": [
        {
          "components": [
            {
              "internalType": "address",
              "name": "adr",
              "type": "address"
            },
            {
              "internalType": "string",
              "name": "name",
              "type": "string"
            },
            {
              "internalType": "string",
              "name": "profilePictureUrl",
              "type": "string"
            },
            {
              "internalType": "string",
              "name": "bio",
              "type": "string"
            },
            {
              "internalType": "uint256",
              "name": "followerCount",
              "type": "uint256"
            },
            {
              "internalType": "uint256",
              "name": "followingCount",
              "type": "uint256"
            },
            {
              "internalType": "bool",
              "name": "unfollowed",
              "type": "bool"
            },
            {
              "internalType": "bool",
              "name": "unfollowing",
              "type": "bool"
            }
          ],
          "internalType": "struct Profiles.Profile",
          "name": "",
          "type": "tuple"
        }
      ],
      "stateMutability": "view",
      "type": "function"
    },
    {
      "inputs": [
        {
          "internalType": "address",
          "name": "adr",
          "type": "address"
        }
      ],
      "name": "getProfile",
      "outputs": [
        {
          "components": [
            {
              "internalType": "address",
              "name": "adr",
              "type": "address"
            },
            {
              "internalType": "string",
              "name": "name",
              "type": "string"
            },
            {
              "internalType": "string",
              "name": "profilePictureUrl",
              "type": "string"
            },
            {
              "internalType": "string",
              "name": "bio",
              "type": "string"
            },
            {
              "internalType": "uint256",
              "name": "followerCount",
              "type": "uint256"
            },
            {
              "internalType": "uint256",
              "name": "followingCount",
              "type": "uint256"
            },
            {
              "internalType": "bool",
              "name": "unfollowed",
              "type": "bool"
            },
            {
              "internalType": "bool",
              "name": "unfollowing",
              "type": "bool"
            }
          ],
          "internalType": "struct Profiles.Profile",
          "name": "",
          "type": "tuple"
        }
      ],
      "stateMutability": "view",
      "type": "function"
    }
  ],
  "bytecode": "0x608060405234801561001057600080fd5b50611117806100206000396000f3fe608060405234801561001057600080fd5b506004361061009e5760003560e01c80638e11d6ff116100665780638e11d6ff14610145578063906eb1241461016157806391fc36ee1461017d578063c47f002714610199578063fb7e06d8146101b55761009e565b80630f53a470146100a357806321527e50146100d35780634dd9c968146100f15780635ce460a51461010d5780637cd38b0614610129575b600080fd5b6100bd60048036038101906100b89190610bd9565b6101d1565b6040516100ca9190610da0565b60405180910390f35b6100db610480565b6040516100e89190610da0565b60405180910390f35b61010b60048036038101906101069190610dee565b61072d565b005b61012760048036038101906101229190610dee565b610777565b005b610143600480360381019061013e9190610e2e565b6107c1565b005b61015f600480360381019061015a9190610f90565b61080a565b005b61017b60048036038101906101769190611037565b610911565b005b61019760048036038101906101929190610e2e565b61096a565b005b6101b360048036038101906101ae9190611037565b6109b3565b005b6101cf60048036038101906101ca9190611037565b610a0c565b005b6101d9610a65565b6000808373ffffffffffffffffffffffffffffffffffffffff1673ffffffffffffffffffffffffffffffffffffffff168152602001908152602001600020604051806101000160405290816000820160009054906101000a900473ffffffffffffffffffffffffffffffffffffffff1673ffffffffffffffffffffffffffffffffffffffff1673ffffffffffffffffffffffffffffffffffffffff168152602001600182018054610289906110af565b80601f01602080910402602001604051908101604052809291908181526020018280546102b5906110af565b80156103025780601f106102d757610100808354040283529160200191610302565b820191906000526020600020905b8154815290600101906020018083116102e557829003601f168201915b5050505050815260200160028201805461031b906110af565b80601f0160208091040260200160405190810160405280929190818152602001828054610347906110af565b80156103945780601f1061036957610100808354040283529160200191610394565b820191906000526020600020905b81548152906001019060200180831161037757829003601f168201915b505050505081526020016003820180546103ad906110af565b80601f01602080910402602001604051908101604052809291908181526020018280546103d9906110af565b80156104265780601f106103fb57610100808354040283529160200191610426565b820191906000526020600020905b81548152906001019060200180831161040957829003601f168201915b5050505050815260200160048201548152602001600582015481526020016006820160009054906101000a900460ff161515151581526020016006820160019054906101000a900460ff1615151515815250509050919050565b610488610a65565b6000803373ffffffffffffffffffffffffffffffffffffffff1673ffffffffffffffffffffffffffffffffffffffff168152602001908152602001600020604051806101000160405290816000820160009054906101000a900473ffffffffffffffffffffffffffffffffffffffff1673ffffffffffffffffffffffffffffffffffffffff1673ffffffffffffffffffffffffffffffffffffffff168152602001600182018054610538906110af565b80601f0160208091040260200160405190810160405280929190818152602001828054610564906110af565b80156105b15780601f10610586576101008083540402835291602001916105b1565b820191906000526020600020905b81548152906001019060200180831161059457829003601f168201915b505050505081526020016002820180546105ca906110af565b80601f01602080910402602001604051908101604052809291908181526020018280546105f6906110af565b80156106435780601f1061061857610100808354040283529160200191610643565b820191906000526020600020905b81548152906001019060200180831161062657829003601f168201915b5050505050815260200160038201805461065c906110af565b80601f0160208091040260200160405190810160405280929190818152602001828054610688906110af565b80156106d55780601f106106aa576101008083540402835291602001916106d5565b820191906000526020600020905b8154815290600101906020018083116106b857829003601f168201915b5050505050815260200160048201548152602001600582015481526020016006820160009054906101000a900460ff161515151581526020016006820160019054906101000a900460ff161515151581525050905090565b806000808473ffffffffffffffffffffffffffffffffffffffff1673ffffffffffffffffffffffffffffffffffffffff168152602001908152602001600020600401819055505050565b806000808473ffffffffffffffffffffffffffffffffffffffff1673ffffffffffffffffffffffffffffffffffffffff168152602001908152602001600020600501819055505050565b806000803373ffffffffffffffffffffffffffffffffffffffff1673ffffffffffffffffffffffffffffffffffffffff1681526020019081526020016000206005018190555050565b826000803373ffffffffffffffffffffffffffffffffffffffff1673ffffffffffffffffffffffffffffffffffffffff168152602001908152602001600020600101908051906020019061085f929190610ac4565b50816000803373ffffffffffffffffffffffffffffffffffffffff1673ffffffffffffffffffffffffffffffffffffffff16815260200190815260200160002060020190805190602001906108b5929190610ac4565b50806000803373ffffffffffffffffffffffffffffffffffffffff1673ffffffffffffffffffffffffffffffffffffffff168152602001908152602001600020600301908051906020019061090b929190610ac4565b50505050565b806000803373ffffffffffffffffffffffffffffffffffffffff1673ffffffffffffffffffffffffffffffffffffffff1681526020019081526020016000206002019080519060200190610966929190610ac4565b5050565b806000803373ffffffffffffffffffffffffffffffffffffffff1673ffffffffffffffffffffffffffffffffffffffff1681526020019081526020016000206004018190555050565b806000803373ffffffffffffffffffffffffffffffffffffffff1673ffffffffffffffffffffffffffffffffffffffff1681526020019081526020016000206001019080519060200190610a08929190610ac4565b5050565b806000803373ffffffffffffffffffffffffffffffffffffffff1673ffffffffffffffffffffffffffffffffffffffff1681526020019081526020016000206003019080519060200190610a61929190610ac4565b5050565b604051806101000160405280600073ffffffffffffffffffffffffffffffffffffffff16815260200160608152602001606081526020016060815260200160008152602001600081526020016000151581526020016000151581525090565b828054610ad0906110af565b90600052602060002090601f016020900481019282610af25760008555610b39565b82601f10610b0b57805160ff1916838001178555610b39565b82800160010185558215610b39579182015b82811115610b38578251825591602001919060010190610b1d565b5b509050610b469190610b4a565b5090565b5b80821115610b63576000816000905550600101610b4b565b5090565b6000604051905090565b600080fd5b600080fd5b600073ffffffffffffffffffffffffffffffffffffffff82169050919050565b6000610ba682610b7b565b9050919050565b610bb681610b9b565b8114610bc157600080fd5b50565b600081359050610bd381610bad565b92915050565b600060208284031215610bef57610bee610b71565b5b6000610bfd84828501610bc4565b91505092915050565b610c0f81610b9b565b82525050565b600081519050919050565b600082825260208201905092915050565b60005b83811015610c4f578082015181840152602081019050610c34565b83811115610c5e576000848401525b50505050565b6000601f19601f8301169050919050565b6000610c8082610c15565b610c8a8185610c20565b9350610c9a818560208601610c31565b610ca381610c64565b840191505092915050565b6000819050919050565b610cc181610cae565b82525050565b60008115159050919050565b610cdc81610cc7565b82525050565b600061010083016000830151610cfb6000860182610c06565b5060208301518482036020860152610d138282610c75565b91505060408301518482036040860152610d2d8282610c75565b91505060608301518482036060860152610d478282610c75565b9150506080830151610d5c6080860182610cb8565b5060a0830151610d6f60a0860182610cb8565b5060c0830151610d8260c0860182610cd3565b5060e0830151610d9560e0860182610cd3565b508091505092915050565b60006020820190508181036000830152610dba8184610ce2565b905092915050565b610dcb81610cae565b8114610dd657600080fd5b50565b600081359050610de881610dc2565b92915050565b60008060408385031215610e0557610e04610b71565b5b6000610e1385828601610bc4565b9250506020610e2485828601610dd9565b9150509250929050565b600060208284031215610e4457610e43610b71565b5b6000610e5284828501610dd9565b91505092915050565b600080fd5b600080fd5b7f4e487b7100000000000000000000000000000000000000000000000000000000600052604160045260246000fd5b610e9d82610c64565b810181811067ffffffffffffffff82111715610ebc57610ebb610e65565b5b80604052505050565b6000610ecf610b67565b9050610edb8282610e94565b919050565b600067ffffffffffffffff821115610efb57610efa610e65565b5b610f0482610c64565b9050602081019050919050565b82818337600083830152505050565b6000610f33610f2e84610ee0565b610ec5565b905082815260208101848484011115610f4f57610f4e610e60565b5b610f5a848285610f11565b509392505050565b600082601f830112610f7757610f76610e5b565b5b8135610f87848260208601610f20565b91505092915050565b600080600060608486031215610fa957610fa8610b71565b5b600084013567ffffffffffffffff811115610fc757610fc6610b76565b5b610fd386828701610f62565b935050602084013567ffffffffffffffff811115610ff457610ff3610b76565b5b61100086828701610f62565b925050604084013567ffffffffffffffff81111561102157611020610b76565b5b61102d86828701610f62565b9150509250925092565b60006020828403121561104d5761104c610b71565b5b600082013567ffffffffffffffff81111561106b5761106a610b76565b5b61107784828501610f62565b91505092915050565b7f4e487b7100000000000000000000000000000000000000000000000000000000600052602260045260246000fd5b600060028204905060018216806110c757607f821691505b602082108114156110db576110da611080565b5b5091905056fea26469706673582212206ef241f2245b17286b8b8f60fb5a2a13ce29d2cd8a932bc0390ec62317bfa02464736f6c634300080a0033",
  "immutableReferences": {},
  "source": "// SPDX-License-Identifier: GPL-3.0\n\npragma solidity >=0.7.0 <0.9.0;\n\n/**\n * @title Profiles\n * @dev Mutate & retrieve user profiles\n */\ncontract Profiles {\n\n    struct Profile {\n        address adr; // the user's wallet address\n        string name; // the user's name or nickname\n        string profilePictureUrl; // the url of the user's profile picture\n        string bio; // the user's bio\n        uint followerCount; // the user's follower count\n        uint followingCount; // the number of people the user follows\n        bool unfollowed;\n        bool unfollowing;\n    }\n\n    mapping(address => Profile) profiles; // a mapping of addresses to their corresponding profiles\n\n    /**\n     * @dev Set name on own profile\n     * @param name the name to be set\n     */\n    function setName(string memory name) public {\n       profiles[msg.sender].name = name;\n    }\n    \n    /**\n     * @dev Set profile picture url on own profile\n     * @param profilePictureUrl the profile picture url to be set\n     */\n    function setProfilePictureUrl(string memory profilePictureUrl) public {\n       profiles[msg.sender].profilePictureUrl = profilePictureUrl;\n    }\n    \n    /**\n     * @dev Set bio on own profile\n     * @param bio the bio to be set\n     */\n    function setBio(string memory bio) public {\n       profiles[msg.sender].bio = bio;\n    }\n\n    /**\n     * @dev Set name, profile picture url, & bio on profile\n     * @param name the name to be set\n     * @param profilePictureUrl the profile picture url to be set\n     * @param bio the bio to be set\n     */\n    function setProfileInfo(string memory name, string memory profilePictureUrl, string memory bio) public {\n       profiles[msg.sender].name = name;\n       profiles[msg.sender].profilePictureUrl = profilePictureUrl;\n       profiles[msg.sender].bio = bio;\n    }\n\n    /**\n     * @dev Set the follower count of own profile\n     * @param followerCount the follower count to be set\n     */\n    function setFollowerCount(uint followerCount) public {\n       profiles[msg.sender].followerCount = followerCount;\n    }\n\n    /**\n     * @dev Set the following count of own profile\n     * @param followingCount the following count to be set\n     */\n    function setFollowingCount(uint followingCount) public {\n       profiles[msg.sender].followingCount = followingCount;\n    }\n\n    /**\n     * @dev Set the follower count of a profile\n     * @param adr the address of the profile\n     * @param followerCount the follower count to be set\n     */\n    function setFollowerCountForAddress(address adr, uint followerCount) public {\n       profiles[adr].followerCount = followerCount;\n    }\n\n    /**\n     * @dev Set the following count of a profile\n     * @param adr the address of the profile\n     * @param followingCount the following count to be set\n     */\n    function setFollowingCountForAddress(address adr, uint followingCount) public {\n       profiles[adr].followingCount = followingCount;\n    }\n\n    /**\n     * @dev Fetch own profile\n     * @return profile\n     */\n    function getMyProfile() public view returns (Profile memory){\n        return profiles[msg.sender];\n    }\n\n    /**\n     * @dev Fetch user's profile\n     * @param adr the address of the profile\n     * @return profile\n     */\n    function getProfile(address adr) public view returns (Profile memory){\n        return profiles[adr];\n    }\n}",
  "sourcePath": "/Users/chriscushman/smartcontract/contracts/Profiles.sol",
  "compiler": {
    "name": "solc",
    "version": "0.8.10+commit.fc410830.Emscripten.clang"
  },
  "schemaVersion": "3.4.3",
  "updatedAt": "2021-11-29T13:27:10.052Z",
  "devdoc": {
    "details": "Mutate & retrieve user profiles",
    "kind": "dev",
    "methods": {
      "getMyProfile()": {
        "details": "Fetch own profile",
        "returns": {
          "_0": "profile"
        }
      },
      "getProfile(address)": {
        "details": "Fetch user's profile",
        "params": {
          "adr": "the address of the profile"
        },
        "returns": {
          "_0": "profile"
        }
      },
      "setBio(string)": {
        "details": "Set bio on own profile",
        "params": {
          "bio": "the bio to be set"
        }
      },
      "setFollowerCount(uint256)": {
        "details": "Set the follower count of own profile",
        "params": {
          "followerCount": "the follower count to be set"
        }
      },
      "setFollowerCountForAddress(address,uint256)": {
        "details": "Set the follower count of a profile",
        "params": {
          "adr": "the address of the profile",
          "followerCount": "the follower count to be set"
        }
      },
      "setFollowingCount(uint256)": {
        "details": "Set the following count of own profile",
        "params": {
          "followingCount": "the following count to be set"
        }
      },
      "setFollowingCountForAddress(address,uint256)": {
        "details": "Set the following count of a profile",
        "params": {
          "adr": "the address of the profile",
          "followingCount": "the following count to be set"
        }
      },
      "setName(string)": {
        "details": "Set name on own profile",
        "params": {
          "name": "the name to be set"
        }
      },
      "setProfileInfo(string,string,string)": {
        "details": "Set name, profile picture url, & bio on profile",
        "params": {
          "bio": "the bio to be set",
          "name": "the name to be set",
          "profilePictureUrl": "the profile picture url to be set"
        }
      },
      "setProfilePictureUrl(string)": {
        "details": "Set profile picture url on own profile",
        "params": {
          "profilePictureUrl": "the profile picture url to be set"
        }
      }
    },
    "title": "Profiles",
    "version": 1
  },
  "userdoc": {
    "kind": "user",
    "methods": {},
    "version": 1
  }
}