{
  "contractName": "Replies",
  "abi": [
    {
      "inputs": [
        {
          "internalType": "string",
          "name": "title",
          "type": "string"
        },
        {
          "internalType": "string",
          "name": "description",
          "type": "string"
        }
      ],
      "name": "addPost",
      "outputs": [],
      "stateMutability": "nonpayable",
      "type": "function"
    },
    {
      "inputs": [
        {
          "internalType": "uint256",
          "name": "limit",
          "type": "uint256"
        },
        {
          "internalType": "uint256",
          "name": "offset",
          "type": "uint256"
        }
      ],
      "name": "getMyPosts",
      "outputs": [
        {
          "components": [
            {
              "internalType": "address",
              "name": "author",
              "type": "address"
            },
            {
              "internalType": "uint256",
              "name": "postId",
              "type": "uint256"
            },
            {
              "internalType": "string",
              "name": "title",
              "type": "string"
            },
            {
              "internalType": "string",
              "name": "description",
              "type": "string"
            },
            {
              "internalType": "string",
              "name": "externalLink",
              "type": "string"
            },
            {
              "internalType": "uint256",
              "name": "likeCount",
              "type": "uint256"
            },
            {
              "internalType": "uint256",
              "name": "replyCount",
              "type": "uint256"
            },
            {
              "internalType": "uint256",
              "name": "shareCount",
              "type": "uint256"
            },
            {
              "internalType": "bool",
              "name": "isReply",
              "type": "bool"
            }
          ],
          "internalType": "struct UserPosts.Post[]",
          "name": "",
          "type": "tuple[]"
        }
      ],
      "stateMutability": "view",
      "type": "function",
      "constant": true
    },
    {
      "inputs": [
        {
          "internalType": "address",
          "name": "adr",
          "type": "address"
        },
        {
          "internalType": "uint256",
          "name": "limit",
          "type": "uint256"
        },
        {
          "internalType": "uint256",
          "name": "offset",
          "type": "uint256"
        }
      ],
      "name": "getUserPosts",
      "outputs": [
        {
          "components": [
            {
              "internalType": "address",
              "name": "author",
              "type": "address"
            },
            {
              "internalType": "uint256",
              "name": "postId",
              "type": "uint256"
            },
            {
              "internalType": "string",
              "name": "title",
              "type": "string"
            },
            {
              "internalType": "string",
              "name": "description",
              "type": "string"
            },
            {
              "internalType": "string",
              "name": "externalLink",
              "type": "string"
            },
            {
              "internalType": "uint256",
              "name": "likeCount",
              "type": "uint256"
            },
            {
              "internalType": "uint256",
              "name": "replyCount",
              "type": "uint256"
            },
            {
              "internalType": "uint256",
              "name": "shareCount",
              "type": "uint256"
            },
            {
              "internalType": "bool",
              "name": "isReply",
              "type": "bool"
            }
          ],
          "internalType": "struct UserPosts.Post[]",
          "name": "",
          "type": "tuple[]"
        }
      ],
      "stateMutability": "view",
      "type": "function",
      "constant": true
    },
    {
      "inputs": [
        {
          "internalType": "uint256",
          "name": "postId",
          "type": "uint256"
        },
        {
          "internalType": "address",
          "name": "author",
          "type": "address"
        },
        {
          "internalType": "string",
          "name": "description",
          "type": "string"
        }
      ],
      "name": "replyToPost",
      "outputs": [],
      "stateMutability": "nonpayable",
      "type": "function"
    },
    {
      "inputs": [
        {
          "internalType": "uint256",
          "name": "replyId",
          "type": "uint256"
        },
        {
          "internalType": "address",
          "name": "author",
          "type": "address"
        },
        {
          "internalType": "string",
          "name": "description",
          "type": "string"
        }
      ],
      "name": "replyToReply",
      "outputs": [],
      "stateMutability": "nonpayable",
      "type": "function"
    },
    {
      "inputs": [
        {
          "internalType": "uint256",
          "name": "postId",
          "type": "uint256"
        },
        {
          "internalType": "uint256",
          "name": "limit",
          "type": "uint256"
        },
        {
          "internalType": "uint256",
          "name": "offset",
          "type": "uint256"
        }
      ],
      "name": "getRepliesToPost",
      "outputs": [
        {
          "components": [
            {
              "internalType": "address",
              "name": "author",
              "type": "address"
            },
            {
              "internalType": "uint256",
              "name": "postId",
              "type": "uint256"
            },
            {
              "internalType": "string",
              "name": "title",
              "type": "string"
            },
            {
              "internalType": "string",
              "name": "description",
              "type": "string"
            },
            {
              "internalType": "string",
              "name": "externalLink",
              "type": "string"
            },
            {
              "internalType": "uint256",
              "name": "likeCount",
              "type": "uint256"
            },
            {
              "internalType": "uint256",
              "name": "replyCount",
              "type": "uint256"
            },
            {
              "internalType": "uint256",
              "name": "shareCount",
              "type": "uint256"
            },
            {
              "internalType": "bool",
              "name": "isReply",
              "type": "bool"
            }
          ],
          "internalType": "struct UserPosts.Post[]",
          "name": "",
          "type": "tuple[]"
        }
      ],
      "stateMutability": "view",
      "type": "function",
      "constant": true
    },
    {
      "inputs": [
        {
          "internalType": "address",
          "name": "adr",
          "type": "address"
        },
        {
          "internalType": "uint256",
          "name": "limit",
          "type": "uint256"
        },
        {
          "internalType": "uint256",
          "name": "offset",
          "type": "uint256"
        }
      ],
      "name": "getRepliesFromUser",
      "outputs": [
        {
          "components": [
            {
              "internalType": "address",
              "name": "author",
              "type": "address"
            },
            {
              "internalType": "uint256",
              "name": "postId",
              "type": "uint256"
            },
            {
              "internalType": "string",
              "name": "title",
              "type": "string"
            },
            {
              "internalType": "string",
              "name": "description",
              "type": "string"
            },
            {
              "internalType": "string",
              "name": "externalLink",
              "type": "string"
            },
            {
              "internalType": "uint256",
              "name": "likeCount",
              "type": "uint256"
            },
            {
              "internalType": "uint256",
              "name": "replyCount",
              "type": "uint256"
            },
            {
              "internalType": "uint256",
              "name": "shareCount",
              "type": "uint256"
            },
            {
              "internalType": "bool",
              "name": "isReply",
              "type": "bool"
            }
          ],
          "internalType": "struct UserPosts.Post[]",
          "name": "",
          "type": "tuple[]"
        }
      ],
      "stateMutability": "view",
      "type": "function",
      "constant": true
    }
  ],
  "bytecode": "0x608060405234801561001057600080fd5b5061211e806100206000396000f3fe608060405234801561001057600080fd5b506004361061007d5760003560e01c8063a8c91fde1161005b578063a8c91fde146100ea578063b02c65161461011a578063c3fd823614610136578063d05b4b60146101665761007d565b80633a24cb7b146100825780634773a699146100b257806357d2bcb8146100ce575b600080fd5b61009c600480360381019061009791906119cb565b610196565b6040516100a99190611c85565b60405180910390f35b6100cc60048036038101906100c79190611ddc565b610591565b005b6100e860048036038101906100e39190611ddc565b6109e7565b005b61010460048036038101906100ff9190611e4b565b610e3d565b6040516101119190611c85565b60405180910390f35b610134600480360381019061012f9190611e9e565b6111e1565b005b610150600480360381019061014b9190611f16565b61140b565b60405161015d9190611c85565b60405180910390f35b610180600480360381019061017b91906119cb565b611420565b60405161018d9190611c85565b60405180910390f35b606060008367ffffffffffffffff8111156101b4576101b3611cb1565b5b6040519080825280602002602001820160405280156101ed57816020015b6101da61181c565b8152602001906001900390816101d25790505b5090506000600160008773ffffffffffffffffffffffffffffffffffffffff1673ffffffffffffffffffffffffffffffffffffffff168152602001908152602001600020905060008060008873ffffffffffffffffffffffffffffffffffffffff1673ffffffffffffffffffffffffffffffffffffffff168152602001908152602001600020905060008180549050905060005b878110801561029a57508187826102989190611f85565b105b1561058257600083886001846102b09190611f85565b856102bb9190611fdb565b6102c59190611fdb565b815481106102d6576102d561200f565b5b90600052602060002001549050846000828152602001908152602001600020604051806101200160405290816000820160009054906101000a900473ffffffffffffffffffffffffffffffffffffffff1673ffffffffffffffffffffffffffffffffffffffff1673ffffffffffffffffffffffffffffffffffffffff168152602001600182015481526020016002820180546103719061206d565b80601f016020809104026020016040519081016040528092919081815260200182805461039d9061206d565b80156103ea5780601f106103bf576101008083540402835291602001916103ea565b820191906000526020600020905b8154815290600101906020018083116103cd57829003601f168201915b505050505081526020016003820180546104039061206d565b80601f016020809104026020016040519081016040528092919081815260200182805461042f9061206d565b801561047c5780601f106104515761010080835404028352916020019161047c565b820191906000526020600020905b81548152906001019060200180831161045f57829003601f168201915b505050505081526020016004820180546104959061206d565b80601f01602080910402602001604051908101604052809291908181526020018280546104c19061206d565b801561050e5780601f106104e35761010080835404028352916020019161050e565b820191906000526020600020905b8154815290600101906020018083116104f157829003601f168201915b505050505081526020016005820154815260200160068201548152602001600782015481526020016008820160009054906101000a900460ff1615151515815250508683815181106105635761056261200f565b5b602002602001018190525050808061057a9061209f565b915050610281565b50839450505050509392505050565b6000600160008473ffffffffffffffffffffffffffffffffffffffff1673ffffffffffffffffffffffffffffffffffffffff168152602001908152602001600020600085815260200190815260200160002090506000816001015414156105f857506109e2565b60006001436106079190611fdb565b4060001c905060006040518061012001604052803373ffffffffffffffffffffffffffffffffffffffff16815260200183815260200160405180602001604052806000815250815260200185815260200160405180602001604052806000815250815260200160008152602001600081526020016000815260200160011515815250905080600360003373ffffffffffffffffffffffffffffffffffffffff1673ffffffffffffffffffffffffffffffffffffffff168152602001908152602001600020600084815260200190815260200160002060008201518160000160006101000a81548173ffffffffffffffffffffffffffffffffffffffff021916908373ffffffffffffffffffffffffffffffffffffffff160217905550602082015181600101556040820151816002019080519060200190610749929190611880565b506060820151816003019080519060200190610766929190611880565b506080820151816004019080519060200190610783929190611880565b5060a0820151816005015560c0820151816006015560e082015181600701556101008201518160080160006101000a81548160ff021916908315150217905550905050600260003373ffffffffffffffffffffffffffffffffffffffff1673ffffffffffffffffffffffffffffffffffffffff168152602001908152602001600020829080600181540180825580915050600190039060005260206000200160009091909190915055600460008781526020019081526020016000208290806001815401808255809150506001900390600052602060002001600090919091909150558060056000888152602001908152602001600020600084815260200190815260200160002060008201518160000160006101000a81548173ffffffffffffffffffffffffffffffffffffffff021916908373ffffffffffffffffffffffffffffffffffffffff1602179055506020820151816001015560408201518160020190805190602001906108f8929190611880565b506060820151816003019080519060200190610915929190611880565b506080820151816004019080519060200190610932929190611880565b5060a0820151816005015560c0820151816006015560e082015181600701556101008201518160080160006101000a81548160ff021916908315150217905550905050600160008673ffffffffffffffffffffffffffffffffffffffff1673ffffffffffffffffffffffffffffffffffffffff168152602001908152602001600020600087815260200190815260200160002060060160008154809291906109d99061209f565b91905055505050505b505050565b6000600360008473ffffffffffffffffffffffffffffffffffffffff1673ffffffffffffffffffffffffffffffffffffffff16815260200190815260200160002060008581526020019081526020016000209050600081600101541415610a4e5750610e38565b6000600143610a5d9190611fdb565b4060001c905060006040518061012001604052803373ffffffffffffffffffffffffffffffffffffffff16815260200183815260200160405180602001604052806000815250815260200185815260200160405180602001604052806000815250815260200160008152602001600081526020016000815260200160011515815250905080600360003373ffffffffffffffffffffffffffffffffffffffff1673ffffffffffffffffffffffffffffffffffffffff168152602001908152602001600020600084815260200190815260200160002060008201518160000160006101000a81548173ffffffffffffffffffffffffffffffffffffffff021916908373ffffffffffffffffffffffffffffffffffffffff160217905550602082015181600101556040820151816002019080519060200190610b9f929190611880565b506060820151816003019080519060200190610bbc929190611880565b506080820151816004019080519060200190610bd9929190611880565b5060a0820151816005015560c0820151816006015560e082015181600701556101008201518160080160006101000a81548160ff021916908315150217905550905050600260003373ffffffffffffffffffffffffffffffffffffffff1673ffffffffffffffffffffffffffffffffffffffff168152602001908152602001600020829080600181540180825580915050600190039060005260206000200160009091909190915055600460008781526020019081526020016000208290806001815401808255809150506001900390600052602060002001600090919091909150558060056000888152602001908152602001600020600084815260200190815260200160002060008201518160000160006101000a81548173ffffffffffffffffffffffffffffffffffffffff021916908373ffffffffffffffffffffffffffffffffffffffff160217905550602082015181600101556040820151816002019080519060200190610d4e929190611880565b506060820151816003019080519060200190610d6b929190611880565b506080820151816004019080519060200190610d88929190611880565b5060a0820151816005015560c0820151816006015560e082015181600701556101008201518160080160006101000a81548160ff021916908315150217905550905050600360008673ffffffffffffffffffffffffffffffffffffffff1673ffffffffffffffffffffffffffffffffffffffff16815260200190815260200160002060008781526020019081526020016000206006016000815480929190610e2f9061209f565b91905055505050505b505050565b606060008367ffffffffffffffff811115610e5b57610e5a611cb1565b5b604051908082528060200260200182016040528015610e9457816020015b610e8161181c565b815260200190600190039081610e795790505b5090506000600560008781526020019081526020016000209050600060046000888152602001908152602001600020905060008180549050905060005b8781108015610eea5750818782610ee89190611f85565b105b156111d25760008388600184610f009190611f85565b85610f0b9190611fdb565b610f159190611fdb565b81548110610f2657610f2561200f565b5b90600052602060002001549050846000828152602001908152602001600020604051806101200160405290816000820160009054906101000a900473ffffffffffffffffffffffffffffffffffffffff1673ffffffffffffffffffffffffffffffffffffffff1673ffffffffffffffffffffffffffffffffffffffff16815260200160018201548152602001600282018054610fc19061206d565b80601f0160208091040260200160405190810160405280929190818152602001828054610fed9061206d565b801561103a5780601f1061100f5761010080835404028352916020019161103a565b820191906000526020600020905b81548152906001019060200180831161101d57829003601f168201915b505050505081526020016003820180546110539061206d565b80601f016020809104026020016040519081016040528092919081815260200182805461107f9061206d565b80156110cc5780601f106110a1576101008083540402835291602001916110cc565b820191906000526020600020905b8154815290600101906020018083116110af57829003601f168201915b505050505081526020016004820180546110e59061206d565b80601f01602080910402602001604051908101604052809291908181526020018280546111119061206d565b801561115e5780601f106111335761010080835404028352916020019161115e565b820191906000526020600020905b81548152906001019060200180831161114157829003601f168201915b505050505081526020016005820154815260200160068201548152602001600782015481526020016008820160009054906101000a900460ff1615151515815250508683815181106111b3576111b261200f565b5b60200260200101819052505080806111ca9061209f565b915050610ed1565b50839450505050509392505050565b60006001436111f09190611fdb565b4060001c905060006040518061012001604052803373ffffffffffffffffffffffffffffffffffffffff16815260200183815260200185815260200184815260200160405180602001604052806000815250815260200160008152602001600081526020016000815260200160001515815250905080600160003373ffffffffffffffffffffffffffffffffffffffff1673ffffffffffffffffffffffffffffffffffffffff168152602001908152602001600020600084815260200190815260200160002060008201518160000160006101000a81548173ffffffffffffffffffffffffffffffffffffffff021916908373ffffffffffffffffffffffffffffffffffffffff160217905550602082015181600101556040820151816002019080519060200190611323929190611880565b506060820151816003019080519060200190611340929190611880565b50608082015181600401908051906020019061135d929190611880565b5060a0820151816005015560c0820151816006015560e082015181600701556101008201518160080160006101000a81548160ff0219169083151502179055509050506000803373ffffffffffffffffffffffffffffffffffffffff1673ffffffffffffffffffffffffffffffffffffffff16815260200190815260200160002082908060018154018082558091505060019003906000526020600020016000909190919091505550505050565b6060611418338484610196565b905092915050565b606060008367ffffffffffffffff81111561143e5761143d611cb1565b5b60405190808252806020026020018201604052801561147757816020015b61146461181c565b81526020019060019003908161145c5790505b5090506000600360008773ffffffffffffffffffffffffffffffffffffffff1673ffffffffffffffffffffffffffffffffffffffff16815260200190815260200160002090506000600260008873ffffffffffffffffffffffffffffffffffffffff1673ffffffffffffffffffffffffffffffffffffffff168152602001908152602001600020905060008180549050905060005b878110801561152557508187826115239190611f85565b105b1561180d576000838860018461153b9190611f85565b856115469190611fdb565b6115509190611fdb565b815481106115615761156061200f565b5b90600052602060002001549050846000828152602001908152602001600020604051806101200160405290816000820160009054906101000a900473ffffffffffffffffffffffffffffffffffffffff1673ffffffffffffffffffffffffffffffffffffffff1673ffffffffffffffffffffffffffffffffffffffff168152602001600182015481526020016002820180546115fc9061206d565b80601f01602080910402602001604051908101604052809291908181526020018280546116289061206d565b80156116755780601f1061164a57610100808354040283529160200191611675565b820191906000526020600020905b81548152906001019060200180831161165857829003601f168201915b5050505050815260200160038201805461168e9061206d565b80601f01602080910402602001604051908101604052809291908181526020018280546116ba9061206d565b80156117075780601f106116dc57610100808354040283529160200191611707565b820191906000526020600020905b8154815290600101906020018083116116ea57829003601f168201915b505050505081526020016004820180546117209061206d565b80601f016020809104026020016040519081016040528092919081815260200182805461174c9061206d565b80156117995780601f1061176e57610100808354040283529160200191611799565b820191906000526020600020905b81548152906001019060200180831161177c57829003601f168201915b505050505081526020016005820154815260200160068201548152602001600782015481526020016008820160009054906101000a900460ff1615151515815250508683815181106117ee576117ed61200f565b5b60200260200101819052505080806118059061209f565b91505061150c565b50839450505050509392505050565b604051806101200160405280600073ffffffffffffffffffffffffffffffffffffffff168152602001600081526020016060815260200160608152602001606081526020016000815260200160008152602001600081526020016000151581525090565b82805461188c9061206d565b90600052602060002090601f0160209004810192826118ae57600085556118f5565b82601f106118c757805160ff19168380011785556118f5565b828001600101855582156118f5579182015b828111156118f45782518255916020019190600101906118d9565b5b5090506119029190611906565b5090565b5b8082111561191f576000816000905550600101611907565b5090565b6000604051905090565b600080fd5b600080fd5b600073ffffffffffffffffffffffffffffffffffffffff82169050919050565b600061196282611937565b9050919050565b61197281611957565b811461197d57600080fd5b50565b60008135905061198f81611969565b92915050565b6000819050919050565b6119a881611995565b81146119b357600080fd5b50565b6000813590506119c58161199f565b92915050565b6000806000606084860312156119e4576119e361192d565b5b60006119f286828701611980565b9350506020611a03868287016119b6565b9250506040611a14868287016119b6565b9150509250925092565b600081519050919050565b600082825260208201905092915050565b6000819050602082019050919050565b611a5381611957565b82525050565b611a6281611995565b82525050565b600081519050919050565b600082825260208201905092915050565b60005b83811015611aa2578082015181840152602081019050611a87565b83811115611ab1576000848401525b50505050565b6000601f19601f8301169050919050565b6000611ad382611a68565b611add8185611a73565b9350611aed818560208601611a84565b611af681611ab7565b840191505092915050565b60008115159050919050565b611b1681611b01565b82525050565b600061012083016000830151611b356000860182611a4a565b506020830151611b486020860182611a59565b5060408301518482036040860152611b608282611ac8565b91505060608301518482036060860152611b7a8282611ac8565b91505060808301518482036080860152611b948282611ac8565b91505060a0830151611ba960a0860182611a59565b5060c0830151611bbc60c0860182611a59565b5060e0830151611bcf60e0860182611a59565b50610100830151611be4610100860182611b0d565b508091505092915050565b6000611bfb8383611b1c565b905092915050565b6000602082019050919050565b6000611c1b82611a1e565b611c258185611a29565b935083602082028501611c3785611a3a565b8060005b85811015611c735784840389528151611c548582611bef565b9450611c5f83611c03565b925060208a01995050600181019050611c3b565b50829750879550505050505092915050565b60006020820190508181036000830152611c9f8184611c10565b905092915050565b600080fd5b600080fd5b7f4e487b7100000000000000000000000000000000000000000000000000000000600052604160045260246000fd5b611ce982611ab7565b810181811067ffffffffffffffff82111715611d0857611d07611cb1565b5b80604052505050565b6000611d1b611923565b9050611d278282611ce0565b919050565b600067ffffffffffffffff821115611d4757611d46611cb1565b5b611d5082611ab7565b9050602081019050919050565b82818337600083830152505050565b6000611d7f611d7a84611d2c565b611d11565b905082815260208101848484011115611d9b57611d9a611cac565b5b611da6848285611d5d565b509392505050565b600082601f830112611dc357611dc2611ca7565b5b8135611dd3848260208601611d6c565b91505092915050565b600080600060608486031215611df557611df461192d565b5b6000611e03868287016119b6565b9350506020611e1486828701611980565b925050604084013567ffffffffffffffff811115611e3557611e34611932565b5b611e4186828701611dae565b9150509250925092565b600080600060608486031215611e6457611e6361192d565b5b6000611e72868287016119b6565b9350506020611e83868287016119b6565b9250506040611e94868287016119b6565b9150509250925092565b60008060408385031215611eb557611eb461192d565b5b600083013567ffffffffffffffff811115611ed357611ed2611932565b5b611edf85828601611dae565b925050602083013567ffffffffffffffff811115611f0057611eff611932565b5b611f0c85828601611dae565b9150509250929050565b60008060408385031215611f2d57611f2c61192d565b5b6000611f3b858286016119b6565b9250506020611f4c858286016119b6565b9150509250929050565b7f4e487b7100000000000000000000000000000000000000000000000000000000600052601160045260246000fd5b6000611f9082611995565b9150611f9b83611995565b9250827fffffffffffffffffffffffffffffffffffffffffffffffffffffffffffffffff03821115611fd057611fcf611f56565b5b828201905092915050565b6000611fe682611995565b9150611ff183611995565b92508282101561200457612003611f56565b5b828203905092915050565b7f4e487b7100000000000000000000000000000000000000000000000000000000600052603260045260246000fd5b7f4e487b7100000000000000000000000000000000000000000000000000000000600052602260045260246000fd5b6000600282049050600182168061208557607f821691505b602082108114156120995761209861203e565b5b50919050565b60006120aa82611995565b91507fffffffffffffffffffffffffffffffffffffffffffffffffffffffffffffffff8214156120dd576120dc611f56565b5b60018201905091905056fea2646970667358221220cd2c912ca06125138697fff4065f2f2ba852d444ce43581f5aa8efb37719820164736f6c634300080a0033",
  "immutableReferences": {},
  "source": "// SPDX-License-Identifier: GPL-3.0\n\npragma solidity >=0.7.0 <0.9.0;\n\nimport './UserPosts.sol';\n\ncontract Replies is UserPosts {\n\n  mapping(address => uint[]) userReplyKeys;\n  mapping(address => mapping(uint => Post)) userReplies;\n\n  mapping(uint => uint[]) postReplyKeys;\n  mapping(uint => mapping(uint => Post)) postReplies;\n\n    function replyToPost(uint postId, address author, string memory description) public {\n        Post storage post = userPosts[author][postId];\n        \n        if (post.postId == 0) {\n            // post does not exist\n            return;\n        }\n\n        uint randomNum = uint(blockhash(block.number - 1));\n        Post memory reply = Post(msg.sender, randomNum, \"\", description, \"\", 0, 0, 0, true); \n\n        userReplies[msg.sender][randomNum] = reply;\n        userReplyKeys[msg.sender].push(randomNum);\n        \n        postReplyKeys[postId].push(randomNum);\n        postReplies[postId][randomNum] = reply;\n        \n        userPosts[author][postId].replyCount++;\n    }\n\n    function replyToReply(uint replyId, address author, string memory description) public {\n        Post storage sourceReply = userReplies[author][replyId];\n\n        if (sourceReply.postId == 0) {\n            // post does not exist\n            return;\n        }\n\n        uint randomNum = uint(blockhash(block.number - 1));\n        Post memory reply = Post(msg.sender, randomNum, \"\", description, \"\", 0, 0, 0, true); \n\n        userReplies[msg.sender][randomNum] = reply;\n        userReplyKeys[msg.sender].push(randomNum);\n\n        postReplyKeys[replyId].push(randomNum);\n        postReplies[replyId][randomNum] = reply;\n\n        userReplies[author][replyId].replyCount++;\n    }\n\n    function getRepliesToPost(uint postId, uint limit, uint offset) public view returns (Post[] memory) {\n        Post[] memory repliesSubset = new Post[](limit);\n        mapping(uint => Post) storage currentPostReplies = postReplies[postId];\n        uint[] storage currentPostReplyKeys = postReplyKeys[postId];\n        \n        uint length = currentPostReplyKeys.length;\n        for (uint x = 0; x < limit && (x + offset) < length; x++) {\n            uint replyId = currentPostReplyKeys[length - (x + 1) - offset];\n            repliesSubset[x] = currentPostReplies[replyId];\n        }\n        return repliesSubset;\n    }\n\n    function getRepliesFromUser(address adr, uint limit, uint offset) public view returns (Post[] memory) {\n        Post[] memory repliesSubset = new Post[](limit);\n        mapping(uint => Post) storage currentUserReplies = userReplies[adr];\n        uint[] storage currentUserReplyKeys = userReplyKeys[adr];\n        \n        uint length = currentUserReplyKeys.length;\n        for (uint x = 0; x < limit && (x + offset) < length; x++) {\n            uint replyId = currentUserReplyKeys[length - (x + 1) - offset];\n            repliesSubset[x] = currentUserReplies[replyId];\n        }\n        return repliesSubset;\n    }\n}",
  "sourcePath": "/Users/chriscushman/smartcontract/contracts/Replies.sol",
  "compiler": {
    "name": "solc",
    "version": "0.8.10+commit.fc410830.Emscripten.clang"
  },
  "schemaVersion": "3.4.3",
  "updatedAt": "2021-11-23T01:40:21.877Z",
  "networkType": "ethereum",
  "devdoc": {
    "kind": "dev",
    "methods": {},
    "version": 1
  },
  "userdoc": {
    "kind": "user",
    "methods": {},
    "version": 1
  }
}