{
  "contractName": "Replies",
  "abi": [
    {
      "inputs": [
        {
          "internalType": "address",
          "name": "adr",
          "type": "address"
        }
      ],
      "name": "followUser",
      "outputs": [],
      "stateMutability": "nonpayable",
      "type": "function"
    },
    {
      "inputs": [
        {
          "internalType": "address",
          "name": "adr",
          "type": "address"
        }
      ],
      "name": "getFollowers",
      "outputs": [
        {
          "components": [
            {
              "internalType": "address",
              "name": "adr",
              "type": "address"
            },
            {
              "internalType": "string",
              "name": "name",
              "type": "string"
            },
            {
              "internalType": "string",
              "name": "profilePictureUrl",
              "type": "string"
            },
            {
              "internalType": "string",
              "name": "bio",
              "type": "string"
            },
            {
              "internalType": "uint256",
              "name": "followerCount",
              "type": "uint256"
            },
            {
              "internalType": "uint256",
              "name": "followingCount",
              "type": "uint256"
            },
            {
              "internalType": "bool",
              "name": "unfollowed",
              "type": "bool"
            },
            {
              "internalType": "bool",
              "name": "unfollowing",
              "type": "bool"
            }
          ],
          "internalType": "struct Profiles.Profile[]",
          "name": "",
          "type": "tuple[]"
        }
      ],
      "stateMutability": "view",
      "type": "function"
    },
    {
      "inputs": [
        {
          "internalType": "address",
          "name": "adr",
          "type": "address"
        }
      ],
      "name": "getFollowing",
      "outputs": [
        {
          "components": [
            {
              "internalType": "address",
              "name": "adr",
              "type": "address"
            },
            {
              "internalType": "string",
              "name": "name",
              "type": "string"
            },
            {
              "internalType": "string",
              "name": "profilePictureUrl",
              "type": "string"
            },
            {
              "internalType": "string",
              "name": "bio",
              "type": "string"
            },
            {
              "internalType": "uint256",
              "name": "followerCount",
              "type": "uint256"
            },
            {
              "internalType": "uint256",
              "name": "followingCount",
              "type": "uint256"
            },
            {
              "internalType": "bool",
              "name": "unfollowed",
              "type": "bool"
            },
            {
              "internalType": "bool",
              "name": "unfollowing",
              "type": "bool"
            }
          ],
          "internalType": "struct Profiles.Profile[]",
          "name": "",
          "type": "tuple[]"
        }
      ],
      "stateMutability": "view",
      "type": "function"
    },
    {
      "inputs": [
        {
          "internalType": "address",
          "name": "adr",
          "type": "address"
        }
      ],
      "name": "getIsUserFollowingMe",
      "outputs": [
        {
          "internalType": "bool",
          "name": "",
          "type": "bool"
        }
      ],
      "stateMutability": "view",
      "type": "function"
    },
    {
      "inputs": [],
      "name": "getMyFollowers",
      "outputs": [
        {
          "components": [
            {
              "internalType": "address",
              "name": "adr",
              "type": "address"
            },
            {
              "internalType": "string",
              "name": "name",
              "type": "string"
            },
            {
              "internalType": "string",
              "name": "profilePictureUrl",
              "type": "string"
            },
            {
              "internalType": "string",
              "name": "bio",
              "type": "string"
            },
            {
              "internalType": "uint256",
              "name": "followerCount",
              "type": "uint256"
            },
            {
              "internalType": "uint256",
              "name": "followingCount",
              "type": "uint256"
            },
            {
              "internalType": "bool",
              "name": "unfollowed",
              "type": "bool"
            },
            {
              "internalType": "bool",
              "name": "unfollowing",
              "type": "bool"
            }
          ],
          "internalType": "struct Profiles.Profile[]",
          "name": "",
          "type": "tuple[]"
        }
      ],
      "stateMutability": "view",
      "type": "function"
    },
    {
      "inputs": [
        {
          "internalType": "uint256",
          "name": "limit",
          "type": "uint256"
        },
        {
          "internalType": "uint256",
          "name": "offset",
          "type": "uint256"
        }
      ],
      "name": "getMyPosts",
      "outputs": [
        {
          "components": [
            {
              "internalType": "address",
              "name": "author",
              "type": "address"
            },
            {
              "internalType": "uint256",
              "name": "postId",
              "type": "uint256"
            },
            {
              "internalType": "string",
              "name": "title",
              "type": "string"
            },
            {
              "internalType": "string",
              "name": "description",
              "type": "string"
            },
            {
              "internalType": "string",
              "name": "externalLink",
              "type": "string"
            },
            {
              "internalType": "uint256",
              "name": "likeCount",
              "type": "uint256"
            },
            {
              "internalType": "uint256",
              "name": "replyCount",
              "type": "uint256"
            },
            {
              "internalType": "uint256",
              "name": "shareCount",
              "type": "uint256"
            },
            {
              "internalType": "bool",
              "name": "isReply",
              "type": "bool"
            }
          ],
          "internalType": "struct UserPosts.Post[]",
          "name": "",
          "type": "tuple[]"
        }
      ],
      "stateMutability": "view",
      "type": "function"
    },
    {
      "inputs": [],
      "name": "getMyProfile",
      "outputs": [
        {
          "components": [
            {
              "internalType": "address",
              "name": "adr",
              "type": "address"
            },
            {
              "internalType": "string",
              "name": "name",
              "type": "string"
            },
            {
              "internalType": "string",
              "name": "profilePictureUrl",
              "type": "string"
            },
            {
              "internalType": "string",
              "name": "bio",
              "type": "string"
            },
            {
              "internalType": "uint256",
              "name": "followerCount",
              "type": "uint256"
            },
            {
              "internalType": "uint256",
              "name": "followingCount",
              "type": "uint256"
            },
            {
              "internalType": "bool",
              "name": "unfollowed",
              "type": "bool"
            },
            {
              "internalType": "bool",
              "name": "unfollowing",
              "type": "bool"
            }
          ],
          "internalType": "struct Profiles.Profile",
          "name": "",
          "type": "tuple"
        }
      ],
      "stateMutability": "view",
      "type": "function"
    },
    {
      "inputs": [
        {
          "internalType": "uint256",
          "name": "limit",
          "type": "uint256"
        },
        {
          "internalType": "uint256",
          "name": "offset",
          "type": "uint256"
        }
      ],
      "name": "getMySmallFryFeed",
      "outputs": [
        {
          "components": [
            {
              "internalType": "address",
              "name": "author",
              "type": "address"
            },
            {
              "internalType": "uint256",
              "name": "postId",
              "type": "uint256"
            },
            {
              "internalType": "string",
              "name": "title",
              "type": "string"
            },
            {
              "internalType": "string",
              "name": "description",
              "type": "string"
            },
            {
              "internalType": "string",
              "name": "externalLink",
              "type": "string"
            },
            {
              "internalType": "uint256",
              "name": "likeCount",
              "type": "uint256"
            },
            {
              "internalType": "uint256",
              "name": "replyCount",
              "type": "uint256"
            },
            {
              "internalType": "uint256",
              "name": "shareCount",
              "type": "uint256"
            },
            {
              "internalType": "bool",
              "name": "isReply",
              "type": "bool"
            }
          ],
          "internalType": "struct UserPosts.Post[]",
          "name": "",
          "type": "tuple[]"
        }
      ],
      "stateMutability": "view",
      "type": "function"
    },
    {
      "inputs": [
        {
          "internalType": "address",
          "name": "adr",
          "type": "address"
        }
      ],
      "name": "getProfile",
      "outputs": [
        {
          "components": [
            {
              "internalType": "address",
              "name": "adr",
              "type": "address"
            },
            {
              "internalType": "string",
              "name": "name",
              "type": "string"
            },
            {
              "internalType": "string",
              "name": "profilePictureUrl",
              "type": "string"
            },
            {
              "internalType": "string",
              "name": "bio",
              "type": "string"
            },
            {
              "internalType": "uint256",
              "name": "followerCount",
              "type": "uint256"
            },
            {
              "internalType": "uint256",
              "name": "followingCount",
              "type": "uint256"
            },
            {
              "internalType": "bool",
              "name": "unfollowed",
              "type": "bool"
            },
            {
              "internalType": "bool",
              "name": "unfollowing",
              "type": "bool"
            }
          ],
          "internalType": "struct Profiles.Profile",
          "name": "",
          "type": "tuple"
        }
      ],
      "stateMutability": "view",
      "type": "function"
    },
    {
      "inputs": [
        {
          "internalType": "address",
          "name": "adr",
          "type": "address"
        },
        {
          "internalType": "uint256",
          "name": "limit",
          "type": "uint256"
        },
        {
          "internalType": "uint256",
          "name": "offset",
          "type": "uint256"
        }
      ],
      "name": "getUserPosts",
      "outputs": [
        {
          "components": [
            {
              "internalType": "address",
              "name": "author",
              "type": "address"
            },
            {
              "internalType": "uint256",
              "name": "postId",
              "type": "uint256"
            },
            {
              "internalType": "string",
              "name": "title",
              "type": "string"
            },
            {
              "internalType": "string",
              "name": "description",
              "type": "string"
            },
            {
              "internalType": "string",
              "name": "externalLink",
              "type": "string"
            },
            {
              "internalType": "uint256",
              "name": "likeCount",
              "type": "uint256"
            },
            {
              "internalType": "uint256",
              "name": "replyCount",
              "type": "uint256"
            },
            {
              "internalType": "uint256",
              "name": "shareCount",
              "type": "uint256"
            },
            {
              "internalType": "bool",
              "name": "isReply",
              "type": "bool"
            }
          ],
          "internalType": "struct UserPosts.Post[]",
          "name": "",
          "type": "tuple[]"
        }
      ],
      "stateMutability": "view",
      "type": "function"
    },
    {
      "inputs": [
        {
          "internalType": "string",
          "name": "title",
          "type": "string"
        },
        {
          "internalType": "string",
          "name": "description",
          "type": "string"
        }
      ],
      "name": "postToMyFeed",
      "outputs": [],
      "stateMutability": "nonpayable",
      "type": "function"
    },
    {
      "inputs": [
        {
          "internalType": "string",
          "name": "bio",
          "type": "string"
        }
      ],
      "name": "setBio",
      "outputs": [],
      "stateMutability": "nonpayable",
      "type": "function"
    },
    {
      "inputs": [
        {
          "internalType": "uint256",
          "name": "followerCount",
          "type": "uint256"
        }
      ],
      "name": "setFollowerCount",
      "outputs": [],
      "stateMutability": "nonpayable",
      "type": "function"
    },
    {
      "inputs": [
        {
          "internalType": "address",
          "name": "adr",
          "type": "address"
        },
        {
          "internalType": "uint256",
          "name": "followerCount",
          "type": "uint256"
        }
      ],
      "name": "setFollowerCountForAddress",
      "outputs": [],
      "stateMutability": "nonpayable",
      "type": "function"
    },
    {
      "inputs": [
        {
          "internalType": "uint256",
          "name": "followingCount",
          "type": "uint256"
        }
      ],
      "name": "setFollowingCount",
      "outputs": [],
      "stateMutability": "nonpayable",
      "type": "function"
    },
    {
      "inputs": [
        {
          "internalType": "address",
          "name": "adr",
          "type": "address"
        },
        {
          "internalType": "uint256",
          "name": "followingCount",
          "type": "uint256"
        }
      ],
      "name": "setFollowingCountForAddress",
      "outputs": [],
      "stateMutability": "nonpayable",
      "type": "function"
    },
    {
      "inputs": [
        {
          "internalType": "string",
          "name": "name",
          "type": "string"
        }
      ],
      "name": "setName",
      "outputs": [],
      "stateMutability": "nonpayable",
      "type": "function"
    },
    {
      "inputs": [
        {
          "internalType": "string",
          "name": "name",
          "type": "string"
        },
        {
          "internalType": "string",
          "name": "profilePictureUrl",
          "type": "string"
        },
        {
          "internalType": "string",
          "name": "bio",
          "type": "string"
        }
      ],
      "name": "setProfileInfo",
      "outputs": [],
      "stateMutability": "nonpayable",
      "type": "function"
    },
    {
      "inputs": [
        {
          "internalType": "string",
          "name": "profilePictureUrl",
          "type": "string"
        }
      ],
      "name": "setProfilePictureUrl",
      "outputs": [],
      "stateMutability": "nonpayable",
      "type": "function"
    },
    {
      "inputs": [
        {
          "internalType": "address",
          "name": "adr",
          "type": "address"
        }
      ],
      "name": "unfollowUser",
      "outputs": [],
      "stateMutability": "nonpayable",
      "type": "function"
    },
    {
      "inputs": [
        {
          "internalType": "uint256",
          "name": "postId",
          "type": "uint256"
        },
        {
          "internalType": "address",
          "name": "author",
          "type": "address"
        },
        {
          "internalType": "string",
          "name": "description",
          "type": "string"
        }
      ],
      "name": "replyToPost",
      "outputs": [],
      "stateMutability": "nonpayable",
      "type": "function"
    },
    {
      "inputs": [
        {
          "internalType": "uint256",
          "name": "replyId",
          "type": "uint256"
        },
        {
          "internalType": "address",
          "name": "author",
          "type": "address"
        },
        {
          "internalType": "string",
          "name": "description",
          "type": "string"
        }
      ],
      "name": "replyToReply",
      "outputs": [],
      "stateMutability": "nonpayable",
      "type": "function"
    },
    {
      "inputs": [
        {
          "internalType": "uint256",
          "name": "postId",
          "type": "uint256"
        },
        {
          "internalType": "uint256",
          "name": "limit",
          "type": "uint256"
        },
        {
          "internalType": "uint256",
          "name": "offset",
          "type": "uint256"
        }
      ],
      "name": "getRepliesToPost",
      "outputs": [
        {
          "components": [
            {
              "internalType": "address",
              "name": "author",
              "type": "address"
            },
            {
              "internalType": "uint256",
              "name": "postId",
              "type": "uint256"
            },
            {
              "internalType": "string",
              "name": "title",
              "type": "string"
            },
            {
              "internalType": "string",
              "name": "description",
              "type": "string"
            },
            {
              "internalType": "string",
              "name": "externalLink",
              "type": "string"
            },
            {
              "internalType": "uint256",
              "name": "likeCount",
              "type": "uint256"
            },
            {
              "internalType": "uint256",
              "name": "replyCount",
              "type": "uint256"
            },
            {
              "internalType": "uint256",
              "name": "shareCount",
              "type": "uint256"
            },
            {
              "internalType": "bool",
              "name": "isReply",
              "type": "bool"
            }
          ],
          "internalType": "struct UserPosts.Post[]",
          "name": "",
          "type": "tuple[]"
        }
      ],
      "stateMutability": "view",
      "type": "function"
    },
    {
      "inputs": [
        {
          "internalType": "address",
          "name": "adr",
          "type": "address"
        },
        {
          "internalType": "uint256",
          "name": "limit",
          "type": "uint256"
        },
        {
          "internalType": "uint256",
          "name": "offset",
          "type": "uint256"
        }
      ],
      "name": "getRepliesFromUser",
      "outputs": [
        {
          "components": [
            {
              "internalType": "address",
              "name": "author",
              "type": "address"
            },
            {
              "internalType": "uint256",
              "name": "postId",
              "type": "uint256"
            },
            {
              "internalType": "string",
              "name": "title",
              "type": "string"
            },
            {
              "internalType": "string",
              "name": "description",
              "type": "string"
            },
            {
              "internalType": "string",
              "name": "externalLink",
              "type": "string"
            },
            {
              "internalType": "uint256",
              "name": "likeCount",
              "type": "uint256"
            },
            {
              "internalType": "uint256",
              "name": "replyCount",
              "type": "uint256"
            },
            {
              "internalType": "uint256",
              "name": "shareCount",
              "type": "uint256"
            },
            {
              "internalType": "bool",
              "name": "isReply",
              "type": "bool"
            }
          ],
          "internalType": "struct UserPosts.Post[]",
          "name": "",
          "type": "tuple[]"
        }
      ],
      "stateMutability": "view",
      "type": "function"
    }
  ],
  "bytecode": "0x60806040526101f460065534801561001657600080fd5b506151bb806100266000396000f3fe608060405234801561001057600080fd5b50600436106101585760003560e01c806391fc36ee116100c3578063c3fd82361161007c578063c3fd8236146103d1578063c47f002714610401578063d05b4b601461041d578063d8236dff1461044d578063f107cfcb1461047d578063fb7e06d81461049957610158565b806391fc36ee146102d9578063a02f4f4d146102f5578063a5d4ccbc14610325578063a70806f714610355578063a8c91fde14610371578063c2fe2022146103a157610158565b80635ce460a5116101155780635ce460a51461022f5780636633330b1461024b57806375c96ba5146102695780637cd38b06146102855780638e11d6ff146102a1578063906eb124146102bd57610158565b80630f53a4701461015d57806321527e501461018d5780633a24cb7b146101ab5780634773a699146101db5780634dd9c968146101f757806357d2bcb814610213575b600080fd5b610177600480360381019061017291906145fc565b6104b5565b60405161018491906147c3565b60405180910390f35b610195610764565b6040516101a291906147c3565b60405180910390f35b6101c560048036038101906101c09190614811565b610a11565b6040516101d291906149f9565b60405180910390f35b6101f560048036038101906101f09190614b50565b610e0d565b005b610211600480360381019061020c9190614bbf565b611263565b005b61022d60048036038101906102289190614b50565b6112ad565b005b61024960048036038101906102449190614bbf565b611703565b005b61025361174d565b6040516102609190614d7f565b60405180910390f35b610283600480360381019061027e9190614da1565b611a40565b005b61029f600480360381019061029a9190614e19565b611a74565b005b6102bb60048036038101906102b69190614e46565b611abd565b005b6102d760048036038101906102d29190614eed565b611bc4565b005b6102f360048036038101906102ee9190614e19565b611c1d565b005b61030f600480360381019061030a9190614f36565b611c66565b60405161031c91906149f9565b60405180910390f35b61033f600480360381019061033a91906145fc565b612061565b60405161034c9190614f85565b60405180910390f35b61036f600480360381019061036a91906145fc565b6121fa565b005b61038b60048036038101906103869190614fa0565b612d95565b60405161039891906149f9565b60405180910390f35b6103bb60048036038101906103b691906145fc565b613139565b6040516103c89190614d7f565b60405180910390f35b6103eb60048036038101906103e69190614f36565b61342e565b6040516103f891906149f9565b60405180910390f35b61041b60048036038101906104169190614eed565b613443565b005b61043760048036038101906104329190614811565b61349c565b60405161044491906149f9565b60405180910390f35b610467600480360381019061046291906145fc565b613898565b6040516104749190614d7f565b60405180910390f35b610497600480360381019061049291906145fc565b613b8d565b005b6104b360048036038101906104ae9190614eed565b613ef6565b005b6104bd614424565b6000808373ffffffffffffffffffffffffffffffffffffffff1673ffffffffffffffffffffffffffffffffffffffff168152602001908152602001600020604051806101000160405290816000820160009054906101000a900473ffffffffffffffffffffffffffffffffffffffff1673ffffffffffffffffffffffffffffffffffffffff1673ffffffffffffffffffffffffffffffffffffffff16815260200160018201805461056d90615022565b80601f016020809104026020016040519081016040528092919081815260200182805461059990615022565b80156105e65780601f106105bb576101008083540402835291602001916105e6565b820191906000526020600020905b8154815290600101906020018083116105c957829003601f168201915b505050505081526020016002820180546105ff90615022565b80601f016020809104026020016040519081016040528092919081815260200182805461062b90615022565b80156106785780601f1061064d57610100808354040283529160200191610678565b820191906000526020600020905b81548152906001019060200180831161065b57829003601f168201915b5050505050815260200160038201805461069190615022565b80601f01602080910402602001604051908101604052809291908181526020018280546106bd90615022565b801561070a5780601f106106df5761010080835404028352916020019161070a565b820191906000526020600020905b8154815290600101906020018083116106ed57829003601f168201915b5050505050815260200160048201548152602001600582015481526020016006820160009054906101000a900460ff161515151581526020016006820160019054906101000a900460ff1615151515815250509050919050565b61076c614424565b6000803373ffffffffffffffffffffffffffffffffffffffff1673ffffffffffffffffffffffffffffffffffffffff168152602001908152602001600020604051806101000160405290816000820160009054906101000a900473ffffffffffffffffffffffffffffffffffffffff1673ffffffffffffffffffffffffffffffffffffffff1673ffffffffffffffffffffffffffffffffffffffff16815260200160018201805461081c90615022565b80601f016020809104026020016040519081016040528092919081815260200182805461084890615022565b80156108955780601f1061086a57610100808354040283529160200191610895565b820191906000526020600020905b81548152906001019060200180831161087857829003601f168201915b505050505081526020016002820180546108ae90615022565b80601f01602080910402602001604051908101604052809291908181526020018280546108da90615022565b80156109275780601f106108fc57610100808354040283529160200191610927565b820191906000526020600020905b81548152906001019060200180831161090a57829003601f168201915b5050505050815260200160038201805461094090615022565b80601f016020809104026020016040519081016040528092919081815260200182805461096c90615022565b80156109b95780601f1061098e576101008083540402835291602001916109b9565b820191906000526020600020905b81548152906001019060200180831161099c57829003601f168201915b5050505050815260200160048201548152602001600582015481526020016006820160009054906101000a900460ff161515151581526020016006820160019054906101000a900460ff161515151581525050905090565b606060008367ffffffffffffffff811115610a2f57610a2e614a25565b5b604051908082528060200260200182016040528015610a6857816020015b610a55614483565b815260200190600190039081610a4d5790505b5090506000600860008773ffffffffffffffffffffffffffffffffffffffff1673ffffffffffffffffffffffffffffffffffffffff16815260200190815260200160002090506000600760008873ffffffffffffffffffffffffffffffffffffffff1673ffffffffffffffffffffffffffffffffffffffff168152602001908152602001600020905060008180549050905060005b8781108015610b165750818782610b149190615083565b105b15610dfe5760008388600184610b2c9190615083565b85610b3791906150d9565b610b4191906150d9565b81548110610b5257610b5161510d565b5b90600052602060002001549050846000828152602001908152602001600020604051806101200160405290816000820160009054906101000a900473ffffffffffffffffffffffffffffffffffffffff1673ffffffffffffffffffffffffffffffffffffffff1673ffffffffffffffffffffffffffffffffffffffff16815260200160018201548152602001600282018054610bed90615022565b80601f0160208091040260200160405190810160405280929190818152602001828054610c1990615022565b8015610c665780601f10610c3b57610100808354040283529160200191610c66565b820191906000526020600020905b815481529060010190602001808311610c4957829003601f168201915b50505050508152602001600382018054610c7f90615022565b80601f0160208091040260200160405190810160405280929190818152602001828054610cab90615022565b8015610cf85780601f10610ccd57610100808354040283529160200191610cf8565b820191906000526020600020905b815481529060010190602001808311610cdb57829003601f168201915b50505050508152602001600482018054610d1190615022565b80601f0160208091040260200160405190810160405280929190818152602001828054610d3d90615022565b8015610d8a5780601f10610d5f57610100808354040283529160200191610d8a565b820191906000526020600020905b815481529060010190602001808311610d6d57829003601f168201915b505050505081526020016005820154815260200160068201548152602001600782015481526020016008820160009054906101000a900460ff161515151581525050868381518110610ddf57610dde61510d565b5b6020026020010181905250508080610df69061513c565b915050610afd565b50839450505050509392505050565b6000600860008473ffffffffffffffffffffffffffffffffffffffff1673ffffffffffffffffffffffffffffffffffffffff16815260200190815260200160002060008581526020019081526020016000209050600081600101541415610e74575061125e565b6000600143610e8391906150d9565b4060001c905060006040518061012001604052803373ffffffffffffffffffffffffffffffffffffffff16815260200183815260200160405180602001604052806000815250815260200185815260200160405180602001604052806000815250815260200160008152602001600081526020016000815260200160011515815250905080600c60003373ffffffffffffffffffffffffffffffffffffffff1673ffffffffffffffffffffffffffffffffffffffff168152602001908152602001600020600084815260200190815260200160002060008201518160000160006101000a81548173ffffffffffffffffffffffffffffffffffffffff021916908373ffffffffffffffffffffffffffffffffffffffff160217905550602082015181600101556040820151816002019080519060200190610fc59291906144e7565b506060820151816003019080519060200190610fe29291906144e7565b506080820151816004019080519060200190610fff9291906144e7565b5060a0820151816005015560c0820151816006015560e082015181600701556101008201518160080160006101000a81548160ff021916908315150217905550905050600b60003373ffffffffffffffffffffffffffffffffffffffff1673ffffffffffffffffffffffffffffffffffffffff168152602001908152602001600020829080600181540180825580915050600190039060005260206000200160009091909190915055600d600087815260200190815260200160002082908060018154018082558091505060019003906000526020600020016000909190919091505580600e6000888152602001908152602001600020600084815260200190815260200160002060008201518160000160006101000a81548173ffffffffffffffffffffffffffffffffffffffff021916908373ffffffffffffffffffffffffffffffffffffffff1602179055506020820151816001015560408201518160020190805190602001906111749291906144e7565b5060608201518160030190805190602001906111919291906144e7565b5060808201518160040190805190602001906111ae9291906144e7565b5060a0820151816005015560c0820151816006015560e082015181600701556101008201518160080160006101000a81548160ff021916908315150217905550905050600860008673ffffffffffffffffffffffffffffffffffffffff1673ffffffffffffffffffffffffffffffffffffffff168152602001908152602001600020600087815260200190815260200160002060060160008154809291906112559061513c565b91905055505050505b505050565b806000808473ffffffffffffffffffffffffffffffffffffffff1673ffffffffffffffffffffffffffffffffffffffff168152602001908152602001600020600401819055505050565b6000600c60008473ffffffffffffffffffffffffffffffffffffffff1673ffffffffffffffffffffffffffffffffffffffff1681526020019081526020016000206000858152602001908152602001600020905060008160010154141561131457506116fe565b600060014361132391906150d9565b4060001c905060006040518061012001604052803373ffffffffffffffffffffffffffffffffffffffff16815260200183815260200160405180602001604052806000815250815260200185815260200160405180602001604052806000815250815260200160008152602001600081526020016000815260200160011515815250905080600c60003373ffffffffffffffffffffffffffffffffffffffff1673ffffffffffffffffffffffffffffffffffffffff168152602001908152602001600020600084815260200190815260200160002060008201518160000160006101000a81548173ffffffffffffffffffffffffffffffffffffffff021916908373ffffffffffffffffffffffffffffffffffffffff1602179055506020820151816001015560408201518160020190805190602001906114659291906144e7565b5060608201518160030190805190602001906114829291906144e7565b50608082015181600401908051906020019061149f9291906144e7565b5060a0820151816005015560c0820151816006015560e082015181600701556101008201518160080160006101000a81548160ff021916908315150217905550905050600b60003373ffffffffffffffffffffffffffffffffffffffff1673ffffffffffffffffffffffffffffffffffffffff168152602001908152602001600020829080600181540180825580915050600190039060005260206000200160009091909190915055600d600087815260200190815260200160002082908060018154018082558091505060019003906000526020600020016000909190919091505580600e6000888152602001908152602001600020600084815260200190815260200160002060008201518160000160006101000a81548173ffffffffffffffffffffffffffffffffffffffff021916908373ffffffffffffffffffffffffffffffffffffffff1602179055506020820151816001015560408201518160020190805190602001906116149291906144e7565b5060608201518160030190805190602001906116319291906144e7565b50608082015181600401908051906020019061164e9291906144e7565b5060a0820151816005015560c0820151816006015560e082015181600701556101008201518160080160006101000a81548160ff021916908315150217905550905050600c60008673ffffffffffffffffffffffffffffffffffffffff1673ffffffffffffffffffffffffffffffffffffffff168152602001908152602001600020600087815260200190815260200160002060060160008154809291906116f59061513c565b91905055505050505b505050565b806000808473ffffffffffffffffffffffffffffffffffffffff1673ffffffffffffffffffffffffffffffffffffffff168152602001908152602001600020600501819055505050565b6060600360003373ffffffffffffffffffffffffffffffffffffffff1673ffffffffffffffffffffffffffffffffffffffff168152602001908152602001600020805480602002602001604051908101604052809291908181526020016000905b82821015611a375783829060005260206000209060070201604051806101000160405290816000820160009054906101000a900473ffffffffffffffffffffffffffffffffffffffff1673ffffffffffffffffffffffffffffffffffffffff1673ffffffffffffffffffffffffffffffffffffffff16815260200160018201805461183890615022565b80601f016020809104026020016040519081016040528092919081815260200182805461186490615022565b80156118b15780601f10611886576101008083540402835291602001916118b1565b820191906000526020600020905b81548152906001019060200180831161189457829003601f168201915b505050505081526020016002820180546118ca90615022565b80601f01602080910402602001604051908101604052809291908181526020018280546118f690615022565b80156119435780601f1061191857610100808354040283529160200191611943565b820191906000526020600020905b81548152906001019060200180831161192657829003601f168201915b5050505050815260200160038201805461195c90615022565b80601f016020809104026020016040519081016040528092919081815260200182805461198890615022565b80156119d55780601f106119aa576101008083540402835291602001916119d5565b820191906000526020600020905b8154815290600101906020018083116119b857829003601f168201915b5050505050815260200160048201548152602001600582015481526020016006820160009054906101000a900460ff161515151581526020016006820160019054906101000a900460ff161515151581525050815260200190600101906117ae565b50505050905090565b611a4a8282613f4f565b6000611a54610764565b905060065481608001511015611a6f57611a6e838361417a565b5b505050565b806000803373ffffffffffffffffffffffffffffffffffffffff1673ffffffffffffffffffffffffffffffffffffffff1681526020019081526020016000206005018190555050565b826000803373ffffffffffffffffffffffffffffffffffffffff1673ffffffffffffffffffffffffffffffffffffffff1681526020019081526020016000206001019080519060200190611b129291906144e7565b50816000803373ffffffffffffffffffffffffffffffffffffffff1673ffffffffffffffffffffffffffffffffffffffff1681526020019081526020016000206002019080519060200190611b689291906144e7565b50806000803373ffffffffffffffffffffffffffffffffffffffff1673ffffffffffffffffffffffffffffffffffffffff1681526020019081526020016000206003019080519060200190611bbe9291906144e7565b50505050565b806000803373ffffffffffffffffffffffffffffffffffffffff1673ffffffffffffffffffffffffffffffffffffffff1681526020019081526020016000206002019080519060200190611c199291906144e7565b5050565b806000803373ffffffffffffffffffffffffffffffffffffffff1673ffffffffffffffffffffffffffffffffffffffff1681526020019081526020016000206004018190555050565b606060008367ffffffffffffffff811115611c8457611c83614a25565b5b604051908082528060200260200182016040528015611cbd57816020015b611caa614483565b815260200190600190039081611ca25790505b5090506000600a60003373ffffffffffffffffffffffffffffffffffffffff1673ffffffffffffffffffffffffffffffffffffffff16815260200190815260200160002090506000600960003373ffffffffffffffffffffffffffffffffffffffff1673ffffffffffffffffffffffffffffffffffffffff168152602001908152602001600020905060008180549050905060005b8781108015611d6b5750818782611d699190615083565b105b156120535760008388600184611d819190615083565b85611d8c91906150d9565b611d9691906150d9565b81548110611da757611da661510d565b5b90600052602060002001549050846000828152602001908152602001600020604051806101200160405290816000820160009054906101000a900473ffffffffffffffffffffffffffffffffffffffff1673ffffffffffffffffffffffffffffffffffffffff1673ffffffffffffffffffffffffffffffffffffffff16815260200160018201548152602001600282018054611e4290615022565b80601f0160208091040260200160405190810160405280929190818152602001828054611e6e90615022565b8015611ebb5780601f10611e9057610100808354040283529160200191611ebb565b820191906000526020600020905b815481529060010190602001808311611e9e57829003601f168201915b50505050508152602001600382018054611ed490615022565b80601f0160208091040260200160405190810160405280929190818152602001828054611f0090615022565b8015611f4d5780601f10611f2257610100808354040283529160200191611f4d565b820191906000526020600020905b815481529060010190602001808311611f3057829003601f168201915b50505050508152602001600482018054611f6690615022565b80601f0160208091040260200160405190810160405280929190818152602001828054611f9290615022565b8015611fdf5780601f10611fb457610100808354040283529160200191611fdf565b820191906000526020600020905b815481529060010190602001808311611fc257829003601f168201915b505050505081526020016005820154815260200160068201548152602001600782015481526020016008820160009054906101000a900460ff1615151515815250508683815181106120345761203361510d565b5b602002602001018190525050808061204b9061513c565b915050611d52565b508394505050505092915050565b600080600160008473ffffffffffffffffffffffffffffffffffffffff1673ffffffffffffffffffffffffffffffffffffffff16815260200190815260200160002060003373ffffffffffffffffffffffffffffffffffffffff1673ffffffffffffffffffffffffffffffffffffffff16815260200190815260200160002060009054906101000a900460ff1690506000600260008573ffffffffffffffffffffffffffffffffffffffff1673ffffffffffffffffffffffffffffffffffffffff16815260200190815260200160002060003373ffffffffffffffffffffffffffffffffffffffff1673ffffffffffffffffffffffffffffffffffffffff1681526020019081526020016000205490506000600360008673ffffffffffffffffffffffffffffffffffffffff1673ffffffffffffffffffffffffffffffffffffffff16815260200190815260200160002082815481106121c4576121c361510d565b5b906000526020600020906007020190508280156121f057508060060160009054906101000a900460ff16155b9350505050919050565b6000600160003373ffffffffffffffffffffffffffffffffffffffff1673ffffffffffffffffffffffffffffffffffffffff16815260200190815260200160002060008373ffffffffffffffffffffffffffffffffffffffff1673ffffffffffffffffffffffffffffffffffffffff16815260200190815260200160002060009054906101000a900460ff1690506000600260008473ffffffffffffffffffffffffffffffffffffffff1673ffffffffffffffffffffffffffffffffffffffff16815260200190815260200160002060003373ffffffffffffffffffffffffffffffffffffffff1673ffffffffffffffffffffffffffffffffffffffff1681526020019081526020016000205490506000600360008573ffffffffffffffffffffffffffffffffffffffff1673ffffffffffffffffffffffffffffffffffffffff1681526020019081526020016000209050612354614424565b60008280549050146125e6578183815481106123735761237261510d565b5b9060005260206000209060070201604051806101000160405290816000820160009054906101000a900473ffffffffffffffffffffffffffffffffffffffff1673ffffffffffffffffffffffffffffffffffffffff1673ffffffffffffffffffffffffffffffffffffffff1681526020016001820180546123f390615022565b80601f016020809104026020016040519081016040528092919081815260200182805461241f90615022565b801561246c5780601f106124415761010080835404028352916020019161246c565b820191906000526020600020905b81548152906001019060200180831161244f57829003601f168201915b5050505050815260200160028201805461248590615022565b80601f01602080910402602001604051908101604052809291908181526020018280546124b190615022565b80156124fe5780601f106124d3576101008083540402835291602001916124fe565b820191906000526020600020905b8154815290600101906020018083116124e157829003601f168201915b5050505050815260200160038201805461251790615022565b80601f016020809104026020016040519081016040528092919081815260200182805461254390615022565b80156125905780601f1061256557610100808354040283529160200191612590565b820191906000526020600020905b81548152906001019060200180831161257357829003601f168201915b5050505050815260200160048201548152602001600582015481526020016006820160009054906101000a900460ff161515151581526020016006820160019054906101000a900460ff16151515158152505090505b6125ee614424565b6125f6614424565b85801561260457508260c001515b156127d557612611610764565b915061261c876104b5565b90506000600460003373ffffffffffffffffffffffffffffffffffffffff1673ffffffffffffffffffffffffffffffffffffffff16815260200190815260200160002060008973ffffffffffffffffffffffffffffffffffffffff1673ffffffffffffffffffffffffffffffffffffffff1681526020019081526020016000205490506000600360008a73ffffffffffffffffffffffffffffffffffffffff1673ffffffffffffffffffffffffffffffffffffffff16815260200190815260200160002087815481106126f2576126f161510d565b5b906000526020600020906007020160060160006101000a81548160ff0219169083151502179055506000600560003373ffffffffffffffffffffffffffffffffffffffff1673ffffffffffffffffffffffffffffffffffffffff168152602001908152602001600020828154811061276d5761276c61510d565b5b906000526020600020906007020160060160016101000a81548160ff0219169083151502179055506127af88600184608001516127aa9190615083565b611263565b6127c93360018560a001516127c49190615083565b611703565b50505050505050612d92565b85156127e657505050505050612d92565b6127ee610764565b91506127f9876104b5565b905033826000019073ffffffffffffffffffffffffffffffffffffffff16908173ffffffffffffffffffffffffffffffffffffffff168152505086816000019073ffffffffffffffffffffffffffffffffffffffff16908173ffffffffffffffffffffffffffffffffffffffff1681525050600360008873ffffffffffffffffffffffffffffffffffffffff1673ffffffffffffffffffffffffffffffffffffffff16815260200190815260200160002082908060018154018082558091505060019003906000526020600020906007020160009091909190915060008201518160000160006101000a81548173ffffffffffffffffffffffffffffffffffffffff021916908373ffffffffffffffffffffffffffffffffffffffff16021790555060208201518160010190805190602001906129379291906144e7565b5060408201518160020190805190602001906129549291906144e7565b5060608201518160030190805190602001906129719291906144e7565b506080820151816004015560a0820151816005015560c08201518160060160006101000a81548160ff02191690831515021790555060e08201518160060160016101000a81548160ff0219169083151502179055505050600560003373ffffffffffffffffffffffffffffffffffffffff1673ffffffffffffffffffffffffffffffffffffffff16815260200190815260200160002081908060018154018082558091505060019003906000526020600020906007020160009091909190915060008201518160000160006101000a81548173ffffffffffffffffffffffffffffffffffffffff021916908373ffffffffffffffffffffffffffffffffffffffff1602179055506020820151816001019080519060200190612a949291906144e7565b506040820151816002019080519060200190612ab19291906144e7565b506060820151816003019080519060200190612ace9291906144e7565b506080820151816004015560a0820151816005015560c08201518160060160006101000a81548160ff02191690831515021790555060e08201518160060160016101000a81548160ff02191690831515021790555050506001600360008973ffffffffffffffffffffffffffffffffffffffff1673ffffffffffffffffffffffffffffffffffffffff16815260200190815260200160002080549050612b7491906150d9565b600260008973ffffffffffffffffffffffffffffffffffffffff1673ffffffffffffffffffffffffffffffffffffffff16815260200190815260200160002060003373ffffffffffffffffffffffffffffffffffffffff1673ffffffffffffffffffffffffffffffffffffffff168152602001908152602001600020819055506001600560003373ffffffffffffffffffffffffffffffffffffffff1673ffffffffffffffffffffffffffffffffffffffff16815260200190815260200160002080549050612c4391906150d9565b600460003373ffffffffffffffffffffffffffffffffffffffff1673ffffffffffffffffffffffffffffffffffffffff16815260200190815260200160002060008973ffffffffffffffffffffffffffffffffffffffff1673ffffffffffffffffffffffffffffffffffffffff1681526020019081526020016000208190555060018060003373ffffffffffffffffffffffffffffffffffffffff1673ffffffffffffffffffffffffffffffffffffffff16815260200190815260200160002060008973ffffffffffffffffffffffffffffffffffffffff1673ffffffffffffffffffffffffffffffffffffffff16815260200190815260200160002060006101000a81548160ff021916908315150217905550612d718760018360800151612d6c9190615083565b611263565b612d8b3360018460a00151612d869190615083565b611703565b5050505050505b50565b606060008367ffffffffffffffff811115612db357612db2614a25565b5b604051908082528060200260200182016040528015612dec57816020015b612dd9614483565b815260200190600190039081612dd15790505b5090506000600e600087815260200190815260200160002090506000600d6000888152602001908152602001600020905060008180549050905060005b8781108015612e425750818782612e409190615083565b105b1561312a5760008388600184612e589190615083565b85612e6391906150d9565b612e6d91906150d9565b81548110612e7e57612e7d61510d565b5b90600052602060002001549050846000828152602001908152602001600020604051806101200160405290816000820160009054906101000a900473ffffffffffffffffffffffffffffffffffffffff1673ffffffffffffffffffffffffffffffffffffffff1673ffffffffffffffffffffffffffffffffffffffff16815260200160018201548152602001600282018054612f1990615022565b80601f0160208091040260200160405190810160405280929190818152602001828054612f4590615022565b8015612f925780601f10612f6757610100808354040283529160200191612f92565b820191906000526020600020905b815481529060010190602001808311612f7557829003601f168201915b50505050508152602001600382018054612fab90615022565b80601f0160208091040260200160405190810160405280929190818152602001828054612fd790615022565b80156130245780601f10612ff957610100808354040283529160200191613024565b820191906000526020600020905b81548152906001019060200180831161300757829003601f168201915b5050505050815260200160048201805461303d90615022565b80601f016020809104026020016040519081016040528092919081815260200182805461306990615022565b80156130b65780601f1061308b576101008083540402835291602001916130b6565b820191906000526020600020905b81548152906001019060200180831161309957829003601f168201915b505050505081526020016005820154815260200160068201548152602001600782015481526020016008820160009054906101000a900460ff16151515158152505086838151811061310b5761310a61510d565b5b60200260200101819052505080806131229061513c565b915050612e29565b50839450505050509392505050565b6060600360008373ffffffffffffffffffffffffffffffffffffffff1673ffffffffffffffffffffffffffffffffffffffff168152602001908152602001600020805480602002602001604051908101604052809291908181526020016000905b828210156134235783829060005260206000209060070201604051806101000160405290816000820160009054906101000a900473ffffffffffffffffffffffffffffffffffffffff1673ffffffffffffffffffffffffffffffffffffffff1673ffffffffffffffffffffffffffffffffffffffff16815260200160018201805461322490615022565b80601f016020809104026020016040519081016040528092919081815260200182805461325090615022565b801561329d5780601f106132725761010080835404028352916020019161329d565b820191906000526020600020905b81548152906001019060200180831161328057829003601f168201915b505050505081526020016002820180546132b690615022565b80601f01602080910402602001604051908101604052809291908181526020018280546132e290615022565b801561332f5780601f106133045761010080835404028352916020019161332f565b820191906000526020600020905b81548152906001019060200180831161331257829003601f168201915b5050505050815260200160038201805461334890615022565b80601f016020809104026020016040519081016040528092919081815260200182805461337490615022565b80156133c15780601f10613396576101008083540402835291602001916133c1565b820191906000526020600020905b8154815290600101906020018083116133a457829003601f168201915b5050505050815260200160048201548152602001600582015481526020016006820160009054906101000a900460ff161515151581526020016006820160019054906101000a900460ff1615151515815250508152602001906001019061319a565b505050509050919050565b606061343b338484610a11565b905092915050565b806000803373ffffffffffffffffffffffffffffffffffffffff1673ffffffffffffffffffffffffffffffffffffffff16815260200190815260200160002060010190805190602001906134989291906144e7565b5050565b606060008367ffffffffffffffff8111156134ba576134b9614a25565b5b6040519080825280602002602001820160405280156134f357816020015b6134e0614483565b8152602001906001900390816134d85790505b5090506000600c60008773ffffffffffffffffffffffffffffffffffffffff1673ffffffffffffffffffffffffffffffffffffffff16815260200190815260200160002090506000600b60008873ffffffffffffffffffffffffffffffffffffffff1673ffffffffffffffffffffffffffffffffffffffff168152602001908152602001600020905060008180549050905060005b87811080156135a1575081878261359f9190615083565b105b1561388957600083886001846135b79190615083565b856135c291906150d9565b6135cc91906150d9565b815481106135dd576135dc61510d565b5b90600052602060002001549050846000828152602001908152602001600020604051806101200160405290816000820160009054906101000a900473ffffffffffffffffffffffffffffffffffffffff1673ffffffffffffffffffffffffffffffffffffffff1673ffffffffffffffffffffffffffffffffffffffff1681526020016001820154815260200160028201805461367890615022565b80601f01602080910402602001604051908101604052809291908181526020018280546136a490615022565b80156136f15780601f106136c6576101008083540402835291602001916136f1565b820191906000526020600020905b8154815290600101906020018083116136d457829003601f168201915b5050505050815260200160038201805461370a90615022565b80601f016020809104026020016040519081016040528092919081815260200182805461373690615022565b80156137835780601f1061375857610100808354040283529160200191613783565b820191906000526020600020905b81548152906001019060200180831161376657829003601f168201915b5050505050815260200160048201805461379c90615022565b80601f01602080910402602001604051908101604052809291908181526020018280546137c890615022565b80156138155780601f106137ea57610100808354040283529160200191613815565b820191906000526020600020905b8154815290600101906020018083116137f857829003601f168201915b505050505081526020016005820154815260200160068201548152602001600782015481526020016008820160009054906101000a900460ff16151515158152505086838151811061386a5761386961510d565b5b60200260200101819052505080806138819061513c565b915050613588565b50839450505050509392505050565b6060600560008373ffffffffffffffffffffffffffffffffffffffff1673ffffffffffffffffffffffffffffffffffffffff168152602001908152602001600020805480602002602001604051908101604052809291908181526020016000905b82821015613b825783829060005260206000209060070201604051806101000160405290816000820160009054906101000a900473ffffffffffffffffffffffffffffffffffffffff1673ffffffffffffffffffffffffffffffffffffffff1673ffffffffffffffffffffffffffffffffffffffff16815260200160018201805461398390615022565b80601f01602080910402602001604051908101604052809291908181526020018280546139af90615022565b80156139fc5780601f106139d1576101008083540402835291602001916139fc565b820191906000526020600020905b8154815290600101906020018083116139df57829003601f168201915b50505050508152602001600282018054613a1590615022565b80601f0160208091040260200160405190810160405280929190818152602001828054613a4190615022565b8015613a8e5780601f10613a6357610100808354040283529160200191613a8e565b820191906000526020600020905b815481529060010190602001808311613a7157829003601f168201915b50505050508152602001600382018054613aa790615022565b80601f0160208091040260200160405190810160405280929190818152602001828054613ad390615022565b8015613b205780601f10613af557610100808354040283529160200191613b20565b820191906000526020600020905b815481529060010190602001808311613b0357829003601f168201915b5050505050815260200160048201548152602001600582015481526020016006820160009054906101000a900460ff161515151581526020016006820160019054906101000a900460ff161515151581525050815260200190600101906138f9565b505050509050919050565b6000600160003373ffffffffffffffffffffffffffffffffffffffff1673ffffffffffffffffffffffffffffffffffffffff16815260200190815260200160002060008373ffffffffffffffffffffffffffffffffffffffff1673ffffffffffffffffffffffffffffffffffffffff16815260200190815260200160002060009054906101000a900460ff1690506000600260008473ffffffffffffffffffffffffffffffffffffffff1673ffffffffffffffffffffffffffffffffffffffff16815260200190815260200160002060003373ffffffffffffffffffffffffffffffffffffffff1673ffffffffffffffffffffffffffffffffffffffff1681526020019081526020016000205490506000600360008573ffffffffffffffffffffffffffffffffffffffff1673ffffffffffffffffffffffffffffffffffffffff1681526020019081526020016000208281548110613cef57613cee61510d565b5b90600052602060002090600702019050828015613d1b57508060060160009054906101000a900460ff16155b15613eef576000613d2a610764565b90506000613d37866104b5565b90506000600460003373ffffffffffffffffffffffffffffffffffffffff1673ffffffffffffffffffffffffffffffffffffffff16815260200190815260200160002060008873ffffffffffffffffffffffffffffffffffffffff1673ffffffffffffffffffffffffffffffffffffffff1681526020019081526020016000205490506001600360008973ffffffffffffffffffffffffffffffffffffffff1673ffffffffffffffffffffffffffffffffffffffff1681526020019081526020016000208681548110613e0d57613e0c61510d565b5b906000526020600020906007020160060160006101000a81548160ff0219169083151502179055506001600560003373ffffffffffffffffffffffffffffffffffffffff1673ffffffffffffffffffffffffffffffffffffffff1681526020019081526020016000208281548110613e8857613e8761510d565b5b906000526020600020906007020160060160016101000a81548160ff021916908315150217905550613eca8760018460800151613ec591906150d9565b611263565b613ee43360018560a00151613edf91906150d9565b611703565b505050505050613ef3565b5050505b50565b806000803373ffffffffffffffffffffffffffffffffffffffff1673ffffffffffffffffffffffffffffffffffffffff1681526020019081526020016000206003019080519060200190613f4b9291906144e7565b5050565b6000600143613f5e91906150d9565b4060001c905060006040518061012001604052803373ffffffffffffffffffffffffffffffffffffffff16815260200183815260200185815260200184815260200160405180602001604052806000815250815260200160008152602001600081526020016000815260200160001515815250905080600860003373ffffffffffffffffffffffffffffffffffffffff1673ffffffffffffffffffffffffffffffffffffffff168152602001908152602001600020600084815260200190815260200160002060008201518160000160006101000a81548173ffffffffffffffffffffffffffffffffffffffff021916908373ffffffffffffffffffffffffffffffffffffffff1602179055506020820151816001015560408201518160020190805190602001906140919291906144e7565b5060608201518160030190805190602001906140ae9291906144e7565b5060808201518160040190805190602001906140cb9291906144e7565b5060a0820151816005015560c0820151816006015560e082015181600701556101008201518160080160006101000a81548160ff021916908315150217905550905050600760003373ffffffffffffffffffffffffffffffffffffffff1673ffffffffffffffffffffffffffffffffffffffff16815260200190815260200160002082908060018154018082558091505060019003906000526020600020016000909190919091505550505050565b600061418461174d565b905060005b81518110156141f2578181815181106141a5576141a461510d565b5b602002602001015160c001516141df576141de8282815181106141cb576141ca61510d565b5b60200260200101516000015185856141f8565b5b80806141ea9061513c565b915050614189565b50505050565b600060014361420791906150d9565b4060001c905060006040518061012001604052803373ffffffffffffffffffffffffffffffffffffffff16815260200183815260200185815260200184815260200160405180602001604052806000815250815260200160008152602001600081526020016000815260200160001515815250905080600a60008773ffffffffffffffffffffffffffffffffffffffff1673ffffffffffffffffffffffffffffffffffffffff168152602001908152602001600020600084815260200190815260200160002060008201518160000160006101000a81548173ffffffffffffffffffffffffffffffffffffffff021916908373ffffffffffffffffffffffffffffffffffffffff16021790555060208201518160010155604082015181600201908051906020019061433a9291906144e7565b5060608201518160030190805190602001906143579291906144e7565b5060808201518160040190805190602001906143749291906144e7565b5060a0820151816005015560c0820151816006015560e082015181600701556101008201518160080160006101000a81548160ff021916908315150217905550905050600960008673ffffffffffffffffffffffffffffffffffffffff1673ffffffffffffffffffffffffffffffffffffffff1681526020019081526020016000208290806001815401808255809150506001900390600052602060002001600090919091909150555050505050565b604051806101000160405280600073ffffffffffffffffffffffffffffffffffffffff16815260200160608152602001606081526020016060815260200160008152602001600081526020016000151581526020016000151581525090565b604051806101200160405280600073ffffffffffffffffffffffffffffffffffffffff168152602001600081526020016060815260200160608152602001606081526020016000815260200160008152602001600081526020016000151581525090565b8280546144f390615022565b90600052602060002090601f016020900481019282614515576000855561455c565b82601f1061452e57805160ff191683800117855561455c565b8280016001018555821561455c579182015b8281111561455b578251825591602001919060010190614540565b5b509050614569919061456d565b5090565b5b8082111561458657600081600090555060010161456e565b5090565b6000604051905090565b600080fd5b600080fd5b600073ffffffffffffffffffffffffffffffffffffffff82169050919050565b60006145c98261459e565b9050919050565b6145d9816145be565b81146145e457600080fd5b50565b6000813590506145f6816145d0565b92915050565b60006020828403121561461257614611614594565b5b6000614620848285016145e7565b91505092915050565b614632816145be565b82525050565b600081519050919050565b600082825260208201905092915050565b60005b83811015614672578082015181840152602081019050614657565b83811115614681576000848401525b50505050565b6000601f19601f8301169050919050565b60006146a382614638565b6146ad8185614643565b93506146bd818560208601614654565b6146c681614687565b840191505092915050565b6000819050919050565b6146e4816146d1565b82525050565b60008115159050919050565b6146ff816146ea565b82525050565b60006101008301600083015161471e6000860182614629565b50602083015184820360208601526147368282614698565b915050604083015184820360408601526147508282614698565b9150506060830151848203606086015261476a8282614698565b915050608083015161477f60808601826146db565b5060a083015161479260a08601826146db565b5060c08301516147a560c08601826146f6565b5060e08301516147b860e08601826146f6565b508091505092915050565b600060208201905081810360008301526147dd8184614705565b905092915050565b6147ee816146d1565b81146147f957600080fd5b50565b60008135905061480b816147e5565b92915050565b60008060006060848603121561482a57614829614594565b5b6000614838868287016145e7565b9350506020614849868287016147fc565b925050604061485a868287016147fc565b9150509250925092565b600081519050919050565b600082825260208201905092915050565b6000819050602082019050919050565b6000610120830160008301516148a96000860182614629565b5060208301516148bc60208601826146db565b50604083015184820360408601526148d48282614698565b915050606083015184820360608601526148ee8282614698565b915050608083015184820360808601526149088282614698565b91505060a083015161491d60a08601826146db565b5060c083015161493060c08601826146db565b5060e083015161494360e08601826146db565b506101008301516149586101008601826146f6565b508091505092915050565b600061496f8383614890565b905092915050565b6000602082019050919050565b600061498f82614864565b614999818561486f565b9350836020820285016149ab85614880565b8060005b858110156149e757848403895281516149c88582614963565b94506149d383614977565b925060208a019950506001810190506149af565b50829750879550505050505092915050565b60006020820190508181036000830152614a138184614984565b905092915050565b600080fd5b600080fd5b7f4e487b7100000000000000000000000000000000000000000000000000000000600052604160045260246000fd5b614a5d82614687565b810181811067ffffffffffffffff82111715614a7c57614a7b614a25565b5b80604052505050565b6000614a8f61458a565b9050614a9b8282614a54565b919050565b600067ffffffffffffffff821115614abb57614aba614a25565b5b614ac482614687565b9050602081019050919050565b82818337600083830152505050565b6000614af3614aee84614aa0565b614a85565b905082815260208101848484011115614b0f57614b0e614a20565b5b614b1a848285614ad1565b509392505050565b600082601f830112614b3757614b36614a1b565b5b8135614b47848260208601614ae0565b91505092915050565b600080600060608486031215614b6957614b68614594565b5b6000614b77868287016147fc565b9350506020614b88868287016145e7565b925050604084013567ffffffffffffffff811115614ba957614ba8614599565b5b614bb586828701614b22565b9150509250925092565b60008060408385031215614bd657614bd5614594565b5b6000614be4858286016145e7565b9250506020614bf5858286016147fc565b9150509250929050565b600081519050919050565b600082825260208201905092915050565b6000819050602082019050919050565b600061010083016000830151614c446000860182614629565b5060208301518482036020860152614c5c8282614698565b91505060408301518482036040860152614c768282614698565b91505060608301518482036060860152614c908282614698565b9150506080830151614ca560808601826146db565b5060a0830151614cb860a08601826146db565b5060c0830151614ccb60c08601826146f6565b5060e0830151614cde60e08601826146f6565b508091505092915050565b6000614cf58383614c2b565b905092915050565b6000602082019050919050565b6000614d1582614bff565b614d1f8185614c0a565b935083602082028501614d3185614c1b565b8060005b85811015614d6d5784840389528151614d4e8582614ce9565b9450614d5983614cfd565b925060208a01995050600181019050614d35565b50829750879550505050505092915050565b60006020820190508181036000830152614d998184614d0a565b905092915050565b60008060408385031215614db857614db7614594565b5b600083013567ffffffffffffffff811115614dd657614dd5614599565b5b614de285828601614b22565b925050602083013567ffffffffffffffff811115614e0357614e02614599565b5b614e0f85828601614b22565b9150509250929050565b600060208284031215614e2f57614e2e614594565b5b6000614e3d848285016147fc565b91505092915050565b600080600060608486031215614e5f57614e5e614594565b5b600084013567ffffffffffffffff811115614e7d57614e7c614599565b5b614e8986828701614b22565b935050602084013567ffffffffffffffff811115614eaa57614ea9614599565b5b614eb686828701614b22565b925050604084013567ffffffffffffffff811115614ed757614ed6614599565b5b614ee386828701614b22565b9150509250925092565b600060208284031215614f0357614f02614594565b5b600082013567ffffffffffffffff811115614f2157614f20614599565b5b614f2d84828501614b22565b91505092915050565b60008060408385031215614f4d57614f4c614594565b5b6000614f5b858286016147fc565b9250506020614f6c858286016147fc565b9150509250929050565b614f7f816146ea565b82525050565b6000602082019050614f9a6000830184614f76565b92915050565b600080600060608486031215614fb957614fb8614594565b5b6000614fc7868287016147fc565b9350506020614fd8868287016147fc565b9250506040614fe9868287016147fc565b9150509250925092565b7f4e487b7100000000000000000000000000000000000000000000000000000000600052602260045260246000fd5b6000600282049050600182168061503a57607f821691505b6020821081141561504e5761504d614ff3565b5b50919050565b7f4e487b7100000000000000000000000000000000000000000000000000000000600052601160045260246000fd5b600061508e826146d1565b9150615099836146d1565b9250827fffffffffffffffffffffffffffffffffffffffffffffffffffffffffffffffff038211156150ce576150cd615054565b5b828201905092915050565b60006150e4826146d1565b91506150ef836146d1565b92508282101561510257615101615054565b5b828203905092915050565b7f4e487b7100000000000000000000000000000000000000000000000000000000600052603260045260246000fd5b6000615147826146d1565b91507fffffffffffffffffffffffffffffffffffffffffffffffffffffffffffffffff82141561517a57615179615054565b5b60018201905091905056fea2646970667358221220390f95678eeb6778c19193e59f1add4526ebd41e8d29564de4e829eaf02ac06564736f6c634300080a0033",
  "immutableReferences": {},
  "source": "// SPDX-License-Identifier: GPL-3.0\n\npragma solidity >=0.7.0 <0.9.0;\n\nimport './UserPosts.sol';\n\ncontract Replies is UserPosts {\n\n  mapping(address => uint[]) userReplyKeys; // mapping of addresses to list of corresponding user's reply keys\n  mapping(address => mapping(uint => Post)) userReplies; // mapping of addresses to the corresponding user's replies\n\n  mapping(uint => uint[]) postReplyKeys; // mapping of postIds to list of corresponding post's reply keys\n  mapping(uint => mapping(uint => Post)) postReplies; // mapping of postIds to the corresponding post's replies\n\n    /**\n     * @dev Reply to a post\n     * @param postId the id of the post to be replied to\n     * @param author the address of the author of the post to be replied to\n     * @param description the description of the reply\n     */\n    function replyToPost(uint postId, address author, string memory description) public {\n        Post storage post = userPosts[author][postId];\n        \n        if (post.postId == 0) {\n            // post does not exist\n            return;\n        }\n\n        uint randomNum = uint(blockhash(block.number - 1));\n        Post memory reply = Post(msg.sender, randomNum, \"\", description, \"\", 0, 0, 0, true); \n\n        userReplies[msg.sender][randomNum] = reply;\n        userReplyKeys[msg.sender].push(randomNum);\n        \n        postReplyKeys[postId].push(randomNum);\n        postReplies[postId][randomNum] = reply;\n        \n        userPosts[author][postId].replyCount++;\n    }\n\n    /**\n     * @dev Reply to a reply\n     * @param replyId the id of the reply to be replied to\n     * @param author the address of the author of the reply to be replied to\n     * @param description the description of the reply\n     */\n    function replyToReply(uint replyId, address author, string memory description) public {\n        Post storage sourceReply = userReplies[author][replyId];\n\n        if (sourceReply.postId == 0) {\n            // post does not exist\n            return;\n        }\n\n        uint randomNum = uint(blockhash(block.number - 1));\n        Post memory reply = Post(msg.sender, randomNum, \"\", description, \"\", 0, 0, 0, true); \n\n        userReplies[msg.sender][randomNum] = reply;\n        userReplyKeys[msg.sender].push(randomNum);\n\n        postReplyKeys[replyId].push(randomNum);\n        postReplies[replyId][randomNum] = reply;\n\n        userReplies[author][replyId].replyCount++;\n    }\n\n    /**\n     * @dev Get replies to a post\n     * @param postId the id of the post to be replied to\n     * @param limit the max number of replies to fetch\n     * @param offset the offset of the starting index of replies to fetch\n     * @return list of replies to a post, bound by the limit and offset\n     */\n    function getRepliesToPost(uint postId, uint limit, uint offset) public view returns (Post[] memory) {\n        Post[] memory repliesSubset = new Post[](limit);\n        mapping(uint => Post) storage currentPostReplies = postReplies[postId];\n        uint[] storage currentPostReplyKeys = postReplyKeys[postId];\n\n        uint length = currentPostReplyKeys.length;\n        for (uint x = 0; x < limit && (x + offset) < length; x++) {\n            uint replyId = currentPostReplyKeys[length - (x + 1) - offset];\n            repliesSubset[x] = currentPostReplies[replyId];\n        }\n        return repliesSubset;\n    }\n\n    /**\n     * @dev Get replies a user has made\n     * @param adr the address of the user\n     * @param limit the max number of replies to fetch\n     * @param offset the offset of the starting index of replies to fetch\n     * @return list of replies a user has made, bound by the limit and offset\n     */\n    function getRepliesFromUser(address adr, uint limit, uint offset) public view returns (Post[] memory) {\n        Post[] memory repliesSubset = new Post[](limit);\n        mapping(uint => Post) storage currentUserReplies = userReplies[adr];\n        uint[] storage currentUserReplyKeys = userReplyKeys[adr];\n        uint length = currentUserReplyKeys.length;\n        for (uint x = 0; x < limit && (x + offset) < length; x++) {\n            uint replyId = currentUserReplyKeys[length - (x + 1) - offset];\n            repliesSubset[x] = currentUserReplies[replyId];\n        }\n        return repliesSubset;\n    }\n}",
  "sourcePath": "/Users/chriscushman/smartcontract/contracts/Replies.sol",
  "compiler": {
    "name": "solc",
    "version": "0.8.10+commit.fc410830.Emscripten.clang"
  },
  "schemaVersion": "3.4.3",
  "updatedAt": "2021-11-29T13:27:10.058Z",
  "devdoc": {
    "kind": "dev",
    "methods": {
      "followUser(address)": {
        "details": "Follow a user",
        "params": {
          "adr": "address of the user to follow"
        }
      },
      "getFollowers(address)": {
        "details": "Fetch profiles that follow a user",
        "params": {
          "adr": "the address of the profile"
        },
        "returns": {
          "_0": "profiles that follow a user"
        }
      },
      "getFollowing(address)": {
        "details": "Fetch profiles a user is following",
        "params": {
          "adr": "the address of the profile"
        },
        "returns": {
          "_0": "profiles the user is following"
        }
      },
      "getIsUserFollowingMe(address)": {
        "details": "Fetch if a user is following 'me'",
        "params": {
          "adr": "the address of the profile"
        },
        "returns": {
          "_0": "true if user is following msg.sender, otherwise false"
        }
      },
      "getMyFollowers()": {
        "details": "Fetch profiles that follow 'me'",
        "returns": {
          "_0": "profiles that follow msg.sender"
        }
      },
      "getMyPosts(uint256,uint256)": {
        "details": "Get your own user posts",
        "params": {
          "limit": "the max number of posts to fetch",
          "offset": "the offset of the starting index of posts to fetch"
        },
        "returns": {
          "_0": "user posts by msg.sender, bounded by limit and offset"
        }
      },
      "getMyProfile()": {
        "details": "Fetch own profile",
        "returns": {
          "_0": "profile"
        }
      },
      "getMySmallFryFeed(uint256,uint256)": {
        "details": "Get your own small-fry feed, which is the list of posts made by small accounts you follow",
        "params": {
          "limit": "the max number of posts to fetch",
          "offset": "the offset of the starting index of posts to fetch"
        },
        "returns": {
          "_0": "small-fry feed for msg.sender, bounded by limit and offset"
        }
      },
      "getProfile(address)": {
        "details": "Fetch user's profile",
        "params": {
          "adr": "the address of the profile"
        },
        "returns": {
          "_0": "profile"
        }
      },
      "getRepliesFromUser(address,uint256,uint256)": {
        "details": "Get replies a user has made",
        "params": {
          "adr": "the address of the user",
          "limit": "the max number of replies to fetch",
          "offset": "the offset of the starting index of replies to fetch"
        },
        "returns": {
          "_0": "list of replies a user has made, bound by the limit and offset"
        }
      },
      "getRepliesToPost(uint256,uint256,uint256)": {
        "details": "Get replies to a post",
        "params": {
          "limit": "the max number of replies to fetch",
          "offset": "the offset of the starting index of replies to fetch",
          "postId": "the id of the post to be replied to"
        },
        "returns": {
          "_0": "list of replies to a post, bound by the limit and offset"
        }
      },
      "getUserPosts(address,uint256,uint256)": {
        "details": "Get a user's posts",
        "params": {
          "limit": "the max number of posts to fetch",
          "offset": "the offset of the starting index of posts to fetch"
        },
        "returns": {
          "_0": "user posts by adr, bounded by limit and offset"
        }
      },
      "postToMyFeed(string,string)": {
        "details": "Add a post -- only to your user posts list if you're a large account,  but to all your followers' small-fry feeds if you're a small-fry",
        "params": {
          "description": "the description of the post"
        }
      },
      "replyToPost(uint256,address,string)": {
        "details": "Reply to a post",
        "params": {
          "author": "the address of the author of the post to be replied to",
          "description": "the description of the reply",
          "postId": "the id of the post to be replied to"
        }
      },
      "replyToReply(uint256,address,string)": {
        "details": "Reply to a reply",
        "params": {
          "author": "the address of the author of the reply to be replied to",
          "description": "the description of the reply",
          "replyId": "the id of the reply to be replied to"
        }
      },
      "setBio(string)": {
        "details": "Set bio on own profile",
        "params": {
          "bio": "the bio to be set"
        }
      },
      "setFollowerCount(uint256)": {
        "details": "Set the follower count of own profile",
        "params": {
          "followerCount": "the follower count to be set"
        }
      },
      "setFollowerCountForAddress(address,uint256)": {
        "details": "Set the follower count of a profile",
        "params": {
          "adr": "the address of the profile",
          "followerCount": "the follower count to be set"
        }
      },
      "setFollowingCount(uint256)": {
        "details": "Set the following count of own profile",
        "params": {
          "followingCount": "the following count to be set"
        }
      },
      "setFollowingCountForAddress(address,uint256)": {
        "details": "Set the following count of a profile",
        "params": {
          "adr": "the address of the profile",
          "followingCount": "the following count to be set"
        }
      },
      "setName(string)": {
        "details": "Set name on own profile",
        "params": {
          "name": "the name to be set"
        }
      },
      "setProfileInfo(string,string,string)": {
        "details": "Set name, profile picture url, & bio on profile",
        "params": {
          "bio": "the bio to be set",
          "name": "the name to be set",
          "profilePictureUrl": "the profile picture url to be set"
        }
      },
      "setProfilePictureUrl(string)": {
        "details": "Set profile picture url on own profile",
        "params": {
          "profilePictureUrl": "the profile picture url to be set"
        }
      },
      "unfollowUser(address)": {
        "details": "Follow a user",
        "params": {
          "adr": "address of the user to unfollow"
        }
      }
    },
    "version": 1
  },
  "userdoc": {
    "kind": "user",
    "methods": {},
    "version": 1
  }
}