{
  "contractName": "SmallFry",
  "abi": [
    {
      "inputs": [
        {
          "internalType": "address",
          "name": "adr",
          "type": "address"
        }
      ],
      "name": "followUser",
      "outputs": [],
      "stateMutability": "nonpayable",
      "type": "function"
    },
    {
      "inputs": [
        {
          "internalType": "address",
          "name": "adr",
          "type": "address"
        }
      ],
      "name": "getFollowers",
      "outputs": [
        {
          "components": [
            {
              "internalType": "address",
              "name": "adr",
              "type": "address"
            },
            {
              "internalType": "string",
              "name": "name",
              "type": "string"
            },
            {
              "internalType": "string",
              "name": "profilePictureUrl",
              "type": "string"
            },
            {
              "internalType": "string",
              "name": "bio",
              "type": "string"
            },
            {
              "internalType": "uint256",
              "name": "followerCount",
              "type": "uint256"
            },
            {
              "internalType": "uint256",
              "name": "followingCount",
              "type": "uint256"
            },
            {
              "internalType": "bool",
              "name": "unfollowed",
              "type": "bool"
            },
            {
              "internalType": "bool",
              "name": "unfollowing",
              "type": "bool"
            }
          ],
          "internalType": "struct Profiles.Profile[]",
          "name": "",
          "type": "tuple[]"
        }
      ],
      "stateMutability": "view",
      "type": "function"
    },
    {
      "inputs": [
        {
          "internalType": "address",
          "name": "adr",
          "type": "address"
        }
      ],
      "name": "getFollowing",
      "outputs": [
        {
          "components": [
            {
              "internalType": "address",
              "name": "adr",
              "type": "address"
            },
            {
              "internalType": "string",
              "name": "name",
              "type": "string"
            },
            {
              "internalType": "string",
              "name": "profilePictureUrl",
              "type": "string"
            },
            {
              "internalType": "string",
              "name": "bio",
              "type": "string"
            },
            {
              "internalType": "uint256",
              "name": "followerCount",
              "type": "uint256"
            },
            {
              "internalType": "uint256",
              "name": "followingCount",
              "type": "uint256"
            },
            {
              "internalType": "bool",
              "name": "unfollowed",
              "type": "bool"
            },
            {
              "internalType": "bool",
              "name": "unfollowing",
              "type": "bool"
            }
          ],
          "internalType": "struct Profiles.Profile[]",
          "name": "",
          "type": "tuple[]"
        }
      ],
      "stateMutability": "view",
      "type": "function"
    },
    {
      "inputs": [
        {
          "internalType": "address",
          "name": "adr",
          "type": "address"
        }
      ],
      "name": "getIsUserFollowingMe",
      "outputs": [
        {
          "internalType": "bool",
          "name": "",
          "type": "bool"
        }
      ],
      "stateMutability": "view",
      "type": "function"
    },
    {
      "inputs": [],
      "name": "getMyFollowers",
      "outputs": [
        {
          "components": [
            {
              "internalType": "address",
              "name": "adr",
              "type": "address"
            },
            {
              "internalType": "string",
              "name": "name",
              "type": "string"
            },
            {
              "internalType": "string",
              "name": "profilePictureUrl",
              "type": "string"
            },
            {
              "internalType": "string",
              "name": "bio",
              "type": "string"
            },
            {
              "internalType": "uint256",
              "name": "followerCount",
              "type": "uint256"
            },
            {
              "internalType": "uint256",
              "name": "followingCount",
              "type": "uint256"
            },
            {
              "internalType": "bool",
              "name": "unfollowed",
              "type": "bool"
            },
            {
              "internalType": "bool",
              "name": "unfollowing",
              "type": "bool"
            }
          ],
          "internalType": "struct Profiles.Profile[]",
          "name": "",
          "type": "tuple[]"
        }
      ],
      "stateMutability": "view",
      "type": "function"
    },
    {
      "inputs": [
        {
          "internalType": "uint256",
          "name": "limit",
          "type": "uint256"
        },
        {
          "internalType": "uint256",
          "name": "offset",
          "type": "uint256"
        }
      ],
      "name": "getMyPosts",
      "outputs": [
        {
          "components": [
            {
              "internalType": "address",
              "name": "author",
              "type": "address"
            },
            {
              "internalType": "uint256",
              "name": "postId",
              "type": "uint256"
            },
            {
              "internalType": "string",
              "name": "title",
              "type": "string"
            },
            {
              "internalType": "string",
              "name": "description",
              "type": "string"
            },
            {
              "internalType": "string",
              "name": "externalLink",
              "type": "string"
            },
            {
              "internalType": "uint256",
              "name": "likeCount",
              "type": "uint256"
            },
            {
              "internalType": "uint256",
              "name": "replyCount",
              "type": "uint256"
            },
            {
              "internalType": "uint256",
              "name": "shareCount",
              "type": "uint256"
            },
            {
              "internalType": "bool",
              "name": "isReply",
              "type": "bool"
            }
          ],
          "internalType": "struct UserPosts.Post[]",
          "name": "",
          "type": "tuple[]"
        }
      ],
      "stateMutability": "view",
      "type": "function"
    },
    {
      "inputs": [],
      "name": "getMyProfile",
      "outputs": [
        {
          "components": [
            {
              "internalType": "address",
              "name": "adr",
              "type": "address"
            },
            {
              "internalType": "string",
              "name": "name",
              "type": "string"
            },
            {
              "internalType": "string",
              "name": "profilePictureUrl",
              "type": "string"
            },
            {
              "internalType": "string",
              "name": "bio",
              "type": "string"
            },
            {
              "internalType": "uint256",
              "name": "followerCount",
              "type": "uint256"
            },
            {
              "internalType": "uint256",
              "name": "followingCount",
              "type": "uint256"
            },
            {
              "internalType": "bool",
              "name": "unfollowed",
              "type": "bool"
            },
            {
              "internalType": "bool",
              "name": "unfollowing",
              "type": "bool"
            }
          ],
          "internalType": "struct Profiles.Profile",
          "name": "",
          "type": "tuple"
        }
      ],
      "stateMutability": "view",
      "type": "function"
    },
    {
      "inputs": [
        {
          "internalType": "uint256",
          "name": "limit",
          "type": "uint256"
        },
        {
          "internalType": "uint256",
          "name": "offset",
          "type": "uint256"
        }
      ],
      "name": "getMySmallFryFeed",
      "outputs": [
        {
          "components": [
            {
              "internalType": "address",
              "name": "author",
              "type": "address"
            },
            {
              "internalType": "uint256",
              "name": "postId",
              "type": "uint256"
            },
            {
              "internalType": "string",
              "name": "title",
              "type": "string"
            },
            {
              "internalType": "string",
              "name": "description",
              "type": "string"
            },
            {
              "internalType": "string",
              "name": "externalLink",
              "type": "string"
            },
            {
              "internalType": "uint256",
              "name": "likeCount",
              "type": "uint256"
            },
            {
              "internalType": "uint256",
              "name": "replyCount",
              "type": "uint256"
            },
            {
              "internalType": "uint256",
              "name": "shareCount",
              "type": "uint256"
            },
            {
              "internalType": "bool",
              "name": "isReply",
              "type": "bool"
            }
          ],
          "internalType": "struct UserPosts.Post[]",
          "name": "",
          "type": "tuple[]"
        }
      ],
      "stateMutability": "view",
      "type": "function"
    },
    {
      "inputs": [
        {
          "internalType": "uint256",
          "name": "postId",
          "type": "uint256"
        }
      ],
      "name": "getPostIsLiked",
      "outputs": [
        {
          "internalType": "bool",
          "name": "",
          "type": "bool"
        }
      ],
      "stateMutability": "view",
      "type": "function"
    },
    {
      "inputs": [
        {
          "internalType": "address",
          "name": "adr",
          "type": "address"
        }
      ],
      "name": "getProfile",
      "outputs": [
        {
          "components": [
            {
              "internalType": "address",
              "name": "adr",
              "type": "address"
            },
            {
              "internalType": "string",
              "name": "name",
              "type": "string"
            },
            {
              "internalType": "string",
              "name": "profilePictureUrl",
              "type": "string"
            },
            {
              "internalType": "string",
              "name": "bio",
              "type": "string"
            },
            {
              "internalType": "uint256",
              "name": "followerCount",
              "type": "uint256"
            },
            {
              "internalType": "uint256",
              "name": "followingCount",
              "type": "uint256"
            },
            {
              "internalType": "bool",
              "name": "unfollowed",
              "type": "bool"
            },
            {
              "internalType": "bool",
              "name": "unfollowing",
              "type": "bool"
            }
          ],
          "internalType": "struct Profiles.Profile",
          "name": "",
          "type": "tuple"
        }
      ],
      "stateMutability": "view",
      "type": "function"
    },
    {
      "inputs": [
        {
          "internalType": "address",
          "name": "adr",
          "type": "address"
        },
        {
          "internalType": "uint256",
          "name": "limit",
          "type": "uint256"
        },
        {
          "internalType": "uint256",
          "name": "offset",
          "type": "uint256"
        }
      ],
      "name": "getRepliesFromUser",
      "outputs": [
        {
          "components": [
            {
              "internalType": "address",
              "name": "author",
              "type": "address"
            },
            {
              "internalType": "uint256",
              "name": "postId",
              "type": "uint256"
            },
            {
              "internalType": "string",
              "name": "title",
              "type": "string"
            },
            {
              "internalType": "string",
              "name": "description",
              "type": "string"
            },
            {
              "internalType": "string",
              "name": "externalLink",
              "type": "string"
            },
            {
              "internalType": "uint256",
              "name": "likeCount",
              "type": "uint256"
            },
            {
              "internalType": "uint256",
              "name": "replyCount",
              "type": "uint256"
            },
            {
              "internalType": "uint256",
              "name": "shareCount",
              "type": "uint256"
            },
            {
              "internalType": "bool",
              "name": "isReply",
              "type": "bool"
            }
          ],
          "internalType": "struct UserPosts.Post[]",
          "name": "",
          "type": "tuple[]"
        }
      ],
      "stateMutability": "view",
      "type": "function"
    },
    {
      "inputs": [
        {
          "internalType": "uint256",
          "name": "postId",
          "type": "uint256"
        },
        {
          "internalType": "uint256",
          "name": "limit",
          "type": "uint256"
        },
        {
          "internalType": "uint256",
          "name": "offset",
          "type": "uint256"
        }
      ],
      "name": "getRepliesToPost",
      "outputs": [
        {
          "components": [
            {
              "internalType": "address",
              "name": "author",
              "type": "address"
            },
            {
              "internalType": "uint256",
              "name": "postId",
              "type": "uint256"
            },
            {
              "internalType": "string",
              "name": "title",
              "type": "string"
            },
            {
              "internalType": "string",
              "name": "description",
              "type": "string"
            },
            {
              "internalType": "string",
              "name": "externalLink",
              "type": "string"
            },
            {
              "internalType": "uint256",
              "name": "likeCount",
              "type": "uint256"
            },
            {
              "internalType": "uint256",
              "name": "replyCount",
              "type": "uint256"
            },
            {
              "internalType": "uint256",
              "name": "shareCount",
              "type": "uint256"
            },
            {
              "internalType": "bool",
              "name": "isReply",
              "type": "bool"
            }
          ],
          "internalType": "struct UserPosts.Post[]",
          "name": "",
          "type": "tuple[]"
        }
      ],
      "stateMutability": "view",
      "type": "function"
    },
    {
      "inputs": [
        {
          "internalType": "uint256",
          "name": "replyId",
          "type": "uint256"
        }
      ],
      "name": "getReplyIsLiked",
      "outputs": [
        {
          "internalType": "bool",
          "name": "",
          "type": "bool"
        }
      ],
      "stateMutability": "view",
      "type": "function"
    },
    {
      "inputs": [
        {
          "internalType": "address",
          "name": "adr",
          "type": "address"
        },
        {
          "internalType": "uint256",
          "name": "limit",
          "type": "uint256"
        },
        {
          "internalType": "uint256",
          "name": "offset",
          "type": "uint256"
        }
      ],
      "name": "getUserPosts",
      "outputs": [
        {
          "components": [
            {
              "internalType": "address",
              "name": "author",
              "type": "address"
            },
            {
              "internalType": "uint256",
              "name": "postId",
              "type": "uint256"
            },
            {
              "internalType": "string",
              "name": "title",
              "type": "string"
            },
            {
              "internalType": "string",
              "name": "description",
              "type": "string"
            },
            {
              "internalType": "string",
              "name": "externalLink",
              "type": "string"
            },
            {
              "internalType": "uint256",
              "name": "likeCount",
              "type": "uint256"
            },
            {
              "internalType": "uint256",
              "name": "replyCount",
              "type": "uint256"
            },
            {
              "internalType": "uint256",
              "name": "shareCount",
              "type": "uint256"
            },
            {
              "internalType": "bool",
              "name": "isReply",
              "type": "bool"
            }
          ],
          "internalType": "struct UserPosts.Post[]",
          "name": "",
          "type": "tuple[]"
        }
      ],
      "stateMutability": "view",
      "type": "function"
    },
    {
      "inputs": [
        {
          "internalType": "uint256",
          "name": "postId",
          "type": "uint256"
        }
      ],
      "name": "likePost",
      "outputs": [],
      "stateMutability": "nonpayable",
      "type": "function"
    },
    {
      "inputs": [
        {
          "internalType": "uint256",
          "name": "replyId",
          "type": "uint256"
        },
        {
          "internalType": "uint256",
          "name": "postId",
          "type": "uint256"
        },
        {
          "internalType": "address",
          "name": "adr",
          "type": "address"
        }
      ],
      "name": "likeReply",
      "outputs": [],
      "stateMutability": "nonpayable",
      "type": "function"
    },
    {
      "inputs": [
        {
          "internalType": "string",
          "name": "title",
          "type": "string"
        },
        {
          "internalType": "string",
          "name": "description",
          "type": "string"
        }
      ],
      "name": "postToMyFeed",
      "outputs": [],
      "stateMutability": "nonpayable",
      "type": "function"
    },
    {
      "inputs": [
        {
          "internalType": "uint256",
          "name": "postId",
          "type": "uint256"
        },
        {
          "internalType": "address",
          "name": "author",
          "type": "address"
        },
        {
          "internalType": "string",
          "name": "description",
          "type": "string"
        }
      ],
      "name": "replyToPost",
      "outputs": [],
      "stateMutability": "nonpayable",
      "type": "function"
    },
    {
      "inputs": [
        {
          "internalType": "uint256",
          "name": "replyId",
          "type": "uint256"
        },
        {
          "internalType": "address",
          "name": "author",
          "type": "address"
        },
        {
          "internalType": "string",
          "name": "description",
          "type": "string"
        }
      ],
      "name": "replyToReply",
      "outputs": [],
      "stateMutability": "nonpayable",
      "type": "function"
    },
    {
      "inputs": [
        {
          "internalType": "string",
          "name": "bio",
          "type": "string"
        }
      ],
      "name": "setBio",
      "outputs": [],
      "stateMutability": "nonpayable",
      "type": "function"
    },
    {
      "inputs": [
        {
          "internalType": "uint256",
          "name": "followerCount",
          "type": "uint256"
        }
      ],
      "name": "setFollowerCount",
      "outputs": [],
      "stateMutability": "nonpayable",
      "type": "function"
    },
    {
      "inputs": [
        {
          "internalType": "address",
          "name": "adr",
          "type": "address"
        },
        {
          "internalType": "uint256",
          "name": "followerCount",
          "type": "uint256"
        }
      ],
      "name": "setFollowerCountForAddress",
      "outputs": [],
      "stateMutability": "nonpayable",
      "type": "function"
    },
    {
      "inputs": [
        {
          "internalType": "uint256",
          "name": "followingCount",
          "type": "uint256"
        }
      ],
      "name": "setFollowingCount",
      "outputs": [],
      "stateMutability": "nonpayable",
      "type": "function"
    },
    {
      "inputs": [
        {
          "internalType": "address",
          "name": "adr",
          "type": "address"
        },
        {
          "internalType": "uint256",
          "name": "followingCount",
          "type": "uint256"
        }
      ],
      "name": "setFollowingCountForAddress",
      "outputs": [],
      "stateMutability": "nonpayable",
      "type": "function"
    },
    {
      "inputs": [
        {
          "internalType": "string",
          "name": "name",
          "type": "string"
        }
      ],
      "name": "setName",
      "outputs": [],
      "stateMutability": "nonpayable",
      "type": "function"
    },
    {
      "inputs": [
        {
          "internalType": "string",
          "name": "name",
          "type": "string"
        },
        {
          "internalType": "string",
          "name": "profilePictureUrl",
          "type": "string"
        },
        {
          "internalType": "string",
          "name": "bio",
          "type": "string"
        }
      ],
      "name": "setProfileInfo",
      "outputs": [],
      "stateMutability": "nonpayable",
      "type": "function"
    },
    {
      "inputs": [
        {
          "internalType": "string",
          "name": "profilePictureUrl",
          "type": "string"
        }
      ],
      "name": "setProfilePictureUrl",
      "outputs": [],
      "stateMutability": "nonpayable",
      "type": "function"
    },
    {
      "inputs": [
        {
          "internalType": "address",
          "name": "adr",
          "type": "address"
        }
      ],
      "name": "unfollowUser",
      "outputs": [],
      "stateMutability": "nonpayable",
      "type": "function"
    }
  ],
  "bytecode": "0x60806040526101f460065534801561001657600080fd5b506157e080620000276000396000f3fe608060405234801561001057600080fd5b50600436106101c45760003560e01c80639572d988116100f9578063c47f002711610097578063d8236dff11610071578063d8236dff14610535578063f107cfcb14610565578063fb0c92f114610581578063fb7e06d81461059d576101c4565b8063c47f0027146104b9578063cb2f4a0b146104d5578063d05b4b6014610505576101c4565b8063a70806f7116100d3578063a70806f71461040d578063a8c91fde14610429578063c2fe202214610459578063c3fd823614610489576101c4565b80639572d9881461037d578063a02f4f4d146103ad578063a5d4ccbc146103dd576101c4565b80636633330b116101665780637cd38b06116101405780637cd38b061461030d5780638e11d6ff14610329578063906eb1241461034557806391fc36ee14610361576101c4565b80636633330b146102b7578063725009d3146102d557806375c96ba5146102f1576101c4565b80634773a699116101a25780634773a699146102475780634dd9c9681461026357806357d2bcb81461027f5780635ce460a51461029b576101c4565b80630f53a470146101c957806321527e50146101f95780633a24cb7b14610217575b600080fd5b6101e360048036038101906101de9190614ba4565b6105b9565b6040516101f09190614d6b565b60405180910390f35b610201610868565b60405161020e9190614d6b565b60405180910390f35b610231600480360381019061022c9190614db9565b610b15565b60405161023e9190614fa1565b60405180910390f35b610261600480360381019061025c91906150f8565b610f11565b005b61027d60048036038101906102789190615167565b611367565b005b610299600480360381019061029491906150f8565b6113b1565b005b6102b560048036038101906102b09190615167565b611807565b005b6102bf611851565b6040516102cc9190615327565b60405180910390f35b6102ef60048036038101906102ea9190615349565b611b44565b005b61030b60048036038101906103069190615376565b611cf1565b005b61032760048036038101906103229190615349565b611d25565b005b610343600480360381019061033e91906153ee565b611d6e565b005b61035f600480360381019061035a9190615495565b611e75565b005b61037b60048036038101906103769190615349565b611ece565b005b61039760048036038101906103929190615349565b611f17565b6040516103a491906154ed565b60405180910390f35b6103c760048036038101906103c29190615508565b611f7e565b6040516103d49190614fa1565b60405180910390f35b6103f760048036038101906103f29190614ba4565b612379565b60405161040491906154ed565b60405180910390f35b61042760048036038101906104229190614ba4565b612512565b005b610443600480360381019061043e9190615548565b6130ad565b6040516104509190614fa1565b60405180910390f35b610473600480360381019061046e9190614ba4565b613451565b6040516104809190615327565b60405180910390f35b6104a3600480360381019061049e9190615508565b613746565b6040516104b09190614fa1565b60405180910390f35b6104d360048036038101906104ce9190615495565b61375b565b005b6104ef60048036038101906104ea9190615349565b6137b4565b6040516104fc91906154ed565b60405180910390f35b61051f600480360381019061051a9190614db9565b61381b565b60405161052c9190614fa1565b60405180910390f35b61054f600480360381019061054a9190614ba4565b613c17565b60405161055c9190615327565b60405180910390f35b61057f600480360381019061057a9190614ba4565b613f0c565b005b61059b6004803603810190610596919061559b565b614275565b005b6105b760048036038101906105b29190615495565b61449e565b005b6105c16149cc565b6000808373ffffffffffffffffffffffffffffffffffffffff1673ffffffffffffffffffffffffffffffffffffffff168152602001908152602001600020604051806101000160405290816000820160009054906101000a900473ffffffffffffffffffffffffffffffffffffffff1673ffffffffffffffffffffffffffffffffffffffff1673ffffffffffffffffffffffffffffffffffffffff1681526020016001820180546106719061561d565b80601f016020809104026020016040519081016040528092919081815260200182805461069d9061561d565b80156106ea5780601f106106bf576101008083540402835291602001916106ea565b820191906000526020600020905b8154815290600101906020018083116106cd57829003601f168201915b505050505081526020016002820180546107039061561d565b80601f016020809104026020016040519081016040528092919081815260200182805461072f9061561d565b801561077c5780601f106107515761010080835404028352916020019161077c565b820191906000526020600020905b81548152906001019060200180831161075f57829003601f168201915b505050505081526020016003820180546107959061561d565b80601f01602080910402602001604051908101604052809291908181526020018280546107c19061561d565b801561080e5780601f106107e35761010080835404028352916020019161080e565b820191906000526020600020905b8154815290600101906020018083116107f157829003601f168201915b5050505050815260200160048201548152602001600582015481526020016006820160009054906101000a900460ff161515151581526020016006820160019054906101000a900460ff1615151515815250509050919050565b6108706149cc565b6000803373ffffffffffffffffffffffffffffffffffffffff1673ffffffffffffffffffffffffffffffffffffffff168152602001908152602001600020604051806101000160405290816000820160009054906101000a900473ffffffffffffffffffffffffffffffffffffffff1673ffffffffffffffffffffffffffffffffffffffff1673ffffffffffffffffffffffffffffffffffffffff1681526020016001820180546109209061561d565b80601f016020809104026020016040519081016040528092919081815260200182805461094c9061561d565b80156109995780601f1061096e57610100808354040283529160200191610999565b820191906000526020600020905b81548152906001019060200180831161097c57829003601f168201915b505050505081526020016002820180546109b29061561d565b80601f01602080910402602001604051908101604052809291908181526020018280546109de9061561d565b8015610a2b5780601f10610a0057610100808354040283529160200191610a2b565b820191906000526020600020905b815481529060010190602001808311610a0e57829003601f168201915b50505050508152602001600382018054610a449061561d565b80601f0160208091040260200160405190810160405280929190818152602001828054610a709061561d565b8015610abd5780601f10610a9257610100808354040283529160200191610abd565b820191906000526020600020905b815481529060010190602001808311610aa057829003601f168201915b5050505050815260200160048201548152602001600582015481526020016006820160009054906101000a900460ff161515151581526020016006820160019054906101000a900460ff161515151581525050905090565b606060008367ffffffffffffffff811115610b3357610b32614fcd565b5b604051908082528060200260200182016040528015610b6c57816020015b610b59614a2b565b815260200190600190039081610b515790505b5090506000600860008773ffffffffffffffffffffffffffffffffffffffff1673ffffffffffffffffffffffffffffffffffffffff16815260200190815260200160002090506000600760008873ffffffffffffffffffffffffffffffffffffffff1673ffffffffffffffffffffffffffffffffffffffff168152602001908152602001600020905060008180549050905060005b8781108015610c1a5750818782610c18919061567e565b105b15610f025760008388600184610c30919061567e565b85610c3b91906156d4565b610c4591906156d4565b81548110610c5657610c55615708565b5b90600052602060002001549050846000828152602001908152602001600020604051806101200160405290816000820160009054906101000a900473ffffffffffffffffffffffffffffffffffffffff1673ffffffffffffffffffffffffffffffffffffffff1673ffffffffffffffffffffffffffffffffffffffff16815260200160018201548152602001600282018054610cf19061561d565b80601f0160208091040260200160405190810160405280929190818152602001828054610d1d9061561d565b8015610d6a5780601f10610d3f57610100808354040283529160200191610d6a565b820191906000526020600020905b815481529060010190602001808311610d4d57829003601f168201915b50505050508152602001600382018054610d839061561d565b80601f0160208091040260200160405190810160405280929190818152602001828054610daf9061561d565b8015610dfc5780601f10610dd157610100808354040283529160200191610dfc565b820191906000526020600020905b815481529060010190602001808311610ddf57829003601f168201915b50505050508152602001600482018054610e159061561d565b80601f0160208091040260200160405190810160405280929190818152602001828054610e419061561d565b8015610e8e5780601f10610e6357610100808354040283529160200191610e8e565b820191906000526020600020905b815481529060010190602001808311610e7157829003601f168201915b505050505081526020016005820154815260200160068201548152602001600782015481526020016008820160009054906101000a900460ff161515151581525050868381518110610ee357610ee2615708565b5b6020026020010181905250508080610efa90615737565b915050610c01565b50839450505050509392505050565b6000600860008473ffffffffffffffffffffffffffffffffffffffff1673ffffffffffffffffffffffffffffffffffffffff16815260200190815260200160002060008581526020019081526020016000209050600081600101541415610f785750611362565b6000600143610f8791906156d4565b4060001c905060006040518061012001604052803373ffffffffffffffffffffffffffffffffffffffff16815260200183815260200160405180602001604052806000815250815260200185815260200160405180602001604052806000815250815260200160008152602001600081526020016000815260200160011515815250905080600c60003373ffffffffffffffffffffffffffffffffffffffff1673ffffffffffffffffffffffffffffffffffffffff168152602001908152602001600020600084815260200190815260200160002060008201518160000160006101000a81548173ffffffffffffffffffffffffffffffffffffffff021916908373ffffffffffffffffffffffffffffffffffffffff1602179055506020820151816001015560408201518160020190805190602001906110c9929190614a8f565b5060608201518160030190805190602001906110e6929190614a8f565b506080820151816004019080519060200190611103929190614a8f565b5060a0820151816005015560c0820151816006015560e082015181600701556101008201518160080160006101000a81548160ff021916908315150217905550905050600b60003373ffffffffffffffffffffffffffffffffffffffff1673ffffffffffffffffffffffffffffffffffffffff168152602001908152602001600020829080600181540180825580915050600190039060005260206000200160009091909190915055600d600087815260200190815260200160002082908060018154018082558091505060019003906000526020600020016000909190919091505580600e6000888152602001908152602001600020600084815260200190815260200160002060008201518160000160006101000a81548173ffffffffffffffffffffffffffffffffffffffff021916908373ffffffffffffffffffffffffffffffffffffffff160217905550602082015181600101556040820151816002019080519060200190611278929190614a8f565b506060820151816003019080519060200190611295929190614a8f565b5060808201518160040190805190602001906112b2929190614a8f565b5060a0820151816005015560c0820151816006015560e082015181600701556101008201518160080160006101000a81548160ff021916908315150217905550905050600860008673ffffffffffffffffffffffffffffffffffffffff1673ffffffffffffffffffffffffffffffffffffffff1681526020019081526020016000206000878152602001908152602001600020600601600081548092919061135990615737565b91905055505050505b505050565b806000808473ffffffffffffffffffffffffffffffffffffffff1673ffffffffffffffffffffffffffffffffffffffff168152602001908152602001600020600401819055505050565b6000600c60008473ffffffffffffffffffffffffffffffffffffffff1673ffffffffffffffffffffffffffffffffffffffff168152602001908152602001600020600085815260200190815260200160002090506000816001015414156114185750611802565b600060014361142791906156d4565b4060001c905060006040518061012001604052803373ffffffffffffffffffffffffffffffffffffffff16815260200183815260200160405180602001604052806000815250815260200185815260200160405180602001604052806000815250815260200160008152602001600081526020016000815260200160011515815250905080600c60003373ffffffffffffffffffffffffffffffffffffffff1673ffffffffffffffffffffffffffffffffffffffff168152602001908152602001600020600084815260200190815260200160002060008201518160000160006101000a81548173ffffffffffffffffffffffffffffffffffffffff021916908373ffffffffffffffffffffffffffffffffffffffff160217905550602082015181600101556040820151816002019080519060200190611569929190614a8f565b506060820151816003019080519060200190611586929190614a8f565b5060808201518160040190805190602001906115a3929190614a8f565b5060a0820151816005015560c0820151816006015560e082015181600701556101008201518160080160006101000a81548160ff021916908315150217905550905050600b60003373ffffffffffffffffffffffffffffffffffffffff1673ffffffffffffffffffffffffffffffffffffffff168152602001908152602001600020829080600181540180825580915050600190039060005260206000200160009091909190915055600d600087815260200190815260200160002082908060018154018082558091505060019003906000526020600020016000909190919091505580600e6000888152602001908152602001600020600084815260200190815260200160002060008201518160000160006101000a81548173ffffffffffffffffffffffffffffffffffffffff021916908373ffffffffffffffffffffffffffffffffffffffff160217905550602082015181600101556040820151816002019080519060200190611718929190614a8f565b506060820151816003019080519060200190611735929190614a8f565b506080820151816004019080519060200190611752929190614a8f565b5060a0820151816005015560c0820151816006015560e082015181600701556101008201518160080160006101000a81548160ff021916908315150217905550905050600c60008673ffffffffffffffffffffffffffffffffffffffff1673ffffffffffffffffffffffffffffffffffffffff168152602001908152602001600020600087815260200190815260200160002060060160008154809291906117f990615737565b91905055505050505b505050565b806000808473ffffffffffffffffffffffffffffffffffffffff1673ffffffffffffffffffffffffffffffffffffffff168152602001908152602001600020600501819055505050565b6060600360003373ffffffffffffffffffffffffffffffffffffffff1673ffffffffffffffffffffffffffffffffffffffff168152602001908152602001600020805480602002602001604051908101604052809291908181526020016000905b82821015611b3b5783829060005260206000209060070201604051806101000160405290816000820160009054906101000a900473ffffffffffffffffffffffffffffffffffffffff1673ffffffffffffffffffffffffffffffffffffffff1673ffffffffffffffffffffffffffffffffffffffff16815260200160018201805461193c9061561d565b80601f01602080910402602001604051908101604052809291908181526020018280546119689061561d565b80156119b55780601f1061198a576101008083540402835291602001916119b5565b820191906000526020600020905b81548152906001019060200180831161199857829003601f168201915b505050505081526020016002820180546119ce9061561d565b80601f01602080910402602001604051908101604052809291908181526020018280546119fa9061561d565b8015611a475780601f10611a1c57610100808354040283529160200191611a47565b820191906000526020600020905b815481529060010190602001808311611a2a57829003601f168201915b50505050508152602001600382018054611a609061561d565b80601f0160208091040260200160405190810160405280929190818152602001828054611a8c9061561d565b8015611ad95780601f10611aae57610100808354040283529160200191611ad9565b820191906000526020600020905b815481529060010190602001808311611abc57829003601f168201915b5050505050815260200160048201548152602001600582015481526020016006820160009054906101000a900460ff161515151581526020016006820160019054906101000a900460ff161515151581525050815260200190600101906118b2565b50505050905090565b6000600f60003373ffffffffffffffffffffffffffffffffffffffff1673ffffffffffffffffffffffffffffffffffffffff168152602001908152602001600020600083815260200190815260200160002060009054906101000a900460ff1615905080600f60003373ffffffffffffffffffffffffffffffffffffffff1673ffffffffffffffffffffffffffffffffffffffff168152602001908152602001600020600084815260200190815260200160002060006101000a81548160ff0219169083151502179055508015611c8357600860003373ffffffffffffffffffffffffffffffffffffffff1673ffffffffffffffffffffffffffffffffffffffff16815260200190815260200160002060008381526020019081526020016000206005016000815480929190611c7990615737565b9190505550611ced565b600860003373ffffffffffffffffffffffffffffffffffffffff1673ffffffffffffffffffffffffffffffffffffffff16815260200190815260200160002060008381526020019081526020016000206005016000815480929190611ce790615780565b91905055505b5050565b611cfb82826144f7565b6000611d05610868565b905060065481608001511015611d2057611d1f8383614722565b5b505050565b806000803373ffffffffffffffffffffffffffffffffffffffff1673ffffffffffffffffffffffffffffffffffffffff1681526020019081526020016000206005018190555050565b826000803373ffffffffffffffffffffffffffffffffffffffff1673ffffffffffffffffffffffffffffffffffffffff1681526020019081526020016000206001019080519060200190611dc3929190614a8f565b50816000803373ffffffffffffffffffffffffffffffffffffffff1673ffffffffffffffffffffffffffffffffffffffff1681526020019081526020016000206002019080519060200190611e19929190614a8f565b50806000803373ffffffffffffffffffffffffffffffffffffffff1673ffffffffffffffffffffffffffffffffffffffff1681526020019081526020016000206003019080519060200190611e6f929190614a8f565b50505050565b806000803373ffffffffffffffffffffffffffffffffffffffff1673ffffffffffffffffffffffffffffffffffffffff1681526020019081526020016000206002019080519060200190611eca929190614a8f565b5050565b806000803373ffffffffffffffffffffffffffffffffffffffff1673ffffffffffffffffffffffffffffffffffffffff1681526020019081526020016000206004018190555050565b6000601060003373ffffffffffffffffffffffffffffffffffffffff1673ffffffffffffffffffffffffffffffffffffffff168152602001908152602001600020600083815260200190815260200160002060009054906101000a900460ff169050919050565b606060008367ffffffffffffffff811115611f9c57611f9b614fcd565b5b604051908082528060200260200182016040528015611fd557816020015b611fc2614a2b565b815260200190600190039081611fba5790505b5090506000600a60003373ffffffffffffffffffffffffffffffffffffffff1673ffffffffffffffffffffffffffffffffffffffff16815260200190815260200160002090506000600960003373ffffffffffffffffffffffffffffffffffffffff1673ffffffffffffffffffffffffffffffffffffffff168152602001908152602001600020905060008180549050905060005b87811080156120835750818782612081919061567e565b105b1561236b5760008388600184612099919061567e565b856120a491906156d4565b6120ae91906156d4565b815481106120bf576120be615708565b5b90600052602060002001549050846000828152602001908152602001600020604051806101200160405290816000820160009054906101000a900473ffffffffffffffffffffffffffffffffffffffff1673ffffffffffffffffffffffffffffffffffffffff1673ffffffffffffffffffffffffffffffffffffffff1681526020016001820154815260200160028201805461215a9061561d565b80601f01602080910402602001604051908101604052809291908181526020018280546121869061561d565b80156121d35780601f106121a8576101008083540402835291602001916121d3565b820191906000526020600020905b8154815290600101906020018083116121b657829003601f168201915b505050505081526020016003820180546121ec9061561d565b80601f01602080910402602001604051908101604052809291908181526020018280546122189061561d565b80156122655780601f1061223a57610100808354040283529160200191612265565b820191906000526020600020905b81548152906001019060200180831161224857829003601f168201915b5050505050815260200160048201805461227e9061561d565b80601f01602080910402602001604051908101604052809291908181526020018280546122aa9061561d565b80156122f75780601f106122cc576101008083540402835291602001916122f7565b820191906000526020600020905b8154815290600101906020018083116122da57829003601f168201915b505050505081526020016005820154815260200160068201548152602001600782015481526020016008820160009054906101000a900460ff16151515158152505086838151811061234c5761234b615708565b5b602002602001018190525050808061236390615737565b91505061206a565b508394505050505092915050565b600080600160008473ffffffffffffffffffffffffffffffffffffffff1673ffffffffffffffffffffffffffffffffffffffff16815260200190815260200160002060003373ffffffffffffffffffffffffffffffffffffffff1673ffffffffffffffffffffffffffffffffffffffff16815260200190815260200160002060009054906101000a900460ff1690506000600260008573ffffffffffffffffffffffffffffffffffffffff1673ffffffffffffffffffffffffffffffffffffffff16815260200190815260200160002060003373ffffffffffffffffffffffffffffffffffffffff1673ffffffffffffffffffffffffffffffffffffffff1681526020019081526020016000205490506000600360008673ffffffffffffffffffffffffffffffffffffffff1673ffffffffffffffffffffffffffffffffffffffff16815260200190815260200160002082815481106124dc576124db615708565b5b9060005260206000209060070201905082801561250857508060060160009054906101000a900460ff16155b9350505050919050565b6000600160003373ffffffffffffffffffffffffffffffffffffffff1673ffffffffffffffffffffffffffffffffffffffff16815260200190815260200160002060008373ffffffffffffffffffffffffffffffffffffffff1673ffffffffffffffffffffffffffffffffffffffff16815260200190815260200160002060009054906101000a900460ff1690506000600260008473ffffffffffffffffffffffffffffffffffffffff1673ffffffffffffffffffffffffffffffffffffffff16815260200190815260200160002060003373ffffffffffffffffffffffffffffffffffffffff1673ffffffffffffffffffffffffffffffffffffffff1681526020019081526020016000205490506000600360008573ffffffffffffffffffffffffffffffffffffffff1673ffffffffffffffffffffffffffffffffffffffff168152602001908152602001600020905061266c6149cc565b60008280549050146128fe5781838154811061268b5761268a615708565b5b9060005260206000209060070201604051806101000160405290816000820160009054906101000a900473ffffffffffffffffffffffffffffffffffffffff1673ffffffffffffffffffffffffffffffffffffffff1673ffffffffffffffffffffffffffffffffffffffff16815260200160018201805461270b9061561d565b80601f01602080910402602001604051908101604052809291908181526020018280546127379061561d565b80156127845780601f1061275957610100808354040283529160200191612784565b820191906000526020600020905b81548152906001019060200180831161276757829003601f168201915b5050505050815260200160028201805461279d9061561d565b80601f01602080910402602001604051908101604052809291908181526020018280546127c99061561d565b80156128165780601f106127eb57610100808354040283529160200191612816565b820191906000526020600020905b8154815290600101906020018083116127f957829003601f168201915b5050505050815260200160038201805461282f9061561d565b80601f016020809104026020016040519081016040528092919081815260200182805461285b9061561d565b80156128a85780601f1061287d576101008083540402835291602001916128a8565b820191906000526020600020905b81548152906001019060200180831161288b57829003601f168201915b5050505050815260200160048201548152602001600582015481526020016006820160009054906101000a900460ff161515151581526020016006820160019054906101000a900460ff16151515158152505090505b6129066149cc565b61290e6149cc565b85801561291c57508260c001515b15612aed57612929610868565b9150612934876105b9565b90506000600460003373ffffffffffffffffffffffffffffffffffffffff1673ffffffffffffffffffffffffffffffffffffffff16815260200190815260200160002060008973ffffffffffffffffffffffffffffffffffffffff1673ffffffffffffffffffffffffffffffffffffffff1681526020019081526020016000205490506000600360008a73ffffffffffffffffffffffffffffffffffffffff1673ffffffffffffffffffffffffffffffffffffffff1681526020019081526020016000208781548110612a0a57612a09615708565b5b906000526020600020906007020160060160006101000a81548160ff0219169083151502179055506000600560003373ffffffffffffffffffffffffffffffffffffffff1673ffffffffffffffffffffffffffffffffffffffff1681526020019081526020016000208281548110612a8557612a84615708565b5b906000526020600020906007020160060160016101000a81548160ff021916908315150217905550612ac78860018460800151612ac2919061567e565b611367565b612ae13360018560a00151612adc919061567e565b611807565b505050505050506130aa565b8515612afe575050505050506130aa565b612b06610868565b9150612b11876105b9565b905033826000019073ffffffffffffffffffffffffffffffffffffffff16908173ffffffffffffffffffffffffffffffffffffffff168152505086816000019073ffffffffffffffffffffffffffffffffffffffff16908173ffffffffffffffffffffffffffffffffffffffff1681525050600360008873ffffffffffffffffffffffffffffffffffffffff1673ffffffffffffffffffffffffffffffffffffffff16815260200190815260200160002082908060018154018082558091505060019003906000526020600020906007020160009091909190915060008201518160000160006101000a81548173ffffffffffffffffffffffffffffffffffffffff021916908373ffffffffffffffffffffffffffffffffffffffff1602179055506020820151816001019080519060200190612c4f929190614a8f565b506040820151816002019080519060200190612c6c929190614a8f565b506060820151816003019080519060200190612c89929190614a8f565b506080820151816004015560a0820151816005015560c08201518160060160006101000a81548160ff02191690831515021790555060e08201518160060160016101000a81548160ff0219169083151502179055505050600560003373ffffffffffffffffffffffffffffffffffffffff1673ffffffffffffffffffffffffffffffffffffffff16815260200190815260200160002081908060018154018082558091505060019003906000526020600020906007020160009091909190915060008201518160000160006101000a81548173ffffffffffffffffffffffffffffffffffffffff021916908373ffffffffffffffffffffffffffffffffffffffff1602179055506020820151816001019080519060200190612dac929190614a8f565b506040820151816002019080519060200190612dc9929190614a8f565b506060820151816003019080519060200190612de6929190614a8f565b506080820151816004015560a0820151816005015560c08201518160060160006101000a81548160ff02191690831515021790555060e08201518160060160016101000a81548160ff02191690831515021790555050506001600360008973ffffffffffffffffffffffffffffffffffffffff1673ffffffffffffffffffffffffffffffffffffffff16815260200190815260200160002080549050612e8c91906156d4565b600260008973ffffffffffffffffffffffffffffffffffffffff1673ffffffffffffffffffffffffffffffffffffffff16815260200190815260200160002060003373ffffffffffffffffffffffffffffffffffffffff1673ffffffffffffffffffffffffffffffffffffffff168152602001908152602001600020819055506001600560003373ffffffffffffffffffffffffffffffffffffffff1673ffffffffffffffffffffffffffffffffffffffff16815260200190815260200160002080549050612f5b91906156d4565b600460003373ffffffffffffffffffffffffffffffffffffffff1673ffffffffffffffffffffffffffffffffffffffff16815260200190815260200160002060008973ffffffffffffffffffffffffffffffffffffffff1673ffffffffffffffffffffffffffffffffffffffff1681526020019081526020016000208190555060018060003373ffffffffffffffffffffffffffffffffffffffff1673ffffffffffffffffffffffffffffffffffffffff16815260200190815260200160002060008973ffffffffffffffffffffffffffffffffffffffff1673ffffffffffffffffffffffffffffffffffffffff16815260200190815260200160002060006101000a81548160ff0219169083151502179055506130898760018360800151613084919061567e565b611367565b6130a33360018460a0015161309e919061567e565b611807565b5050505050505b50565b606060008367ffffffffffffffff8111156130cb576130ca614fcd565b5b60405190808252806020026020018201604052801561310457816020015b6130f1614a2b565b8152602001906001900390816130e95790505b5090506000600e600087815260200190815260200160002090506000600d6000888152602001908152602001600020905060008180549050905060005b878110801561315a5750818782613158919061567e565b105b156134425760008388600184613170919061567e565b8561317b91906156d4565b61318591906156d4565b8154811061319657613195615708565b5b90600052602060002001549050846000828152602001908152602001600020604051806101200160405290816000820160009054906101000a900473ffffffffffffffffffffffffffffffffffffffff1673ffffffffffffffffffffffffffffffffffffffff1673ffffffffffffffffffffffffffffffffffffffff168152602001600182015481526020016002820180546132319061561d565b80601f016020809104026020016040519081016040528092919081815260200182805461325d9061561d565b80156132aa5780601f1061327f576101008083540402835291602001916132aa565b820191906000526020600020905b81548152906001019060200180831161328d57829003601f168201915b505050505081526020016003820180546132c39061561d565b80601f01602080910402602001604051908101604052809291908181526020018280546132ef9061561d565b801561333c5780601f106133115761010080835404028352916020019161333c565b820191906000526020600020905b81548152906001019060200180831161331f57829003601f168201915b505050505081526020016004820180546133559061561d565b80601f01602080910402602001604051908101604052809291908181526020018280546133819061561d565b80156133ce5780601f106133a3576101008083540402835291602001916133ce565b820191906000526020600020905b8154815290600101906020018083116133b157829003601f168201915b505050505081526020016005820154815260200160068201548152602001600782015481526020016008820160009054906101000a900460ff16151515158152505086838151811061342357613422615708565b5b602002602001018190525050808061343a90615737565b915050613141565b50839450505050509392505050565b6060600360008373ffffffffffffffffffffffffffffffffffffffff1673ffffffffffffffffffffffffffffffffffffffff168152602001908152602001600020805480602002602001604051908101604052809291908181526020016000905b8282101561373b5783829060005260206000209060070201604051806101000160405290816000820160009054906101000a900473ffffffffffffffffffffffffffffffffffffffff1673ffffffffffffffffffffffffffffffffffffffff1673ffffffffffffffffffffffffffffffffffffffff16815260200160018201805461353c9061561d565b80601f01602080910402602001604051908101604052809291908181526020018280546135689061561d565b80156135b55780601f1061358a576101008083540402835291602001916135b5565b820191906000526020600020905b81548152906001019060200180831161359857829003601f168201915b505050505081526020016002820180546135ce9061561d565b80601f01602080910402602001604051908101604052809291908181526020018280546135fa9061561d565b80156136475780601f1061361c57610100808354040283529160200191613647565b820191906000526020600020905b81548152906001019060200180831161362a57829003601f168201915b505050505081526020016003820180546136609061561d565b80601f016020809104026020016040519081016040528092919081815260200182805461368c9061561d565b80156136d95780601f106136ae576101008083540402835291602001916136d9565b820191906000526020600020905b8154815290600101906020018083116136bc57829003601f168201915b5050505050815260200160048201548152602001600582015481526020016006820160009054906101000a900460ff161515151581526020016006820160019054906101000a900460ff161515151581525050815260200190600101906134b2565b505050509050919050565b6060613753338484610b15565b905092915050565b806000803373ffffffffffffffffffffffffffffffffffffffff1673ffffffffffffffffffffffffffffffffffffffff16815260200190815260200160002060010190805190602001906137b0929190614a8f565b5050565b6000600f60003373ffffffffffffffffffffffffffffffffffffffff1673ffffffffffffffffffffffffffffffffffffffff168152602001908152602001600020600083815260200190815260200160002060009054906101000a900460ff169050919050565b606060008367ffffffffffffffff81111561383957613838614fcd565b5b60405190808252806020026020018201604052801561387257816020015b61385f614a2b565b8152602001906001900390816138575790505b5090506000600c60008773ffffffffffffffffffffffffffffffffffffffff1673ffffffffffffffffffffffffffffffffffffffff16815260200190815260200160002090506000600b60008873ffffffffffffffffffffffffffffffffffffffff1673ffffffffffffffffffffffffffffffffffffffff168152602001908152602001600020905060008180549050905060005b8781108015613920575081878261391e919061567e565b105b15613c085760008388600184613936919061567e565b8561394191906156d4565b61394b91906156d4565b8154811061395c5761395b615708565b5b90600052602060002001549050846000828152602001908152602001600020604051806101200160405290816000820160009054906101000a900473ffffffffffffffffffffffffffffffffffffffff1673ffffffffffffffffffffffffffffffffffffffff1673ffffffffffffffffffffffffffffffffffffffff168152602001600182015481526020016002820180546139f79061561d565b80601f0160208091040260200160405190810160405280929190818152602001828054613a239061561d565b8015613a705780601f10613a4557610100808354040283529160200191613a70565b820191906000526020600020905b815481529060010190602001808311613a5357829003601f168201915b50505050508152602001600382018054613a899061561d565b80601f0160208091040260200160405190810160405280929190818152602001828054613ab59061561d565b8015613b025780601f10613ad757610100808354040283529160200191613b02565b820191906000526020600020905b815481529060010190602001808311613ae557829003601f168201915b50505050508152602001600482018054613b1b9061561d565b80601f0160208091040260200160405190810160405280929190818152602001828054613b479061561d565b8015613b945780601f10613b6957610100808354040283529160200191613b94565b820191906000526020600020905b815481529060010190602001808311613b7757829003601f168201915b505050505081526020016005820154815260200160068201548152602001600782015481526020016008820160009054906101000a900460ff161515151581525050868381518110613be957613be8615708565b5b6020026020010181905250508080613c0090615737565b915050613907565b50839450505050509392505050565b6060600560008373ffffffffffffffffffffffffffffffffffffffff1673ffffffffffffffffffffffffffffffffffffffff168152602001908152602001600020805480602002602001604051908101604052809291908181526020016000905b82821015613f015783829060005260206000209060070201604051806101000160405290816000820160009054906101000a900473ffffffffffffffffffffffffffffffffffffffff1673ffffffffffffffffffffffffffffffffffffffff1673ffffffffffffffffffffffffffffffffffffffff168152602001600182018054613d029061561d565b80601f0160208091040260200160405190810160405280929190818152602001828054613d2e9061561d565b8015613d7b5780601f10613d5057610100808354040283529160200191613d7b565b820191906000526020600020905b815481529060010190602001808311613d5e57829003601f168201915b50505050508152602001600282018054613d949061561d565b80601f0160208091040260200160405190810160405280929190818152602001828054613dc09061561d565b8015613e0d5780601f10613de257610100808354040283529160200191613e0d565b820191906000526020600020905b815481529060010190602001808311613df057829003601f168201915b50505050508152602001600382018054613e269061561d565b80601f0160208091040260200160405190810160405280929190818152602001828054613e529061561d565b8015613e9f5780601f10613e7457610100808354040283529160200191613e9f565b820191906000526020600020905b815481529060010190602001808311613e8257829003601f168201915b5050505050815260200160048201548152602001600582015481526020016006820160009054906101000a900460ff161515151581526020016006820160019054906101000a900460ff16151515158152505081526020019060010190613c78565b505050509050919050565b6000600160003373ffffffffffffffffffffffffffffffffffffffff1673ffffffffffffffffffffffffffffffffffffffff16815260200190815260200160002060008373ffffffffffffffffffffffffffffffffffffffff1673ffffffffffffffffffffffffffffffffffffffff16815260200190815260200160002060009054906101000a900460ff1690506000600260008473ffffffffffffffffffffffffffffffffffffffff1673ffffffffffffffffffffffffffffffffffffffff16815260200190815260200160002060003373ffffffffffffffffffffffffffffffffffffffff1673ffffffffffffffffffffffffffffffffffffffff1681526020019081526020016000205490506000600360008573ffffffffffffffffffffffffffffffffffffffff1673ffffffffffffffffffffffffffffffffffffffff168152602001908152602001600020828154811061406e5761406d615708565b5b9060005260206000209060070201905082801561409a57508060060160009054906101000a900460ff16155b1561426e5760006140a9610868565b905060006140b6866105b9565b90506000600460003373ffffffffffffffffffffffffffffffffffffffff1673ffffffffffffffffffffffffffffffffffffffff16815260200190815260200160002060008873ffffffffffffffffffffffffffffffffffffffff1673ffffffffffffffffffffffffffffffffffffffff1681526020019081526020016000205490506001600360008973ffffffffffffffffffffffffffffffffffffffff1673ffffffffffffffffffffffffffffffffffffffff168152602001908152602001600020868154811061418c5761418b615708565b5b906000526020600020906007020160060160006101000a81548160ff0219169083151502179055506001600560003373ffffffffffffffffffffffffffffffffffffffff1673ffffffffffffffffffffffffffffffffffffffff168152602001908152602001600020828154811061420757614206615708565b5b906000526020600020906007020160060160016101000a81548160ff021916908315150217905550614249876001846080015161424491906156d4565b611367565b6142633360018560a0015161425e91906156d4565b611807565b505050505050614272565b5050505b50565b6000601060008373ffffffffffffffffffffffffffffffffffffffff1673ffffffffffffffffffffffffffffffffffffffff168152602001908152602001600020600085815260200190815260200160002060009054906101000a900460ff1615905080601060008473ffffffffffffffffffffffffffffffffffffffff1673ffffffffffffffffffffffffffffffffffffffff168152602001908152602001600020600086815260200190815260200160002060006101000a81548160ff02191690831515021790555080156143f157600c60008373ffffffffffffffffffffffffffffffffffffffff1673ffffffffffffffffffffffffffffffffffffffff168152602001908152602001600020600085815260200190815260200160002060050160008154809291906143aa90615737565b9190505550600e6000848152602001908152602001600020600085815260200190815260200160002060050160008154809291906143e790615737565b9190505550614498565b600c60008373ffffffffffffffffffffffffffffffffffffffff1673ffffffffffffffffffffffffffffffffffffffff1681526020019081526020016000206000858152602001908152602001600020600501600081548092919061445590615780565b9190505550600e60008481526020019081526020016000206000858152602001908152602001600020600501600081548092919061449290615780565b91905055505b50505050565b806000803373ffffffffffffffffffffffffffffffffffffffff1673ffffffffffffffffffffffffffffffffffffffff16815260200190815260200160002060030190805190602001906144f3929190614a8f565b5050565b600060014361450691906156d4565b4060001c905060006040518061012001604052803373ffffffffffffffffffffffffffffffffffffffff16815260200183815260200185815260200184815260200160405180602001604052806000815250815260200160008152602001600081526020016000815260200160001515815250905080600860003373ffffffffffffffffffffffffffffffffffffffff1673ffffffffffffffffffffffffffffffffffffffff168152602001908152602001600020600084815260200190815260200160002060008201518160000160006101000a81548173ffffffffffffffffffffffffffffffffffffffff021916908373ffffffffffffffffffffffffffffffffffffffff160217905550602082015181600101556040820151816002019080519060200190614639929190614a8f565b506060820151816003019080519060200190614656929190614a8f565b506080820151816004019080519060200190614673929190614a8f565b5060a0820151816005015560c0820151816006015560e082015181600701556101008201518160080160006101000a81548160ff021916908315150217905550905050600760003373ffffffffffffffffffffffffffffffffffffffff1673ffffffffffffffffffffffffffffffffffffffff16815260200190815260200160002082908060018154018082558091505060019003906000526020600020016000909190919091505550505050565b600061472c611851565b905060005b815181101561479a5781818151811061474d5761474c615708565b5b602002602001015160c001516147875761478682828151811061477357614772615708565b5b60200260200101516000015185856147a0565b5b808061479290615737565b915050614731565b50505050565b60006001436147af91906156d4565b4060001c905060006040518061012001604052803373ffffffffffffffffffffffffffffffffffffffff16815260200183815260200185815260200184815260200160405180602001604052806000815250815260200160008152602001600081526020016000815260200160001515815250905080600a60008773ffffffffffffffffffffffffffffffffffffffff1673ffffffffffffffffffffffffffffffffffffffff168152602001908152602001600020600084815260200190815260200160002060008201518160000160006101000a81548173ffffffffffffffffffffffffffffffffffffffff021916908373ffffffffffffffffffffffffffffffffffffffff1602179055506020820151816001015560408201518160020190805190602001906148e2929190614a8f565b5060608201518160030190805190602001906148ff929190614a8f565b50608082015181600401908051906020019061491c929190614a8f565b5060a0820151816005015560c0820151816006015560e082015181600701556101008201518160080160006101000a81548160ff021916908315150217905550905050600960008673ffffffffffffffffffffffffffffffffffffffff1673ffffffffffffffffffffffffffffffffffffffff1681526020019081526020016000208290806001815401808255809150506001900390600052602060002001600090919091909150555050505050565b604051806101000160405280600073ffffffffffffffffffffffffffffffffffffffff16815260200160608152602001606081526020016060815260200160008152602001600081526020016000151581526020016000151581525090565b604051806101200160405280600073ffffffffffffffffffffffffffffffffffffffff168152602001600081526020016060815260200160608152602001606081526020016000815260200160008152602001600081526020016000151581525090565b828054614a9b9061561d565b90600052602060002090601f016020900481019282614abd5760008555614b04565b82601f10614ad657805160ff1916838001178555614b04565b82800160010185558215614b04579182015b82811115614b03578251825591602001919060010190614ae8565b5b509050614b119190614b15565b5090565b5b80821115614b2e576000816000905550600101614b16565b5090565b6000604051905090565b600080fd5b600080fd5b600073ffffffffffffffffffffffffffffffffffffffff82169050919050565b6000614b7182614b46565b9050919050565b614b8181614b66565b8114614b8c57600080fd5b50565b600081359050614b9e81614b78565b92915050565b600060208284031215614bba57614bb9614b3c565b5b6000614bc884828501614b8f565b91505092915050565b614bda81614b66565b82525050565b600081519050919050565b600082825260208201905092915050565b60005b83811015614c1a578082015181840152602081019050614bff565b83811115614c29576000848401525b50505050565b6000601f19601f8301169050919050565b6000614c4b82614be0565b614c558185614beb565b9350614c65818560208601614bfc565b614c6e81614c2f565b840191505092915050565b6000819050919050565b614c8c81614c79565b82525050565b60008115159050919050565b614ca781614c92565b82525050565b600061010083016000830151614cc66000860182614bd1565b5060208301518482036020860152614cde8282614c40565b91505060408301518482036040860152614cf88282614c40565b91505060608301518482036060860152614d128282614c40565b9150506080830151614d276080860182614c83565b5060a0830151614d3a60a0860182614c83565b5060c0830151614d4d60c0860182614c9e565b5060e0830151614d6060e0860182614c9e565b508091505092915050565b60006020820190508181036000830152614d858184614cad565b905092915050565b614d9681614c79565b8114614da157600080fd5b50565b600081359050614db381614d8d565b92915050565b600080600060608486031215614dd257614dd1614b3c565b5b6000614de086828701614b8f565b9350506020614df186828701614da4565b9250506040614e0286828701614da4565b9150509250925092565b600081519050919050565b600082825260208201905092915050565b6000819050602082019050919050565b600061012083016000830151614e516000860182614bd1565b506020830151614e646020860182614c83565b5060408301518482036040860152614e7c8282614c40565b91505060608301518482036060860152614e968282614c40565b91505060808301518482036080860152614eb08282614c40565b91505060a0830151614ec560a0860182614c83565b5060c0830151614ed860c0860182614c83565b5060e0830151614eeb60e0860182614c83565b50610100830151614f00610100860182614c9e565b508091505092915050565b6000614f178383614e38565b905092915050565b6000602082019050919050565b6000614f3782614e0c565b614f418185614e17565b935083602082028501614f5385614e28565b8060005b85811015614f8f5784840389528151614f708582614f0b565b9450614f7b83614f1f565b925060208a01995050600181019050614f57565b50829750879550505050505092915050565b60006020820190508181036000830152614fbb8184614f2c565b905092915050565b600080fd5b600080fd5b7f4e487b7100000000000000000000000000000000000000000000000000000000600052604160045260246000fd5b61500582614c2f565b810181811067ffffffffffffffff8211171561502457615023614fcd565b5b80604052505050565b6000615037614b32565b90506150438282614ffc565b919050565b600067ffffffffffffffff82111561506357615062614fcd565b5b61506c82614c2f565b9050602081019050919050565b82818337600083830152505050565b600061509b61509684615048565b61502d565b9050828152602081018484840111156150b7576150b6614fc8565b5b6150c2848285615079565b509392505050565b600082601f8301126150df576150de614fc3565b5b81356150ef848260208601615088565b91505092915050565b60008060006060848603121561511157615110614b3c565b5b600061511f86828701614da4565b935050602061513086828701614b8f565b925050604084013567ffffffffffffffff81111561515157615150614b41565b5b61515d868287016150ca565b9150509250925092565b6000806040838503121561517e5761517d614b3c565b5b600061518c85828601614b8f565b925050602061519d85828601614da4565b9150509250929050565b600081519050919050565b600082825260208201905092915050565b6000819050602082019050919050565b6000610100830160008301516151ec6000860182614bd1565b50602083015184820360208601526152048282614c40565b9150506040830151848203604086015261521e8282614c40565b915050606083015184820360608601526152388282614c40565b915050608083015161524d6080860182614c83565b5060a083015161526060a0860182614c83565b5060c083015161527360c0860182614c9e565b5060e083015161528660e0860182614c9e565b508091505092915050565b600061529d83836151d3565b905092915050565b6000602082019050919050565b60006152bd826151a7565b6152c781856151b2565b9350836020820285016152d9856151c3565b8060005b8581101561531557848403895281516152f68582615291565b9450615301836152a5565b925060208a019950506001810190506152dd565b50829750879550505050505092915050565b6000602082019050818103600083015261534181846152b2565b905092915050565b60006020828403121561535f5761535e614b3c565b5b600061536d84828501614da4565b91505092915050565b6000806040838503121561538d5761538c614b3c565b5b600083013567ffffffffffffffff8111156153ab576153aa614b41565b5b6153b7858286016150ca565b925050602083013567ffffffffffffffff8111156153d8576153d7614b41565b5b6153e4858286016150ca565b9150509250929050565b60008060006060848603121561540757615406614b3c565b5b600084013567ffffffffffffffff81111561542557615424614b41565b5b615431868287016150ca565b935050602084013567ffffffffffffffff81111561545257615451614b41565b5b61545e868287016150ca565b925050604084013567ffffffffffffffff81111561547f5761547e614b41565b5b61548b868287016150ca565b9150509250925092565b6000602082840312156154ab576154aa614b3c565b5b600082013567ffffffffffffffff8111156154c9576154c8614b41565b5b6154d5848285016150ca565b91505092915050565b6154e781614c92565b82525050565b600060208201905061550260008301846154de565b92915050565b6000806040838503121561551f5761551e614b3c565b5b600061552d85828601614da4565b925050602061553e85828601614da4565b9150509250929050565b60008060006060848603121561556157615560614b3c565b5b600061556f86828701614da4565b935050602061558086828701614da4565b925050604061559186828701614da4565b9150509250925092565b6000806000606084860312156155b4576155b3614b3c565b5b60006155c286828701614da4565b93505060206155d386828701614da4565b92505060406155e486828701614b8f565b9150509250925092565b7f4e487b7100000000000000000000000000000000000000000000000000000000600052602260045260246000fd5b6000600282049050600182168061563557607f821691505b60208210811415615649576156486155ee565b5b50919050565b7f4e487b7100000000000000000000000000000000000000000000000000000000600052601160045260246000fd5b600061568982614c79565b915061569483614c79565b9250827fffffffffffffffffffffffffffffffffffffffffffffffffffffffffffffffff038211156156c9576156c861564f565b5b828201905092915050565b60006156df82614c79565b91506156ea83614c79565b9250828210156156fd576156fc61564f565b5b828203905092915050565b7f4e487b7100000000000000000000000000000000000000000000000000000000600052603260045260246000fd5b600061574282614c79565b91507fffffffffffffffffffffffffffffffffffffffffffffffffffffffffffffffff8214156157755761577461564f565b5b600182019050919050565b600061578b82614c79565b9150600082141561579f5761579e61564f565b5b60018203905091905056fea26469706673582212208b01f224dd120ec060e668cfc1b3c84455ca7a2d57b5dac2118822777f0e79ab64736f6c634300080a0033",
  "immutableReferences": {},
  "source": "// SPDX-License-Identifier: GPL-3.0\n\npragma solidity >=0.7.0 <0.9.0;\n\nimport './Replies.sol';\nimport './Likes.sol';\nimport './Profiles.sol';\n\ncontract SmallFry is Likes {\n}",
  "sourcePath": "/Users/chriscushman/smartcontract/contracts/SmallFry.sol",
  "compiler": {
    "name": "solc",
    "version": "0.8.10+commit.fc410830.Emscripten.clang"
  },
  "schemaVersion": "3.4.3",
  "updatedAt": "2021-11-29T13:27:10.064Z",
  "devdoc": {
    "kind": "dev",
    "methods": {
      "followUser(address)": {
        "details": "Follow a user",
        "params": {
          "adr": "address of the user to follow"
        }
      },
      "getFollowers(address)": {
        "details": "Fetch profiles that follow a user",
        "params": {
          "adr": "the address of the profile"
        },
        "returns": {
          "_0": "profiles that follow a user"
        }
      },
      "getFollowing(address)": {
        "details": "Fetch profiles a user is following",
        "params": {
          "adr": "the address of the profile"
        },
        "returns": {
          "_0": "profiles the user is following"
        }
      },
      "getIsUserFollowingMe(address)": {
        "details": "Fetch if a user is following 'me'",
        "params": {
          "adr": "the address of the profile"
        },
        "returns": {
          "_0": "true if user is following msg.sender, otherwise false"
        }
      },
      "getMyFollowers()": {
        "details": "Fetch profiles that follow 'me'",
        "returns": {
          "_0": "profiles that follow msg.sender"
        }
      },
      "getMyPosts(uint256,uint256)": {
        "details": "Get your own user posts",
        "params": {
          "limit": "the max number of posts to fetch",
          "offset": "the offset of the starting index of posts to fetch"
        },
        "returns": {
          "_0": "user posts by msg.sender, bounded by limit and offset"
        }
      },
      "getMyProfile()": {
        "details": "Fetch own profile",
        "returns": {
          "_0": "profile"
        }
      },
      "getMySmallFryFeed(uint256,uint256)": {
        "details": "Get your own small-fry feed, which is the list of posts made by small accounts you follow",
        "params": {
          "limit": "the max number of posts to fetch",
          "offset": "the offset of the starting index of posts to fetch"
        },
        "returns": {
          "_0": "small-fry feed for msg.sender, bounded by limit and offset"
        }
      },
      "getPostIsLiked(uint256)": {
        "details": "Fetch if post is liked",
        "params": {
          "postId": "post id of the post"
        },
        "returns": {
          "_0": "true if the post has been liked by msg.sender, otherwise false"
        }
      },
      "getProfile(address)": {
        "details": "Fetch user's profile",
        "params": {
          "adr": "the address of the profile"
        },
        "returns": {
          "_0": "profile"
        }
      },
      "getRepliesFromUser(address,uint256,uint256)": {
        "details": "Get replies a user has made",
        "params": {
          "adr": "the address of the user",
          "limit": "the max number of replies to fetch",
          "offset": "the offset of the starting index of replies to fetch"
        },
        "returns": {
          "_0": "list of replies a user has made, bound by the limit and offset"
        }
      },
      "getRepliesToPost(uint256,uint256,uint256)": {
        "details": "Get replies to a post",
        "params": {
          "limit": "the max number of replies to fetch",
          "offset": "the offset of the starting index of replies to fetch",
          "postId": "the id of the post to be replied to"
        },
        "returns": {
          "_0": "list of replies to a post, bound by the limit and offset"
        }
      },
      "getReplyIsLiked(uint256)": {
        "details": "Fetch if reply is liked",
        "params": {
          "replyId": "post id of the reply"
        },
        "returns": {
          "_0": "true if the reply has been liked by msg.sender, otherwise false"
        }
      },
      "getUserPosts(address,uint256,uint256)": {
        "details": "Get a user's posts",
        "params": {
          "limit": "the max number of posts to fetch",
          "offset": "the offset of the starting index of posts to fetch"
        },
        "returns": {
          "_0": "user posts by adr, bounded by limit and offset"
        }
      },
      "likePost(uint256)": {
        "details": "Like a post",
        "params": {
          "postId": "post id of the post to like"
        }
      },
      "likeReply(uint256,uint256,address)": {
        "details": "Like a reply",
        "params": {
          "adr": "address of the author of the reply",
          "postId": "post id of the post the reply is associated with",
          "replyId": "post id of the reply to like"
        }
      },
      "postToMyFeed(string,string)": {
        "details": "Add a post -- only to your user posts list if you're a large account,  but to all your followers' small-fry feeds if you're a small-fry",
        "params": {
          "description": "the description of the post"
        }
      },
      "replyToPost(uint256,address,string)": {
        "details": "Reply to a post",
        "params": {
          "author": "the address of the author of the post to be replied to",
          "description": "the description of the reply",
          "postId": "the id of the post to be replied to"
        }
      },
      "replyToReply(uint256,address,string)": {
        "details": "Reply to a reply",
        "params": {
          "author": "the address of the author of the reply to be replied to",
          "description": "the description of the reply",
          "replyId": "the id of the reply to be replied to"
        }
      },
      "setBio(string)": {
        "details": "Set bio on own profile",
        "params": {
          "bio": "the bio to be set"
        }
      },
      "setFollowerCount(uint256)": {
        "details": "Set the follower count of own profile",
        "params": {
          "followerCount": "the follower count to be set"
        }
      },
      "setFollowerCountForAddress(address,uint256)": {
        "details": "Set the follower count of a profile",
        "params": {
          "adr": "the address of the profile",
          "followerCount": "the follower count to be set"
        }
      },
      "setFollowingCount(uint256)": {
        "details": "Set the following count of own profile",
        "params": {
          "followingCount": "the following count to be set"
        }
      },
      "setFollowingCountForAddress(address,uint256)": {
        "details": "Set the following count of a profile",
        "params": {
          "adr": "the address of the profile",
          "followingCount": "the following count to be set"
        }
      },
      "setName(string)": {
        "details": "Set name on own profile",
        "params": {
          "name": "the name to be set"
        }
      },
      "setProfileInfo(string,string,string)": {
        "details": "Set name, profile picture url, & bio on profile",
        "params": {
          "bio": "the bio to be set",
          "name": "the name to be set",
          "profilePictureUrl": "the profile picture url to be set"
        }
      },
      "setProfilePictureUrl(string)": {
        "details": "Set profile picture url on own profile",
        "params": {
          "profilePictureUrl": "the profile picture url to be set"
        }
      },
      "unfollowUser(address)": {
        "details": "Follow a user",
        "params": {
          "adr": "address of the user to unfollow"
        }
      }
    },
    "version": 1
  },
  "userdoc": {
    "kind": "user",
    "methods": {},
    "version": 1
  }
}