{
  "contractName": "SocialSwap",
  "abi": [
    {
      "inputs": [
        {
          "internalType": "string",
          "name": "title",
          "type": "string"
        },
        {
          "internalType": "string",
          "name": "description",
          "type": "string"
        }
      ],
      "name": "addPost",
      "outputs": [],
      "stateMutability": "nonpayable",
      "type": "function"
    },
    {
      "inputs": [
        {
          "internalType": "uint256",
          "name": "limit",
          "type": "uint256"
        },
        {
          "internalType": "uint256",
          "name": "offset",
          "type": "uint256"
        }
      ],
      "name": "getMyPosts",
      "outputs": [
        {
          "components": [
            {
              "internalType": "address",
              "name": "author",
              "type": "address"
            },
            {
              "internalType": "uint256",
              "name": "postId",
              "type": "uint256"
            },
            {
              "internalType": "string",
              "name": "title",
              "type": "string"
            },
            {
              "internalType": "string",
              "name": "description",
              "type": "string"
            },
            {
              "internalType": "string",
              "name": "externalLink",
              "type": "string"
            },
            {
              "internalType": "uint256",
              "name": "likeCount",
              "type": "uint256"
            },
            {
              "internalType": "uint256",
              "name": "replyCount",
              "type": "uint256"
            },
            {
              "internalType": "uint256",
              "name": "shareCount",
              "type": "uint256"
            },
            {
              "internalType": "bool",
              "name": "isReply",
              "type": "bool"
            }
          ],
          "internalType": "struct UserPosts.Post[]",
          "name": "",
          "type": "tuple[]"
        }
      ],
      "stateMutability": "view",
      "type": "function"
    },
    {
      "inputs": [
        {
          "internalType": "uint256",
          "name": "postId",
          "type": "uint256"
        }
      ],
      "name": "getPostIsLiked",
      "outputs": [
        {
          "internalType": "bool",
          "name": "",
          "type": "bool"
        }
      ],
      "stateMutability": "view",
      "type": "function"
    },
    {
      "inputs": [
        {
          "internalType": "address",
          "name": "adr",
          "type": "address"
        },
        {
          "internalType": "uint256",
          "name": "limit",
          "type": "uint256"
        },
        {
          "internalType": "uint256",
          "name": "offset",
          "type": "uint256"
        }
      ],
      "name": "getRepliesFromUser",
      "outputs": [
        {
          "components": [
            {
              "internalType": "address",
              "name": "author",
              "type": "address"
            },
            {
              "internalType": "uint256",
              "name": "postId",
              "type": "uint256"
            },
            {
              "internalType": "string",
              "name": "title",
              "type": "string"
            },
            {
              "internalType": "string",
              "name": "description",
              "type": "string"
            },
            {
              "internalType": "string",
              "name": "externalLink",
              "type": "string"
            },
            {
              "internalType": "uint256",
              "name": "likeCount",
              "type": "uint256"
            },
            {
              "internalType": "uint256",
              "name": "replyCount",
              "type": "uint256"
            },
            {
              "internalType": "uint256",
              "name": "shareCount",
              "type": "uint256"
            },
            {
              "internalType": "bool",
              "name": "isReply",
              "type": "bool"
            }
          ],
          "internalType": "struct UserPosts.Post[]",
          "name": "",
          "type": "tuple[]"
        }
      ],
      "stateMutability": "view",
      "type": "function"
    },
    {
      "inputs": [
        {
          "internalType": "uint256",
          "name": "postId",
          "type": "uint256"
        },
        {
          "internalType": "uint256",
          "name": "limit",
          "type": "uint256"
        },
        {
          "internalType": "uint256",
          "name": "offset",
          "type": "uint256"
        }
      ],
      "name": "getRepliesToPost",
      "outputs": [
        {
          "components": [
            {
              "internalType": "address",
              "name": "author",
              "type": "address"
            },
            {
              "internalType": "uint256",
              "name": "postId",
              "type": "uint256"
            },
            {
              "internalType": "string",
              "name": "title",
              "type": "string"
            },
            {
              "internalType": "string",
              "name": "description",
              "type": "string"
            },
            {
              "internalType": "string",
              "name": "externalLink",
              "type": "string"
            },
            {
              "internalType": "uint256",
              "name": "likeCount",
              "type": "uint256"
            },
            {
              "internalType": "uint256",
              "name": "replyCount",
              "type": "uint256"
            },
            {
              "internalType": "uint256",
              "name": "shareCount",
              "type": "uint256"
            },
            {
              "internalType": "bool",
              "name": "isReply",
              "type": "bool"
            }
          ],
          "internalType": "struct UserPosts.Post[]",
          "name": "",
          "type": "tuple[]"
        }
      ],
      "stateMutability": "view",
      "type": "function"
    },
    {
      "inputs": [
        {
          "internalType": "uint256",
          "name": "replyId",
          "type": "uint256"
        }
      ],
      "name": "getReplyIsLiked",
      "outputs": [
        {
          "internalType": "bool",
          "name": "",
          "type": "bool"
        }
      ],
      "stateMutability": "view",
      "type": "function"
    },
    {
      "inputs": [
        {
          "internalType": "address",
          "name": "adr",
          "type": "address"
        },
        {
          "internalType": "uint256",
          "name": "limit",
          "type": "uint256"
        },
        {
          "internalType": "uint256",
          "name": "offset",
          "type": "uint256"
        }
      ],
      "name": "getUserPosts",
      "outputs": [
        {
          "components": [
            {
              "internalType": "address",
              "name": "author",
              "type": "address"
            },
            {
              "internalType": "uint256",
              "name": "postId",
              "type": "uint256"
            },
            {
              "internalType": "string",
              "name": "title",
              "type": "string"
            },
            {
              "internalType": "string",
              "name": "description",
              "type": "string"
            },
            {
              "internalType": "string",
              "name": "externalLink",
              "type": "string"
            },
            {
              "internalType": "uint256",
              "name": "likeCount",
              "type": "uint256"
            },
            {
              "internalType": "uint256",
              "name": "replyCount",
              "type": "uint256"
            },
            {
              "internalType": "uint256",
              "name": "shareCount",
              "type": "uint256"
            },
            {
              "internalType": "bool",
              "name": "isReply",
              "type": "bool"
            }
          ],
          "internalType": "struct UserPosts.Post[]",
          "name": "",
          "type": "tuple[]"
        }
      ],
      "stateMutability": "view",
      "type": "function"
    },
    {
      "inputs": [
        {
          "internalType": "uint256",
          "name": "postId",
          "type": "uint256"
        }
      ],
      "name": "likePost",
      "outputs": [],
      "stateMutability": "nonpayable",
      "type": "function"
    },
    {
      "inputs": [
        {
          "internalType": "uint256",
          "name": "replyId",
          "type": "uint256"
        },
        {
          "internalType": "uint256",
          "name": "postId",
          "type": "uint256"
        },
        {
          "internalType": "address",
          "name": "adr",
          "type": "address"
        }
      ],
      "name": "likeReply",
      "outputs": [],
      "stateMutability": "nonpayable",
      "type": "function"
    },
    {
      "inputs": [
        {
          "internalType": "uint256",
          "name": "postId",
          "type": "uint256"
        },
        {
          "internalType": "address",
          "name": "author",
          "type": "address"
        },
        {
          "internalType": "string",
          "name": "description",
          "type": "string"
        }
      ],
      "name": "replyToPost",
      "outputs": [],
      "stateMutability": "nonpayable",
      "type": "function"
    },
    {
      "inputs": [
        {
          "internalType": "uint256",
          "name": "replyId",
          "type": "uint256"
        },
        {
          "internalType": "address",
          "name": "author",
          "type": "address"
        },
        {
          "internalType": "string",
          "name": "description",
          "type": "string"
        }
      ],
      "name": "replyToReply",
      "outputs": [],
      "stateMutability": "nonpayable",
      "type": "function"
    },
    {
      "inputs": [],
      "name": "retrieveMyProfile",
      "outputs": [
        {
          "components": [
            {
              "internalType": "address",
              "name": "adr",
              "type": "address"
            },
            {
              "internalType": "string",
              "name": "name",
              "type": "string"
            },
            {
              "internalType": "string",
              "name": "profilePictureUrl",
              "type": "string"
            },
            {
              "internalType": "string",
              "name": "bio",
              "type": "string"
            },
            {
              "internalType": "uint256",
              "name": "followerCount",
              "type": "uint256"
            },
            {
              "internalType": "uint256",
              "name": "followingCount",
              "type": "uint256"
            },
            {
              "internalType": "bool",
              "name": "unfollowed",
              "type": "bool"
            },
            {
              "internalType": "bool",
              "name": "unfollowing",
              "type": "bool"
            }
          ],
          "internalType": "struct Profiles.Profile",
          "name": "",
          "type": "tuple"
        }
      ],
      "stateMutability": "view",
      "type": "function"
    },
    {
      "inputs": [
        {
          "internalType": "address",
          "name": "adr",
          "type": "address"
        }
      ],
      "name": "retrieveProfile",
      "outputs": [
        {
          "components": [
            {
              "internalType": "address",
              "name": "adr",
              "type": "address"
            },
            {
              "internalType": "string",
              "name": "name",
              "type": "string"
            },
            {
              "internalType": "string",
              "name": "profilePictureUrl",
              "type": "string"
            },
            {
              "internalType": "string",
              "name": "bio",
              "type": "string"
            },
            {
              "internalType": "uint256",
              "name": "followerCount",
              "type": "uint256"
            },
            {
              "internalType": "uint256",
              "name": "followingCount",
              "type": "uint256"
            },
            {
              "internalType": "bool",
              "name": "unfollowed",
              "type": "bool"
            },
            {
              "internalType": "bool",
              "name": "unfollowing",
              "type": "bool"
            }
          ],
          "internalType": "struct Profiles.Profile",
          "name": "",
          "type": "tuple"
        }
      ],
      "stateMutability": "view",
      "type": "function"
    },
    {
      "inputs": [
        {
          "internalType": "string",
          "name": "bio",
          "type": "string"
        }
      ],
      "name": "setBio",
      "outputs": [],
      "stateMutability": "nonpayable",
      "type": "function"
    },
    {
      "inputs": [
        {
          "internalType": "uint256",
          "name": "followerCount",
          "type": "uint256"
        }
      ],
      "name": "setFollowerCount",
      "outputs": [],
      "stateMutability": "nonpayable",
      "type": "function"
    },
    {
      "inputs": [
        {
          "internalType": "address",
          "name": "adr",
          "type": "address"
        },
        {
          "internalType": "uint256",
          "name": "followerCount",
          "type": "uint256"
        }
      ],
      "name": "setFollowerCountForAddress",
      "outputs": [],
      "stateMutability": "nonpayable",
      "type": "function"
    },
    {
      "inputs": [
        {
          "internalType": "uint256",
          "name": "followingCount",
          "type": "uint256"
        }
      ],
      "name": "setFollowingCount",
      "outputs": [],
      "stateMutability": "nonpayable",
      "type": "function"
    },
    {
      "inputs": [
        {
          "internalType": "address",
          "name": "adr",
          "type": "address"
        },
        {
          "internalType": "uint256",
          "name": "followingCount",
          "type": "uint256"
        }
      ],
      "name": "setFollowingCountForAddress",
      "outputs": [],
      "stateMutability": "nonpayable",
      "type": "function"
    },
    {
      "inputs": [
        {
          "internalType": "string",
          "name": "name",
          "type": "string"
        }
      ],
      "name": "setName",
      "outputs": [],
      "stateMutability": "nonpayable",
      "type": "function"
    },
    {
      "inputs": [
        {
          "internalType": "string",
          "name": "profilePictureUrl",
          "type": "string"
        }
      ],
      "name": "setProfilePictureUrl",
      "outputs": [],
      "stateMutability": "nonpayable",
      "type": "function"
    }
  ],
  "bytecode": "0x608060405234801561001057600080fd5b5061327a806100206000396000f3fe608060405234801561001057600080fd5b506004361061012c5760003560e01c806391fc36ee116100ad578063c47f002711610071578063c47f00271461033b578063cb2f4a0b14610357578063d05b4b6014610387578063fb0c92f1146103b7578063fb7e06d8146103d35761012c565b806391fc36ee146102735780639572d9881461028f578063a8c91fde146102bf578063b02c6516146102ef578063c3fd82361461030b5761012c565b806357d2bcb8116100f457806357d2bcb8146101e75780635ce460a514610203578063725009d31461021f5780637cd38b061461023b578063906eb124146102575761012c565b80632aec83b7146101315780633a24cb7b1461014f5780634773a6991461017f57806348d502401461019b5780634dd9c968146101cb575b600080fd5b6101396103ef565b60405161014691906129e1565b60405180910390f35b61016960048036038101906101649190612a6f565b61069d565b6040516101769190612c57565b60405180910390f35b61019960048036038101906101949190612dae565b610a98565b005b6101b560048036038101906101b09190612e1d565b610eee565b6040516101c291906129e1565b60405180910390f35b6101e560048036038101906101e09190612e4a565b61119e565b005b61020160048036038101906101fc9190612dae565b6111e9565b005b61021d60048036038101906102189190612e4a565b61163f565b005b61023960048036038101906102349190612e8a565b61168a565b005b61025560048036038101906102509190612e8a565b611837565b005b610271600480360381019061026c9190612eb7565b611881565b005b61028d60048036038101906102889190612e8a565b6118db565b005b6102a960048036038101906102a49190612e8a565b611925565b6040516102b69190612f0f565b60405180910390f35b6102d960048036038101906102d49190612f2a565b61198c565b6040516102e69190612c57565b60405180910390f35b61030960048036038101906103049190612f7d565b611d30565b005b61032560048036038101906103209190612ff5565b611f5a565b6040516103329190612c57565b60405180910390f35b61035560048036038101906103509190612eb7565b611f6f565b005b610371600480360381019061036c9190612e8a565b611fc9565b60405161037e9190612f0f565b60405180910390f35b6103a1600480360381019061039c9190612a6f565b612030565b6040516103ae9190612c57565b60405180910390f35b6103d160048036038101906103cc9190613035565b61242c565b005b6103ed60048036038101906103e89190612eb7565b612655565b005b6103f76126af565b600860003373ffffffffffffffffffffffffffffffffffffffff1673ffffffffffffffffffffffffffffffffffffffff168152602001908152602001600020604051806101000160405290816000820160009054906101000a900473ffffffffffffffffffffffffffffffffffffffff1673ffffffffffffffffffffffffffffffffffffffff1673ffffffffffffffffffffffffffffffffffffffff1681526020016001820180546104a8906130b7565b80601f01602080910402602001604051908101604052809291908181526020018280546104d4906130b7565b80156105215780601f106104f657610100808354040283529160200191610521565b820191906000526020600020905b81548152906001019060200180831161050457829003601f168201915b5050505050815260200160028201805461053a906130b7565b80601f0160208091040260200160405190810160405280929190818152602001828054610566906130b7565b80156105b35780601f10610588576101008083540402835291602001916105b3565b820191906000526020600020905b81548152906001019060200180831161059657829003601f168201915b505050505081526020016003820180546105cc906130b7565b80601f01602080910402602001604051908101604052809291908181526020018280546105f8906130b7565b80156106455780601f1061061a57610100808354040283529160200191610645565b820191906000526020600020905b81548152906001019060200180831161062857829003601f168201915b5050505050815260200160048201548152602001600582015481526020016006820160009054906101000a900460ff161515151581526020016006820160019054906101000a900460ff161515151581525050905090565b606060008367ffffffffffffffff8111156106bb576106ba612c83565b5b6040519080825280602002602001820160405280156106f457816020015b6106e161270e565b8152602001906001900390816106d95790505b5090506000600160008773ffffffffffffffffffffffffffffffffffffffff1673ffffffffffffffffffffffffffffffffffffffff168152602001908152602001600020905060008060008873ffffffffffffffffffffffffffffffffffffffff1673ffffffffffffffffffffffffffffffffffffffff168152602001908152602001600020905060008180549050905060005b87811080156107a1575081878261079f9190613118565b105b15610a8957600083886001846107b79190613118565b856107c2919061316e565b6107cc919061316e565b815481106107dd576107dc6131a2565b5b90600052602060002001549050846000828152602001908152602001600020604051806101200160405290816000820160009054906101000a900473ffffffffffffffffffffffffffffffffffffffff1673ffffffffffffffffffffffffffffffffffffffff1673ffffffffffffffffffffffffffffffffffffffff16815260200160018201548152602001600282018054610878906130b7565b80601f01602080910402602001604051908101604052809291908181526020018280546108a4906130b7565b80156108f15780601f106108c6576101008083540402835291602001916108f1565b820191906000526020600020905b8154815290600101906020018083116108d457829003601f168201915b5050505050815260200160038201805461090a906130b7565b80601f0160208091040260200160405190810160405280929190818152602001828054610936906130b7565b80156109835780601f1061095857610100808354040283529160200191610983565b820191906000526020600020905b81548152906001019060200180831161096657829003601f168201915b5050505050815260200160048201805461099c906130b7565b80601f01602080910402602001604051908101604052809291908181526020018280546109c8906130b7565b8015610a155780601f106109ea57610100808354040283529160200191610a15565b820191906000526020600020905b8154815290600101906020018083116109f857829003601f168201915b505050505081526020016005820154815260200160068201548152602001600782015481526020016008820160009054906101000a900460ff161515151581525050868381518110610a6a57610a696131a2565b5b6020026020010181905250508080610a81906131d1565b915050610788565b50839450505050509392505050565b6000600160008473ffffffffffffffffffffffffffffffffffffffff1673ffffffffffffffffffffffffffffffffffffffff16815260200190815260200160002060008581526020019081526020016000209050600081600101541415610aff5750610ee9565b6000600143610b0e919061316e565b4060001c905060006040518061012001604052803373ffffffffffffffffffffffffffffffffffffffff16815260200183815260200160405180602001604052806000815250815260200185815260200160405180602001604052806000815250815260200160008152602001600081526020016000815260200160011515815250905080600360003373ffffffffffffffffffffffffffffffffffffffff1673ffffffffffffffffffffffffffffffffffffffff168152602001908152602001600020600084815260200190815260200160002060008201518160000160006101000a81548173ffffffffffffffffffffffffffffffffffffffff021916908373ffffffffffffffffffffffffffffffffffffffff160217905550602082015181600101556040820151816002019080519060200190610c50929190612772565b506060820151816003019080519060200190610c6d929190612772565b506080820151816004019080519060200190610c8a929190612772565b5060a0820151816005015560c0820151816006015560e082015181600701556101008201518160080160006101000a81548160ff021916908315150217905550905050600260003373ffffffffffffffffffffffffffffffffffffffff1673ffffffffffffffffffffffffffffffffffffffff168152602001908152602001600020829080600181540180825580915050600190039060005260206000200160009091909190915055600460008781526020019081526020016000208290806001815401808255809150506001900390600052602060002001600090919091909150558060056000888152602001908152602001600020600084815260200190815260200160002060008201518160000160006101000a81548173ffffffffffffffffffffffffffffffffffffffff021916908373ffffffffffffffffffffffffffffffffffffffff160217905550602082015181600101556040820151816002019080519060200190610dff929190612772565b506060820151816003019080519060200190610e1c929190612772565b506080820151816004019080519060200190610e39929190612772565b5060a0820151816005015560c0820151816006015560e082015181600701556101008201518160080160006101000a81548160ff021916908315150217905550905050600160008673ffffffffffffffffffffffffffffffffffffffff1673ffffffffffffffffffffffffffffffffffffffff16815260200190815260200160002060008781526020019081526020016000206006016000815480929190610ee0906131d1565b91905055505050505b505050565b610ef66126af565b600860008373ffffffffffffffffffffffffffffffffffffffff1673ffffffffffffffffffffffffffffffffffffffff168152602001908152602001600020604051806101000160405290816000820160009054906101000a900473ffffffffffffffffffffffffffffffffffffffff1673ffffffffffffffffffffffffffffffffffffffff1673ffffffffffffffffffffffffffffffffffffffff168152602001600182018054610fa7906130b7565b80601f0160208091040260200160405190810160405280929190818152602001828054610fd3906130b7565b80156110205780601f10610ff557610100808354040283529160200191611020565b820191906000526020600020905b81548152906001019060200180831161100357829003601f168201915b50505050508152602001600282018054611039906130b7565b80601f0160208091040260200160405190810160405280929190818152602001828054611065906130b7565b80156110b25780601f10611087576101008083540402835291602001916110b2565b820191906000526020600020905b81548152906001019060200180831161109557829003601f168201915b505050505081526020016003820180546110cb906130b7565b80601f01602080910402602001604051908101604052809291908181526020018280546110f7906130b7565b80156111445780601f1061111957610100808354040283529160200191611144565b820191906000526020600020905b81548152906001019060200180831161112757829003601f168201915b5050505050815260200160048201548152602001600582015481526020016006820160009054906101000a900460ff161515151581526020016006820160019054906101000a900460ff1615151515815250509050919050565b80600860008473ffffffffffffffffffffffffffffffffffffffff1673ffffffffffffffffffffffffffffffffffffffff168152602001908152602001600020600401819055505050565b6000600360008473ffffffffffffffffffffffffffffffffffffffff1673ffffffffffffffffffffffffffffffffffffffff16815260200190815260200160002060008581526020019081526020016000209050600081600101541415611250575061163a565b600060014361125f919061316e565b4060001c905060006040518061012001604052803373ffffffffffffffffffffffffffffffffffffffff16815260200183815260200160405180602001604052806000815250815260200185815260200160405180602001604052806000815250815260200160008152602001600081526020016000815260200160011515815250905080600360003373ffffffffffffffffffffffffffffffffffffffff1673ffffffffffffffffffffffffffffffffffffffff168152602001908152602001600020600084815260200190815260200160002060008201518160000160006101000a81548173ffffffffffffffffffffffffffffffffffffffff021916908373ffffffffffffffffffffffffffffffffffffffff1602179055506020820151816001015560408201518160020190805190602001906113a1929190612772565b5060608201518160030190805190602001906113be929190612772565b5060808201518160040190805190602001906113db929190612772565b5060a0820151816005015560c0820151816006015560e082015181600701556101008201518160080160006101000a81548160ff021916908315150217905550905050600260003373ffffffffffffffffffffffffffffffffffffffff1673ffffffffffffffffffffffffffffffffffffffff168152602001908152602001600020829080600181540180825580915050600190039060005260206000200160009091909190915055600460008781526020019081526020016000208290806001815401808255809150506001900390600052602060002001600090919091909150558060056000888152602001908152602001600020600084815260200190815260200160002060008201518160000160006101000a81548173ffffffffffffffffffffffffffffffffffffffff021916908373ffffffffffffffffffffffffffffffffffffffff160217905550602082015181600101556040820151816002019080519060200190611550929190612772565b50606082015181600301908051906020019061156d929190612772565b50608082015181600401908051906020019061158a929190612772565b5060a0820151816005015560c0820151816006015560e082015181600701556101008201518160080160006101000a81548160ff021916908315150217905550905050600360008673ffffffffffffffffffffffffffffffffffffffff1673ffffffffffffffffffffffffffffffffffffffff16815260200190815260200160002060008781526020019081526020016000206006016000815480929190611631906131d1565b91905055505050505b505050565b80600860008473ffffffffffffffffffffffffffffffffffffffff1673ffffffffffffffffffffffffffffffffffffffff168152602001908152602001600020600501819055505050565b6000600660003373ffffffffffffffffffffffffffffffffffffffff1673ffffffffffffffffffffffffffffffffffffffff168152602001908152602001600020600083815260200190815260200160002060009054906101000a900460ff1615905080600660003373ffffffffffffffffffffffffffffffffffffffff1673ffffffffffffffffffffffffffffffffffffffff168152602001908152602001600020600084815260200190815260200160002060006101000a81548160ff02191690831515021790555080156117c957600160003373ffffffffffffffffffffffffffffffffffffffff1673ffffffffffffffffffffffffffffffffffffffff168152602001908152602001600020600083815260200190815260200160002060050160008154809291906117bf906131d1565b9190505550611833565b600160003373ffffffffffffffffffffffffffffffffffffffff1673ffffffffffffffffffffffffffffffffffffffff1681526020019081526020016000206000838152602001908152602001600020600501600081548092919061182d9061321a565b91905055505b5050565b80600860003373ffffffffffffffffffffffffffffffffffffffff1673ffffffffffffffffffffffffffffffffffffffff1681526020019081526020016000206005018190555050565b80600860003373ffffffffffffffffffffffffffffffffffffffff1673ffffffffffffffffffffffffffffffffffffffff16815260200190815260200160002060020190805190602001906118d7929190612772565b5050565b80600860003373ffffffffffffffffffffffffffffffffffffffff1673ffffffffffffffffffffffffffffffffffffffff1681526020019081526020016000206004018190555050565b6000600760003373ffffffffffffffffffffffffffffffffffffffff1673ffffffffffffffffffffffffffffffffffffffff168152602001908152602001600020600083815260200190815260200160002060009054906101000a900460ff169050919050565b606060008367ffffffffffffffff8111156119aa576119a9612c83565b5b6040519080825280602002602001820160405280156119e357816020015b6119d061270e565b8152602001906001900390816119c85790505b5090506000600560008781526020019081526020016000209050600060046000888152602001908152602001600020905060008180549050905060005b8781108015611a395750818782611a379190613118565b105b15611d215760008388600184611a4f9190613118565b85611a5a919061316e565b611a64919061316e565b81548110611a7557611a746131a2565b5b90600052602060002001549050846000828152602001908152602001600020604051806101200160405290816000820160009054906101000a900473ffffffffffffffffffffffffffffffffffffffff1673ffffffffffffffffffffffffffffffffffffffff1673ffffffffffffffffffffffffffffffffffffffff16815260200160018201548152602001600282018054611b10906130b7565b80601f0160208091040260200160405190810160405280929190818152602001828054611b3c906130b7565b8015611b895780601f10611b5e57610100808354040283529160200191611b89565b820191906000526020600020905b815481529060010190602001808311611b6c57829003601f168201915b50505050508152602001600382018054611ba2906130b7565b80601f0160208091040260200160405190810160405280929190818152602001828054611bce906130b7565b8015611c1b5780601f10611bf057610100808354040283529160200191611c1b565b820191906000526020600020905b815481529060010190602001808311611bfe57829003601f168201915b50505050508152602001600482018054611c34906130b7565b80601f0160208091040260200160405190810160405280929190818152602001828054611c60906130b7565b8015611cad5780601f10611c8257610100808354040283529160200191611cad565b820191906000526020600020905b815481529060010190602001808311611c9057829003601f168201915b505050505081526020016005820154815260200160068201548152602001600782015481526020016008820160009054906101000a900460ff161515151581525050868381518110611d0257611d016131a2565b5b6020026020010181905250508080611d19906131d1565b915050611a20565b50839450505050509392505050565b6000600143611d3f919061316e565b4060001c905060006040518061012001604052803373ffffffffffffffffffffffffffffffffffffffff16815260200183815260200185815260200184815260200160405180602001604052806000815250815260200160008152602001600081526020016000815260200160001515815250905080600160003373ffffffffffffffffffffffffffffffffffffffff1673ffffffffffffffffffffffffffffffffffffffff168152602001908152602001600020600084815260200190815260200160002060008201518160000160006101000a81548173ffffffffffffffffffffffffffffffffffffffff021916908373ffffffffffffffffffffffffffffffffffffffff160217905550602082015181600101556040820151816002019080519060200190611e72929190612772565b506060820151816003019080519060200190611e8f929190612772565b506080820151816004019080519060200190611eac929190612772565b5060a0820151816005015560c0820151816006015560e082015181600701556101008201518160080160006101000a81548160ff0219169083151502179055509050506000803373ffffffffffffffffffffffffffffffffffffffff1673ffffffffffffffffffffffffffffffffffffffff16815260200190815260200160002082908060018154018082558091505060019003906000526020600020016000909190919091505550505050565b6060611f6733848461069d565b905092915050565b80600860003373ffffffffffffffffffffffffffffffffffffffff1673ffffffffffffffffffffffffffffffffffffffff1681526020019081526020016000206001019080519060200190611fc5929190612772565b5050565b6000600660003373ffffffffffffffffffffffffffffffffffffffff1673ffffffffffffffffffffffffffffffffffffffff168152602001908152602001600020600083815260200190815260200160002060009054906101000a900460ff169050919050565b606060008367ffffffffffffffff81111561204e5761204d612c83565b5b60405190808252806020026020018201604052801561208757816020015b61207461270e565b81526020019060019003908161206c5790505b5090506000600360008773ffffffffffffffffffffffffffffffffffffffff1673ffffffffffffffffffffffffffffffffffffffff16815260200190815260200160002090506000600260008873ffffffffffffffffffffffffffffffffffffffff1673ffffffffffffffffffffffffffffffffffffffff168152602001908152602001600020905060008180549050905060005b878110801561213557508187826121339190613118565b105b1561241d576000838860018461214b9190613118565b85612156919061316e565b612160919061316e565b81548110612171576121706131a2565b5b90600052602060002001549050846000828152602001908152602001600020604051806101200160405290816000820160009054906101000a900473ffffffffffffffffffffffffffffffffffffffff1673ffffffffffffffffffffffffffffffffffffffff1673ffffffffffffffffffffffffffffffffffffffff1681526020016001820154815260200160028201805461220c906130b7565b80601f0160208091040260200160405190810160405280929190818152602001828054612238906130b7565b80156122855780601f1061225a57610100808354040283529160200191612285565b820191906000526020600020905b81548152906001019060200180831161226857829003601f168201915b5050505050815260200160038201805461229e906130b7565b80601f01602080910402602001604051908101604052809291908181526020018280546122ca906130b7565b80156123175780601f106122ec57610100808354040283529160200191612317565b820191906000526020600020905b8154815290600101906020018083116122fa57829003601f168201915b50505050508152602001600482018054612330906130b7565b80601f016020809104026020016040519081016040528092919081815260200182805461235c906130b7565b80156123a95780601f1061237e576101008083540402835291602001916123a9565b820191906000526020600020905b81548152906001019060200180831161238c57829003601f168201915b505050505081526020016005820154815260200160068201548152602001600782015481526020016008820160009054906101000a900460ff1615151515815250508683815181106123fe576123fd6131a2565b5b6020026020010181905250508080612415906131d1565b91505061211c565b50839450505050509392505050565b6000600760008373ffffffffffffffffffffffffffffffffffffffff1673ffffffffffffffffffffffffffffffffffffffff168152602001908152602001600020600085815260200190815260200160002060009054906101000a900460ff1615905080600760008473ffffffffffffffffffffffffffffffffffffffff1673ffffffffffffffffffffffffffffffffffffffff168152602001908152602001600020600086815260200190815260200160002060006101000a81548160ff02191690831515021790555080156125a857600360008373ffffffffffffffffffffffffffffffffffffffff1673ffffffffffffffffffffffffffffffffffffffff16815260200190815260200160002060008581526020019081526020016000206005016000815480929190612561906131d1565b9190505550600560008481526020019081526020016000206000858152602001908152602001600020600501600081548092919061259e906131d1565b919050555061264f565b600360008373ffffffffffffffffffffffffffffffffffffffff1673ffffffffffffffffffffffffffffffffffffffff1681526020019081526020016000206000858152602001908152602001600020600501600081548092919061260c9061321a565b919050555060056000848152602001908152602001600020600085815260200190815260200160002060050160008154809291906126499061321a565b91905055505b50505050565b80600860003373ffffffffffffffffffffffffffffffffffffffff1673ffffffffffffffffffffffffffffffffffffffff16815260200190815260200160002060030190805190602001906126ab929190612772565b5050565b604051806101000160405280600073ffffffffffffffffffffffffffffffffffffffff16815260200160608152602001606081526020016060815260200160008152602001600081526020016000151581526020016000151581525090565b604051806101200160405280600073ffffffffffffffffffffffffffffffffffffffff168152602001600081526020016060815260200160608152602001606081526020016000815260200160008152602001600081526020016000151581525090565b82805461277e906130b7565b90600052602060002090601f0160209004810192826127a057600085556127e7565b82601f106127b957805160ff19168380011785556127e7565b828001600101855582156127e7579182015b828111156127e65782518255916020019190600101906127cb565b5b5090506127f491906127f8565b5090565b5b808211156128115760008160009055506001016127f9565b5090565b600073ffffffffffffffffffffffffffffffffffffffff82169050919050565b600061284082612815565b9050919050565b61285081612835565b82525050565b600081519050919050565b600082825260208201905092915050565b60005b83811015612890578082015181840152602081019050612875565b8381111561289f576000848401525b50505050565b6000601f19601f8301169050919050565b60006128c182612856565b6128cb8185612861565b93506128db818560208601612872565b6128e4816128a5565b840191505092915050565b6000819050919050565b612902816128ef565b82525050565b60008115159050919050565b61291d81612908565b82525050565b60006101008301600083015161293c6000860182612847565b506020830151848203602086015261295482826128b6565b9150506040830151848203604086015261296e82826128b6565b9150506060830151848203606086015261298882826128b6565b915050608083015161299d60808601826128f9565b5060a08301516129b060a08601826128f9565b5060c08301516129c360c0860182612914565b5060e08301516129d660e0860182612914565b508091505092915050565b600060208201905081810360008301526129fb8184612923565b905092915050565b6000604051905090565b600080fd5b600080fd5b612a2081612835565b8114612a2b57600080fd5b50565b600081359050612a3d81612a17565b92915050565b612a4c816128ef565b8114612a5757600080fd5b50565b600081359050612a6981612a43565b92915050565b600080600060608486031215612a8857612a87612a0d565b5b6000612a9686828701612a2e565b9350506020612aa786828701612a5a565b9250506040612ab886828701612a5a565b9150509250925092565b600081519050919050565b600082825260208201905092915050565b6000819050602082019050919050565b600061012083016000830151612b076000860182612847565b506020830151612b1a60208601826128f9565b5060408301518482036040860152612b3282826128b6565b91505060608301518482036060860152612b4c82826128b6565b91505060808301518482036080860152612b6682826128b6565b91505060a0830151612b7b60a08601826128f9565b5060c0830151612b8e60c08601826128f9565b5060e0830151612ba160e08601826128f9565b50610100830151612bb6610100860182612914565b508091505092915050565b6000612bcd8383612aee565b905092915050565b6000602082019050919050565b6000612bed82612ac2565b612bf78185612acd565b935083602082028501612c0985612ade565b8060005b85811015612c455784840389528151612c268582612bc1565b9450612c3183612bd5565b925060208a01995050600181019050612c0d565b50829750879550505050505092915050565b60006020820190508181036000830152612c718184612be2565b905092915050565b600080fd5b600080fd5b7f4e487b7100000000000000000000000000000000000000000000000000000000600052604160045260246000fd5b612cbb826128a5565b810181811067ffffffffffffffff82111715612cda57612cd9612c83565b5b80604052505050565b6000612ced612a03565b9050612cf98282612cb2565b919050565b600067ffffffffffffffff821115612d1957612d18612c83565b5b612d22826128a5565b9050602081019050919050565b82818337600083830152505050565b6000612d51612d4c84612cfe565b612ce3565b905082815260208101848484011115612d6d57612d6c612c7e565b5b612d78848285612d2f565b509392505050565b600082601f830112612d9557612d94612c79565b5b8135612da5848260208601612d3e565b91505092915050565b600080600060608486031215612dc757612dc6612a0d565b5b6000612dd586828701612a5a565b9350506020612de686828701612a2e565b925050604084013567ffffffffffffffff811115612e0757612e06612a12565b5b612e1386828701612d80565b9150509250925092565b600060208284031215612e3357612e32612a0d565b5b6000612e4184828501612a2e565b91505092915050565b60008060408385031215612e6157612e60612a0d565b5b6000612e6f85828601612a2e565b9250506020612e8085828601612a5a565b9150509250929050565b600060208284031215612ea057612e9f612a0d565b5b6000612eae84828501612a5a565b91505092915050565b600060208284031215612ecd57612ecc612a0d565b5b600082013567ffffffffffffffff811115612eeb57612eea612a12565b5b612ef784828501612d80565b91505092915050565b612f0981612908565b82525050565b6000602082019050612f246000830184612f00565b92915050565b600080600060608486031215612f4357612f42612a0d565b5b6000612f5186828701612a5a565b9350506020612f6286828701612a5a565b9250506040612f7386828701612a5a565b9150509250925092565b60008060408385031215612f9457612f93612a0d565b5b600083013567ffffffffffffffff811115612fb257612fb1612a12565b5b612fbe85828601612d80565b925050602083013567ffffffffffffffff811115612fdf57612fde612a12565b5b612feb85828601612d80565b9150509250929050565b6000806040838503121561300c5761300b612a0d565b5b600061301a85828601612a5a565b925050602061302b85828601612a5a565b9150509250929050565b60008060006060848603121561304e5761304d612a0d565b5b600061305c86828701612a5a565b935050602061306d86828701612a5a565b925050604061307e86828701612a2e565b9150509250925092565b7f4e487b7100000000000000000000000000000000000000000000000000000000600052602260045260246000fd5b600060028204905060018216806130cf57607f821691505b602082108114156130e3576130e2613088565b5b50919050565b7f4e487b7100000000000000000000000000000000000000000000000000000000600052601160045260246000fd5b6000613123826128ef565b915061312e836128ef565b9250827fffffffffffffffffffffffffffffffffffffffffffffffffffffffffffffffff03821115613163576131626130e9565b5b828201905092915050565b6000613179826128ef565b9150613184836128ef565b925082821015613197576131966130e9565b5b828203905092915050565b7f4e487b7100000000000000000000000000000000000000000000000000000000600052603260045260246000fd5b60006131dc826128ef565b91507fffffffffffffffffffffffffffffffffffffffffffffffffffffffffffffffff82141561320f5761320e6130e9565b5b600182019050919050565b6000613225826128ef565b91506000821415613239576132386130e9565b5b60018203905091905056fea264697066735822122017e74c50042ea1f14718a5cbf9498bf96efa84b6bf5cc3add620926ea5d119a464736f6c634300080a0033",
  "immutableReferences": {},
  "source": "// SPDX-License-Identifier: GPL-3.0\n\npragma solidity >=0.7.0 <0.9.0;\n\nimport './Replies.sol';\nimport './Likes.sol';\nimport './Profiles.sol';\n\ncontract SocialSwap is Likes, Profiles {\n}",
  "sourcePath": "/Users/chriscushman/smartcontract/contracts/SocialSwap.sol",
  "compiler": {
    "name": "solc",
    "version": "0.8.10+commit.fc410830.Emscripten.clang"
  },
  "schemaVersion": "3.4.3",
  "updatedAt": "2021-11-23T01:39:27.318Z",
  "devdoc": {
    "kind": "dev",
    "methods": {
      "retrieveMyProfile()": {
        "details": "Fetch own profile",
        "returns": {
          "_0": "profile"
        }
      },
      "retrieveProfile(address)": {
        "details": "Fetch user's profile",
        "returns": {
          "_0": "profile"
        }
      },
      "setBio(string)": {
        "details": "Set bio on own profile",
        "params": {
          "bio": "the bio to be set"
        }
      },
      "setFollowerCount(uint256)": {
        "details": "Set the follower count of own profile",
        "params": {
          "followerCount": "the follower count to be set"
        }
      },
      "setFollowerCountForAddress(address,uint256)": {
        "details": "Set the follower count of a profile",
        "params": {
          "adr": "the address of the profile",
          "followerCount": "the follower count to be set"
        }
      },
      "setFollowingCount(uint256)": {
        "details": "Set the following count of own profile",
        "params": {
          "followingCount": "the following count to be set"
        }
      },
      "setFollowingCountForAddress(address,uint256)": {
        "details": "Set the following count of a profile",
        "params": {
          "adr": "the address of the profile",
          "followingCount": "the following count to be set"
        }
      },
      "setName(string)": {
        "details": "Set name on own profile",
        "params": {
          "name": "the name to be set"
        }
      },
      "setProfilePictureUrl(string)": {
        "details": "Set profile picture url on own profile",
        "params": {
          "profilePictureUrl": "the profile picture url to be set"
        }
      }
    },
    "version": 1
  },
  "userdoc": {
    "kind": "user",
    "methods": {},
    "version": 1
  }
}