{
  "contractName": "UserPosts",
  "abi": [
    {
      "inputs": [
        {
          "internalType": "string",
          "name": "title",
          "type": "string"
        },
        {
          "internalType": "string",
          "name": "description",
          "type": "string"
        }
      ],
      "name": "addPost",
      "outputs": [],
      "stateMutability": "nonpayable",
      "type": "function"
    },
    {
      "inputs": [
        {
          "internalType": "uint256",
          "name": "limit",
          "type": "uint256"
        },
        {
          "internalType": "uint256",
          "name": "offset",
          "type": "uint256"
        }
      ],
      "name": "getMyPosts",
      "outputs": [
        {
          "components": [
            {
              "internalType": "address",
              "name": "author",
              "type": "address"
            },
            {
              "internalType": "uint256",
              "name": "postId",
              "type": "uint256"
            },
            {
              "internalType": "string",
              "name": "title",
              "type": "string"
            },
            {
              "internalType": "string",
              "name": "description",
              "type": "string"
            },
            {
              "internalType": "string",
              "name": "externalLink",
              "type": "string"
            },
            {
              "internalType": "uint256",
              "name": "likeCount",
              "type": "uint256"
            },
            {
              "internalType": "uint256",
              "name": "replyCount",
              "type": "uint256"
            },
            {
              "internalType": "uint256",
              "name": "shareCount",
              "type": "uint256"
            },
            {
              "internalType": "bool",
              "name": "isReply",
              "type": "bool"
            }
          ],
          "internalType": "struct UserPosts.Post[]",
          "name": "",
          "type": "tuple[]"
        }
      ],
      "stateMutability": "view",
      "type": "function",
      "constant": true
    },
    {
      "inputs": [
        {
          "internalType": "address",
          "name": "adr",
          "type": "address"
        },
        {
          "internalType": "uint256",
          "name": "limit",
          "type": "uint256"
        },
        {
          "internalType": "uint256",
          "name": "offset",
          "type": "uint256"
        }
      ],
      "name": "getUserPosts",
      "outputs": [
        {
          "components": [
            {
              "internalType": "address",
              "name": "author",
              "type": "address"
            },
            {
              "internalType": "uint256",
              "name": "postId",
              "type": "uint256"
            },
            {
              "internalType": "string",
              "name": "title",
              "type": "string"
            },
            {
              "internalType": "string",
              "name": "description",
              "type": "string"
            },
            {
              "internalType": "string",
              "name": "externalLink",
              "type": "string"
            },
            {
              "internalType": "uint256",
              "name": "likeCount",
              "type": "uint256"
            },
            {
              "internalType": "uint256",
              "name": "replyCount",
              "type": "uint256"
            },
            {
              "internalType": "uint256",
              "name": "shareCount",
              "type": "uint256"
            },
            {
              "internalType": "bool",
              "name": "isReply",
              "type": "bool"
            }
          ],
          "internalType": "struct UserPosts.Post[]",
          "name": "",
          "type": "tuple[]"
        }
      ],
      "stateMutability": "view",
      "type": "function",
      "constant": true
    }
  ],
  "bytecode": "0x608060405234801561001057600080fd5b50610f3c806100206000396000f3fe608060405234801561001057600080fd5b50600436106100415760003560e01c80633a24cb7b14610046578063b02c651614610076578063c3fd823614610092575b600080fd5b610060600480360381019061005b91906108ab565b6100c2565b60405161006d9190610b65565b60405180910390f35b610090600480360381019061008b9190610cbc565b6104bd565b005b6100ac60048036038101906100a79190610d34565b6106e7565b6040516100b99190610b65565b60405180910390f35b606060008367ffffffffffffffff8111156100e0576100df610b91565b5b60405190808252806020026020018201604052801561011957816020015b6101066106fc565b8152602001906001900390816100fe5790505b5090506000600160008773ffffffffffffffffffffffffffffffffffffffff1673ffffffffffffffffffffffffffffffffffffffff168152602001908152602001600020905060008060008873ffffffffffffffffffffffffffffffffffffffff1673ffffffffffffffffffffffffffffffffffffffff168152602001908152602001600020905060008180549050905060005b87811080156101c657508187826101c49190610da3565b105b156104ae57600083886001846101dc9190610da3565b856101e79190610df9565b6101f19190610df9565b8154811061020257610201610e2d565b5b90600052602060002001549050846000828152602001908152602001600020604051806101200160405290816000820160009054906101000a900473ffffffffffffffffffffffffffffffffffffffff1673ffffffffffffffffffffffffffffffffffffffff1673ffffffffffffffffffffffffffffffffffffffff1681526020016001820154815260200160028201805461029d90610e8b565b80601f01602080910402602001604051908101604052809291908181526020018280546102c990610e8b565b80156103165780601f106102eb57610100808354040283529160200191610316565b820191906000526020600020905b8154815290600101906020018083116102f957829003601f168201915b5050505050815260200160038201805461032f90610e8b565b80601f016020809104026020016040519081016040528092919081815260200182805461035b90610e8b565b80156103a85780601f1061037d576101008083540402835291602001916103a8565b820191906000526020600020905b81548152906001019060200180831161038b57829003601f168201915b505050505081526020016004820180546103c190610e8b565b80601f01602080910402602001604051908101604052809291908181526020018280546103ed90610e8b565b801561043a5780601f1061040f5761010080835404028352916020019161043a565b820191906000526020600020905b81548152906001019060200180831161041d57829003601f168201915b505050505081526020016005820154815260200160068201548152602001600782015481526020016008820160009054906101000a900460ff16151515158152505086838151811061048f5761048e610e2d565b5b60200260200101819052505080806104a690610ebd565b9150506101ad565b50839450505050509392505050565b60006001436104cc9190610df9565b4060001c905060006040518061012001604052803373ffffffffffffffffffffffffffffffffffffffff16815260200183815260200185815260200184815260200160405180602001604052806000815250815260200160008152602001600081526020016000815260200160001515815250905080600160003373ffffffffffffffffffffffffffffffffffffffff1673ffffffffffffffffffffffffffffffffffffffff168152602001908152602001600020600084815260200190815260200160002060008201518160000160006101000a81548173ffffffffffffffffffffffffffffffffffffffff021916908373ffffffffffffffffffffffffffffffffffffffff1602179055506020820151816001015560408201518160020190805190602001906105ff929190610760565b50606082015181600301908051906020019061061c929190610760565b506080820151816004019080519060200190610639929190610760565b5060a0820151816005015560c0820151816006015560e082015181600701556101008201518160080160006101000a81548160ff0219169083151502179055509050506000803373ffffffffffffffffffffffffffffffffffffffff1673ffffffffffffffffffffffffffffffffffffffff16815260200190815260200160002082908060018154018082558091505060019003906000526020600020016000909190919091505550505050565b60606106f43384846100c2565b905092915050565b604051806101200160405280600073ffffffffffffffffffffffffffffffffffffffff168152602001600081526020016060815260200160608152602001606081526020016000815260200160008152602001600081526020016000151581525090565b82805461076c90610e8b565b90600052602060002090601f01602090048101928261078e57600085556107d5565b82601f106107a757805160ff19168380011785556107d5565b828001600101855582156107d5579182015b828111156107d45782518255916020019190600101906107b9565b5b5090506107e291906107e6565b5090565b5b808211156107ff5760008160009055506001016107e7565b5090565b6000604051905090565b600080fd5b600080fd5b600073ffffffffffffffffffffffffffffffffffffffff82169050919050565b600061084282610817565b9050919050565b61085281610837565b811461085d57600080fd5b50565b60008135905061086f81610849565b92915050565b6000819050919050565b61088881610875565b811461089357600080fd5b50565b6000813590506108a58161087f565b92915050565b6000806000606084860312156108c4576108c361080d565b5b60006108d286828701610860565b93505060206108e386828701610896565b92505060406108f486828701610896565b9150509250925092565b600081519050919050565b600082825260208201905092915050565b6000819050602082019050919050565b61093381610837565b82525050565b61094281610875565b82525050565b600081519050919050565b600082825260208201905092915050565b60005b83811015610982578082015181840152602081019050610967565b83811115610991576000848401525b50505050565b6000601f19601f8301169050919050565b60006109b382610948565b6109bd8185610953565b93506109cd818560208601610964565b6109d681610997565b840191505092915050565b60008115159050919050565b6109f6816109e1565b82525050565b600061012083016000830151610a15600086018261092a565b506020830151610a286020860182610939565b5060408301518482036040860152610a4082826109a8565b91505060608301518482036060860152610a5a82826109a8565b91505060808301518482036080860152610a7482826109a8565b91505060a0830151610a8960a0860182610939565b5060c0830151610a9c60c0860182610939565b5060e0830151610aaf60e0860182610939565b50610100830151610ac46101008601826109ed565b508091505092915050565b6000610adb83836109fc565b905092915050565b6000602082019050919050565b6000610afb826108fe565b610b058185610909565b935083602082028501610b178561091a565b8060005b85811015610b535784840389528151610b348582610acf565b9450610b3f83610ae3565b925060208a01995050600181019050610b1b565b50829750879550505050505092915050565b60006020820190508181036000830152610b7f8184610af0565b905092915050565b600080fd5b600080fd5b7f4e487b7100000000000000000000000000000000000000000000000000000000600052604160045260246000fd5b610bc982610997565b810181811067ffffffffffffffff82111715610be857610be7610b91565b5b80604052505050565b6000610bfb610803565b9050610c078282610bc0565b919050565b600067ffffffffffffffff821115610c2757610c26610b91565b5b610c3082610997565b9050602081019050919050565b82818337600083830152505050565b6000610c5f610c5a84610c0c565b610bf1565b905082815260208101848484011115610c7b57610c7a610b8c565b5b610c86848285610c3d565b509392505050565b600082601f830112610ca357610ca2610b87565b5b8135610cb3848260208601610c4c565b91505092915050565b60008060408385031215610cd357610cd261080d565b5b600083013567ffffffffffffffff811115610cf157610cf0610812565b5b610cfd85828601610c8e565b925050602083013567ffffffffffffffff811115610d1e57610d1d610812565b5b610d2a85828601610c8e565b9150509250929050565b60008060408385031215610d4b57610d4a61080d565b5b6000610d5985828601610896565b9250506020610d6a85828601610896565b9150509250929050565b7f4e487b7100000000000000000000000000000000000000000000000000000000600052601160045260246000fd5b6000610dae82610875565b9150610db983610875565b9250827fffffffffffffffffffffffffffffffffffffffffffffffffffffffffffffffff03821115610dee57610ded610d74565b5b828201905092915050565b6000610e0482610875565b9150610e0f83610875565b925082821015610e2257610e21610d74565b5b828203905092915050565b7f4e487b7100000000000000000000000000000000000000000000000000000000600052603260045260246000fd5b7f4e487b7100000000000000000000000000000000000000000000000000000000600052602260045260246000fd5b60006002820490506001821680610ea357607f821691505b60208210811415610eb757610eb6610e5c565b5b50919050565b6000610ec882610875565b91507fffffffffffffffffffffffffffffffffffffffffffffffffffffffffffffffff821415610efb57610efa610d74565b5b60018201905091905056fea2646970667358221220642cef60c4213cc4af41772ecc5c2e1cda66ee40f5c4a196a91408102c321a1b64736f6c634300080a0033",
  "immutableReferences": {},
  "source": "// SPDX-License-Identifier: GPL-3.0\n\npragma solidity >=0.7.0 <0.9.0;\n\ncontract UserPosts {\n\n    struct Post {\n        address author;\n        uint postId;\n        string title;\n        string description;\n        string externalLink;\n        uint likeCount;\n        uint replyCount;\n        uint shareCount;\n        bool isReply;\n    }\n\n    mapping(address => uint[]) userPostKeys;\n    mapping(address => mapping(uint => Post)) userPosts;\n\n    function addPost(string memory title, string memory description) public {\n        uint randomNum = uint(blockhash(block.number - 1));\n        Post memory post = Post(msg.sender, randomNum, title, description, \"\", 0, 0, 0, false);   \n        userPosts[msg.sender][randomNum] = post;\n        userPostKeys[msg.sender].push(randomNum);\n    }\n\n    function getMyPosts(uint limit, uint offset) public view returns (Post[] memory) {\n        return getUserPosts(msg.sender, limit, offset);\n    }\n\n    function getUserPosts(address adr, uint limit, uint offset) public view returns (Post[] memory) {\n        Post[] memory postsSubset = new Post[](limit);\n        mapping(uint => Post) storage currentUserPosts = userPosts[adr];\n        uint[] storage currentUserPostKeys = userPostKeys[adr];\n        uint length = currentUserPostKeys.length;\n        for (uint x = 0; x < limit && (x + offset) < length; x++) {\n            uint postId = currentUserPostKeys[length - (x + 1) - offset];\n            postsSubset[x] = currentUserPosts[postId];\n        }\n\n        return postsSubset;\n    }\n}",
  "sourcePath": "/Users/chriscushman/smartcontract/contracts/UserPosts.sol",
  "compiler": {
    "name": "solc",
    "version": "0.8.10+commit.fc410830.Emscripten.clang"
  },
  "schemaVersion": "3.4.3",
  "updatedAt": "2021-11-23T01:40:21.853Z",
  "networkType": "ethereum",
  "devdoc": {
    "kind": "dev",
    "methods": {},
    "version": 1
  },
  "userdoc": {
    "kind": "user",
    "methods": {},
    "version": 1
  }
}