{
  "contractName": "UserPosts",
  "abi": [
    {
      "inputs": [
        {
          "internalType": "address",
          "name": "adr",
          "type": "address"
        }
      ],
      "name": "followUser",
      "outputs": [],
      "stateMutability": "nonpayable",
      "type": "function"
    },
    {
      "inputs": [
        {
          "internalType": "address",
          "name": "adr",
          "type": "address"
        }
      ],
      "name": "getFollowers",
      "outputs": [
        {
          "components": [
            {
              "internalType": "address",
              "name": "adr",
              "type": "address"
            },
            {
              "internalType": "string",
              "name": "name",
              "type": "string"
            },
            {
              "internalType": "string",
              "name": "profilePictureUrl",
              "type": "string"
            },
            {
              "internalType": "string",
              "name": "bio",
              "type": "string"
            },
            {
              "internalType": "uint256",
              "name": "followerCount",
              "type": "uint256"
            },
            {
              "internalType": "uint256",
              "name": "followingCount",
              "type": "uint256"
            },
            {
              "internalType": "bool",
              "name": "unfollowed",
              "type": "bool"
            },
            {
              "internalType": "bool",
              "name": "unfollowing",
              "type": "bool"
            }
          ],
          "internalType": "struct Profiles.Profile[]",
          "name": "",
          "type": "tuple[]"
        }
      ],
      "stateMutability": "view",
      "type": "function"
    },
    {
      "inputs": [
        {
          "internalType": "address",
          "name": "adr",
          "type": "address"
        }
      ],
      "name": "getFollowing",
      "outputs": [
        {
          "components": [
            {
              "internalType": "address",
              "name": "adr",
              "type": "address"
            },
            {
              "internalType": "string",
              "name": "name",
              "type": "string"
            },
            {
              "internalType": "string",
              "name": "profilePictureUrl",
              "type": "string"
            },
            {
              "internalType": "string",
              "name": "bio",
              "type": "string"
            },
            {
              "internalType": "uint256",
              "name": "followerCount",
              "type": "uint256"
            },
            {
              "internalType": "uint256",
              "name": "followingCount",
              "type": "uint256"
            },
            {
              "internalType": "bool",
              "name": "unfollowed",
              "type": "bool"
            },
            {
              "internalType": "bool",
              "name": "unfollowing",
              "type": "bool"
            }
          ],
          "internalType": "struct Profiles.Profile[]",
          "name": "",
          "type": "tuple[]"
        }
      ],
      "stateMutability": "view",
      "type": "function"
    },
    {
      "inputs": [
        {
          "internalType": "address",
          "name": "adr",
          "type": "address"
        }
      ],
      "name": "getIsUserFollowingMe",
      "outputs": [
        {
          "internalType": "bool",
          "name": "",
          "type": "bool"
        }
      ],
      "stateMutability": "view",
      "type": "function"
    },
    {
      "inputs": [],
      "name": "getMyFollowers",
      "outputs": [
        {
          "components": [
            {
              "internalType": "address",
              "name": "adr",
              "type": "address"
            },
            {
              "internalType": "string",
              "name": "name",
              "type": "string"
            },
            {
              "internalType": "string",
              "name": "profilePictureUrl",
              "type": "string"
            },
            {
              "internalType": "string",
              "name": "bio",
              "type": "string"
            },
            {
              "internalType": "uint256",
              "name": "followerCount",
              "type": "uint256"
            },
            {
              "internalType": "uint256",
              "name": "followingCount",
              "type": "uint256"
            },
            {
              "internalType": "bool",
              "name": "unfollowed",
              "type": "bool"
            },
            {
              "internalType": "bool",
              "name": "unfollowing",
              "type": "bool"
            }
          ],
          "internalType": "struct Profiles.Profile[]",
          "name": "",
          "type": "tuple[]"
        }
      ],
      "stateMutability": "view",
      "type": "function"
    },
    {
      "inputs": [],
      "name": "getMyProfile",
      "outputs": [
        {
          "components": [
            {
              "internalType": "address",
              "name": "adr",
              "type": "address"
            },
            {
              "internalType": "string",
              "name": "name",
              "type": "string"
            },
            {
              "internalType": "string",
              "name": "profilePictureUrl",
              "type": "string"
            },
            {
              "internalType": "string",
              "name": "bio",
              "type": "string"
            },
            {
              "internalType": "uint256",
              "name": "followerCount",
              "type": "uint256"
            },
            {
              "internalType": "uint256",
              "name": "followingCount",
              "type": "uint256"
            },
            {
              "internalType": "bool",
              "name": "unfollowed",
              "type": "bool"
            },
            {
              "internalType": "bool",
              "name": "unfollowing",
              "type": "bool"
            }
          ],
          "internalType": "struct Profiles.Profile",
          "name": "",
          "type": "tuple"
        }
      ],
      "stateMutability": "view",
      "type": "function"
    },
    {
      "inputs": [
        {
          "internalType": "address",
          "name": "adr",
          "type": "address"
        }
      ],
      "name": "getProfile",
      "outputs": [
        {
          "components": [
            {
              "internalType": "address",
              "name": "adr",
              "type": "address"
            },
            {
              "internalType": "string",
              "name": "name",
              "type": "string"
            },
            {
              "internalType": "string",
              "name": "profilePictureUrl",
              "type": "string"
            },
            {
              "internalType": "string",
              "name": "bio",
              "type": "string"
            },
            {
              "internalType": "uint256",
              "name": "followerCount",
              "type": "uint256"
            },
            {
              "internalType": "uint256",
              "name": "followingCount",
              "type": "uint256"
            },
            {
              "internalType": "bool",
              "name": "unfollowed",
              "type": "bool"
            },
            {
              "internalType": "bool",
              "name": "unfollowing",
              "type": "bool"
            }
          ],
          "internalType": "struct Profiles.Profile",
          "name": "",
          "type": "tuple"
        }
      ],
      "stateMutability": "view",
      "type": "function"
    },
    {
      "inputs": [
        {
          "internalType": "string",
          "name": "bio",
          "type": "string"
        }
      ],
      "name": "setBio",
      "outputs": [],
      "stateMutability": "nonpayable",
      "type": "function"
    },
    {
      "inputs": [
        {
          "internalType": "uint256",
          "name": "followerCount",
          "type": "uint256"
        }
      ],
      "name": "setFollowerCount",
      "outputs": [],
      "stateMutability": "nonpayable",
      "type": "function"
    },
    {
      "inputs": [
        {
          "internalType": "address",
          "name": "adr",
          "type": "address"
        },
        {
          "internalType": "uint256",
          "name": "followerCount",
          "type": "uint256"
        }
      ],
      "name": "setFollowerCountForAddress",
      "outputs": [],
      "stateMutability": "nonpayable",
      "type": "function"
    },
    {
      "inputs": [
        {
          "internalType": "uint256",
          "name": "followingCount",
          "type": "uint256"
        }
      ],
      "name": "setFollowingCount",
      "outputs": [],
      "stateMutability": "nonpayable",
      "type": "function"
    },
    {
      "inputs": [
        {
          "internalType": "address",
          "name": "adr",
          "type": "address"
        },
        {
          "internalType": "uint256",
          "name": "followingCount",
          "type": "uint256"
        }
      ],
      "name": "setFollowingCountForAddress",
      "outputs": [],
      "stateMutability": "nonpayable",
      "type": "function"
    },
    {
      "inputs": [
        {
          "internalType": "string",
          "name": "name",
          "type": "string"
        }
      ],
      "name": "setName",
      "outputs": [],
      "stateMutability": "nonpayable",
      "type": "function"
    },
    {
      "inputs": [
        {
          "internalType": "string",
          "name": "name",
          "type": "string"
        },
        {
          "internalType": "string",
          "name": "profilePictureUrl",
          "type": "string"
        },
        {
          "internalType": "string",
          "name": "bio",
          "type": "string"
        }
      ],
      "name": "setProfileInfo",
      "outputs": [],
      "stateMutability": "nonpayable",
      "type": "function"
    },
    {
      "inputs": [
        {
          "internalType": "string",
          "name": "profilePictureUrl",
          "type": "string"
        }
      ],
      "name": "setProfilePictureUrl",
      "outputs": [],
      "stateMutability": "nonpayable",
      "type": "function"
    },
    {
      "inputs": [
        {
          "internalType": "address",
          "name": "adr",
          "type": "address"
        }
      ],
      "name": "unfollowUser",
      "outputs": [],
      "stateMutability": "nonpayable",
      "type": "function"
    },
    {
      "inputs": [
        {
          "internalType": "string",
          "name": "title",
          "type": "string"
        },
        {
          "internalType": "string",
          "name": "description",
          "type": "string"
        }
      ],
      "name": "postToMyFeed",
      "outputs": [],
      "stateMutability": "nonpayable",
      "type": "function"
    },
    {
      "inputs": [
        {
          "internalType": "uint256",
          "name": "limit",
          "type": "uint256"
        },
        {
          "internalType": "uint256",
          "name": "offset",
          "type": "uint256"
        }
      ],
      "name": "getMyPosts",
      "outputs": [
        {
          "components": [
            {
              "internalType": "address",
              "name": "author",
              "type": "address"
            },
            {
              "internalType": "uint256",
              "name": "postId",
              "type": "uint256"
            },
            {
              "internalType": "string",
              "name": "title",
              "type": "string"
            },
            {
              "internalType": "string",
              "name": "description",
              "type": "string"
            },
            {
              "internalType": "string",
              "name": "externalLink",
              "type": "string"
            },
            {
              "internalType": "uint256",
              "name": "likeCount",
              "type": "uint256"
            },
            {
              "internalType": "uint256",
              "name": "replyCount",
              "type": "uint256"
            },
            {
              "internalType": "uint256",
              "name": "shareCount",
              "type": "uint256"
            },
            {
              "internalType": "bool",
              "name": "isReply",
              "type": "bool"
            }
          ],
          "internalType": "struct UserPosts.Post[]",
          "name": "",
          "type": "tuple[]"
        }
      ],
      "stateMutability": "view",
      "type": "function"
    },
    {
      "inputs": [
        {
          "internalType": "address",
          "name": "adr",
          "type": "address"
        },
        {
          "internalType": "uint256",
          "name": "limit",
          "type": "uint256"
        },
        {
          "internalType": "uint256",
          "name": "offset",
          "type": "uint256"
        }
      ],
      "name": "getUserPosts",
      "outputs": [
        {
          "components": [
            {
              "internalType": "address",
              "name": "author",
              "type": "address"
            },
            {
              "internalType": "uint256",
              "name": "postId",
              "type": "uint256"
            },
            {
              "internalType": "string",
              "name": "title",
              "type": "string"
            },
            {
              "internalType": "string",
              "name": "description",
              "type": "string"
            },
            {
              "internalType": "string",
              "name": "externalLink",
              "type": "string"
            },
            {
              "internalType": "uint256",
              "name": "likeCount",
              "type": "uint256"
            },
            {
              "internalType": "uint256",
              "name": "replyCount",
              "type": "uint256"
            },
            {
              "internalType": "uint256",
              "name": "shareCount",
              "type": "uint256"
            },
            {
              "internalType": "bool",
              "name": "isReply",
              "type": "bool"
            }
          ],
          "internalType": "struct UserPosts.Post[]",
          "name": "",
          "type": "tuple[]"
        }
      ],
      "stateMutability": "view",
      "type": "function"
    },
    {
      "inputs": [
        {
          "internalType": "uint256",
          "name": "limit",
          "type": "uint256"
        },
        {
          "internalType": "uint256",
          "name": "offset",
          "type": "uint256"
        }
      ],
      "name": "getMySmallFryFeed",
      "outputs": [
        {
          "components": [
            {
              "internalType": "address",
              "name": "author",
              "type": "address"
            },
            {
              "internalType": "uint256",
              "name": "postId",
              "type": "uint256"
            },
            {
              "internalType": "string",
              "name": "title",
              "type": "string"
            },
            {
              "internalType": "string",
              "name": "description",
              "type": "string"
            },
            {
              "internalType": "string",
              "name": "externalLink",
              "type": "string"
            },
            {
              "internalType": "uint256",
              "name": "likeCount",
              "type": "uint256"
            },
            {
              "internalType": "uint256",
              "name": "replyCount",
              "type": "uint256"
            },
            {
              "internalType": "uint256",
              "name": "shareCount",
              "type": "uint256"
            },
            {
              "internalType": "bool",
              "name": "isReply",
              "type": "bool"
            }
          ],
          "internalType": "struct UserPosts.Post[]",
          "name": "",
          "type": "tuple[]"
        }
      ],
      "stateMutability": "view",
      "type": "function"
    }
  ],
  "bytecode": "0x60806040526101f460065534801561001657600080fd5b50613fe9806100266000396000f3fe608060405234801561001057600080fd5b506004361061012c5760003560e01c806391fc36ee116100ad578063c3fd823611610071578063c3fd82361461033d578063c47f00271461036d578063d8236dff14610389578063f107cfcb146103b9578063fb7e06d8146103d55761012c565b806391fc36ee14610275578063a02f4f4d14610291578063a5d4ccbc146102c1578063a70806f7146102f1578063c2fe20221461030d5761012c565b80636633330b116100f45780636633330b146101e757806375c96ba5146102055780637cd38b06146102215780638e11d6ff1461023d578063906eb124146102595761012c565b80630f53a4701461013157806321527e50146101615780633a24cb7b1461017f5780634dd9c968146101af5780635ce460a5146101cb575b600080fd5b61014b600480360381019061014691906134ec565b6103f1565b60405161015891906136b3565b60405180910390f35b6101696106a0565b60405161017691906136b3565b60405180910390f35b61019960048036038101906101949190613701565b61094d565b6040516101a691906138e9565b60405180910390f35b6101c960048036038101906101c4919061390b565b610d49565b005b6101e560048036038101906101e0919061390b565b610d93565b005b6101ef610ddd565b6040516101fc9190613acb565b60405180910390f35b61021f600480360381019061021a9190613c22565b6110d0565b005b61023b60048036038101906102369190613c9a565b611104565b005b61025760048036038101906102529190613cc7565b61114d565b005b610273600480360381019061026e9190613d6e565b611254565b005b61028f600480360381019061028a9190613c9a565b6112ad565b005b6102ab60048036038101906102a69190613db7565b6112f6565b6040516102b891906138e9565b60405180910390f35b6102db60048036038101906102d691906134ec565b6116f1565b6040516102e89190613e06565b60405180910390f35b61030b600480360381019061030691906134ec565b61188a565b005b610327600480360381019061032291906134ec565b612425565b6040516103349190613acb565b60405180910390f35b61035760048036038101906103529190613db7565b61271a565b60405161036491906138e9565b60405180910390f35b61038760048036038101906103829190613d6e565b61272f565b005b6103a3600480360381019061039e91906134ec565b612788565b6040516103b09190613acb565b60405180910390f35b6103d360048036038101906103ce91906134ec565b612a7d565b005b6103ef60048036038101906103ea9190613d6e565b612de6565b005b6103f9613314565b6000808373ffffffffffffffffffffffffffffffffffffffff1673ffffffffffffffffffffffffffffffffffffffff168152602001908152602001600020604051806101000160405290816000820160009054906101000a900473ffffffffffffffffffffffffffffffffffffffff1673ffffffffffffffffffffffffffffffffffffffff1673ffffffffffffffffffffffffffffffffffffffff1681526020016001820180546104a990613e50565b80601f01602080910402602001604051908101604052809291908181526020018280546104d590613e50565b80156105225780601f106104f757610100808354040283529160200191610522565b820191906000526020600020905b81548152906001019060200180831161050557829003601f168201915b5050505050815260200160028201805461053b90613e50565b80601f016020809104026020016040519081016040528092919081815260200182805461056790613e50565b80156105b45780601f10610589576101008083540402835291602001916105b4565b820191906000526020600020905b81548152906001019060200180831161059757829003601f168201915b505050505081526020016003820180546105cd90613e50565b80601f01602080910402602001604051908101604052809291908181526020018280546105f990613e50565b80156106465780601f1061061b57610100808354040283529160200191610646565b820191906000526020600020905b81548152906001019060200180831161062957829003601f168201915b5050505050815260200160048201548152602001600582015481526020016006820160009054906101000a900460ff161515151581526020016006820160019054906101000a900460ff1615151515815250509050919050565b6106a8613314565b6000803373ffffffffffffffffffffffffffffffffffffffff1673ffffffffffffffffffffffffffffffffffffffff168152602001908152602001600020604051806101000160405290816000820160009054906101000a900473ffffffffffffffffffffffffffffffffffffffff1673ffffffffffffffffffffffffffffffffffffffff1673ffffffffffffffffffffffffffffffffffffffff16815260200160018201805461075890613e50565b80601f016020809104026020016040519081016040528092919081815260200182805461078490613e50565b80156107d15780601f106107a6576101008083540402835291602001916107d1565b820191906000526020600020905b8154815290600101906020018083116107b457829003601f168201915b505050505081526020016002820180546107ea90613e50565b80601f016020809104026020016040519081016040528092919081815260200182805461081690613e50565b80156108635780601f1061083857610100808354040283529160200191610863565b820191906000526020600020905b81548152906001019060200180831161084657829003601f168201915b5050505050815260200160038201805461087c90613e50565b80601f01602080910402602001604051908101604052809291908181526020018280546108a890613e50565b80156108f55780601f106108ca576101008083540402835291602001916108f5565b820191906000526020600020905b8154815290600101906020018083116108d857829003601f168201915b5050505050815260200160048201548152602001600582015481526020016006820160009054906101000a900460ff161515151581526020016006820160019054906101000a900460ff161515151581525050905090565b606060008367ffffffffffffffff81111561096b5761096a613af7565b5b6040519080825280602002602001820160405280156109a457816020015b610991613373565b8152602001906001900390816109895790505b5090506000600860008773ffffffffffffffffffffffffffffffffffffffff1673ffffffffffffffffffffffffffffffffffffffff16815260200190815260200160002090506000600760008873ffffffffffffffffffffffffffffffffffffffff1673ffffffffffffffffffffffffffffffffffffffff168152602001908152602001600020905060008180549050905060005b8781108015610a525750818782610a509190613eb1565b105b15610d3a5760008388600184610a689190613eb1565b85610a739190613f07565b610a7d9190613f07565b81548110610a8e57610a8d613f3b565b5b90600052602060002001549050846000828152602001908152602001600020604051806101200160405290816000820160009054906101000a900473ffffffffffffffffffffffffffffffffffffffff1673ffffffffffffffffffffffffffffffffffffffff1673ffffffffffffffffffffffffffffffffffffffff16815260200160018201548152602001600282018054610b2990613e50565b80601f0160208091040260200160405190810160405280929190818152602001828054610b5590613e50565b8015610ba25780601f10610b7757610100808354040283529160200191610ba2565b820191906000526020600020905b815481529060010190602001808311610b8557829003601f168201915b50505050508152602001600382018054610bbb90613e50565b80601f0160208091040260200160405190810160405280929190818152602001828054610be790613e50565b8015610c345780601f10610c0957610100808354040283529160200191610c34565b820191906000526020600020905b815481529060010190602001808311610c1757829003601f168201915b50505050508152602001600482018054610c4d90613e50565b80601f0160208091040260200160405190810160405280929190818152602001828054610c7990613e50565b8015610cc65780601f10610c9b57610100808354040283529160200191610cc6565b820191906000526020600020905b815481529060010190602001808311610ca957829003601f168201915b505050505081526020016005820154815260200160068201548152602001600782015481526020016008820160009054906101000a900460ff161515151581525050868381518110610d1b57610d1a613f3b565b5b6020026020010181905250508080610d3290613f6a565b915050610a39565b50839450505050509392505050565b806000808473ffffffffffffffffffffffffffffffffffffffff1673ffffffffffffffffffffffffffffffffffffffff168152602001908152602001600020600401819055505050565b806000808473ffffffffffffffffffffffffffffffffffffffff1673ffffffffffffffffffffffffffffffffffffffff168152602001908152602001600020600501819055505050565b6060600360003373ffffffffffffffffffffffffffffffffffffffff1673ffffffffffffffffffffffffffffffffffffffff168152602001908152602001600020805480602002602001604051908101604052809291908181526020016000905b828210156110c75783829060005260206000209060070201604051806101000160405290816000820160009054906101000a900473ffffffffffffffffffffffffffffffffffffffff1673ffffffffffffffffffffffffffffffffffffffff1673ffffffffffffffffffffffffffffffffffffffff168152602001600182018054610ec890613e50565b80601f0160208091040260200160405190810160405280929190818152602001828054610ef490613e50565b8015610f415780601f10610f1657610100808354040283529160200191610f41565b820191906000526020600020905b815481529060010190602001808311610f2457829003601f168201915b50505050508152602001600282018054610f5a90613e50565b80601f0160208091040260200160405190810160405280929190818152602001828054610f8690613e50565b8015610fd35780601f10610fa857610100808354040283529160200191610fd3565b820191906000526020600020905b815481529060010190602001808311610fb657829003601f168201915b50505050508152602001600382018054610fec90613e50565b80601f016020809104026020016040519081016040528092919081815260200182805461101890613e50565b80156110655780601f1061103a57610100808354040283529160200191611065565b820191906000526020600020905b81548152906001019060200180831161104857829003601f168201915b5050505050815260200160048201548152602001600582015481526020016006820160009054906101000a900460ff161515151581526020016006820160019054906101000a900460ff16151515158152505081526020019060010190610e3e565b50505050905090565b6110da8282612e3f565b60006110e46106a0565b9050600654816080015110156110ff576110fe838361306a565b5b505050565b806000803373ffffffffffffffffffffffffffffffffffffffff1673ffffffffffffffffffffffffffffffffffffffff1681526020019081526020016000206005018190555050565b826000803373ffffffffffffffffffffffffffffffffffffffff1673ffffffffffffffffffffffffffffffffffffffff16815260200190815260200160002060010190805190602001906111a29291906133d7565b50816000803373ffffffffffffffffffffffffffffffffffffffff1673ffffffffffffffffffffffffffffffffffffffff16815260200190815260200160002060020190805190602001906111f89291906133d7565b50806000803373ffffffffffffffffffffffffffffffffffffffff1673ffffffffffffffffffffffffffffffffffffffff168152602001908152602001600020600301908051906020019061124e9291906133d7565b50505050565b806000803373ffffffffffffffffffffffffffffffffffffffff1673ffffffffffffffffffffffffffffffffffffffff16815260200190815260200160002060020190805190602001906112a99291906133d7565b5050565b806000803373ffffffffffffffffffffffffffffffffffffffff1673ffffffffffffffffffffffffffffffffffffffff1681526020019081526020016000206004018190555050565b606060008367ffffffffffffffff81111561131457611313613af7565b5b60405190808252806020026020018201604052801561134d57816020015b61133a613373565b8152602001906001900390816113325790505b5090506000600a60003373ffffffffffffffffffffffffffffffffffffffff1673ffffffffffffffffffffffffffffffffffffffff16815260200190815260200160002090506000600960003373ffffffffffffffffffffffffffffffffffffffff1673ffffffffffffffffffffffffffffffffffffffff168152602001908152602001600020905060008180549050905060005b87811080156113fb57508187826113f99190613eb1565b105b156116e357600083886001846114119190613eb1565b8561141c9190613f07565b6114269190613f07565b8154811061143757611436613f3b565b5b90600052602060002001549050846000828152602001908152602001600020604051806101200160405290816000820160009054906101000a900473ffffffffffffffffffffffffffffffffffffffff1673ffffffffffffffffffffffffffffffffffffffff1673ffffffffffffffffffffffffffffffffffffffff168152602001600182015481526020016002820180546114d290613e50565b80601f01602080910402602001604051908101604052809291908181526020018280546114fe90613e50565b801561154b5780601f106115205761010080835404028352916020019161154b565b820191906000526020600020905b81548152906001019060200180831161152e57829003601f168201915b5050505050815260200160038201805461156490613e50565b80601f016020809104026020016040519081016040528092919081815260200182805461159090613e50565b80156115dd5780601f106115b2576101008083540402835291602001916115dd565b820191906000526020600020905b8154815290600101906020018083116115c057829003601f168201915b505050505081526020016004820180546115f690613e50565b80601f016020809104026020016040519081016040528092919081815260200182805461162290613e50565b801561166f5780601f106116445761010080835404028352916020019161166f565b820191906000526020600020905b81548152906001019060200180831161165257829003601f168201915b505050505081526020016005820154815260200160068201548152602001600782015481526020016008820160009054906101000a900460ff1615151515815250508683815181106116c4576116c3613f3b565b5b60200260200101819052505080806116db90613f6a565b9150506113e2565b508394505050505092915050565b600080600160008473ffffffffffffffffffffffffffffffffffffffff1673ffffffffffffffffffffffffffffffffffffffff16815260200190815260200160002060003373ffffffffffffffffffffffffffffffffffffffff1673ffffffffffffffffffffffffffffffffffffffff16815260200190815260200160002060009054906101000a900460ff1690506000600260008573ffffffffffffffffffffffffffffffffffffffff1673ffffffffffffffffffffffffffffffffffffffff16815260200190815260200160002060003373ffffffffffffffffffffffffffffffffffffffff1673ffffffffffffffffffffffffffffffffffffffff1681526020019081526020016000205490506000600360008673ffffffffffffffffffffffffffffffffffffffff1673ffffffffffffffffffffffffffffffffffffffff168152602001908152602001600020828154811061185457611853613f3b565b5b9060005260206000209060070201905082801561188057508060060160009054906101000a900460ff16155b9350505050919050565b6000600160003373ffffffffffffffffffffffffffffffffffffffff1673ffffffffffffffffffffffffffffffffffffffff16815260200190815260200160002060008373ffffffffffffffffffffffffffffffffffffffff1673ffffffffffffffffffffffffffffffffffffffff16815260200190815260200160002060009054906101000a900460ff1690506000600260008473ffffffffffffffffffffffffffffffffffffffff1673ffffffffffffffffffffffffffffffffffffffff16815260200190815260200160002060003373ffffffffffffffffffffffffffffffffffffffff1673ffffffffffffffffffffffffffffffffffffffff1681526020019081526020016000205490506000600360008573ffffffffffffffffffffffffffffffffffffffff1673ffffffffffffffffffffffffffffffffffffffff16815260200190815260200160002090506119e4613314565b6000828054905014611c7657818381548110611a0357611a02613f3b565b5b9060005260206000209060070201604051806101000160405290816000820160009054906101000a900473ffffffffffffffffffffffffffffffffffffffff1673ffffffffffffffffffffffffffffffffffffffff1673ffffffffffffffffffffffffffffffffffffffff168152602001600182018054611a8390613e50565b80601f0160208091040260200160405190810160405280929190818152602001828054611aaf90613e50565b8015611afc5780601f10611ad157610100808354040283529160200191611afc565b820191906000526020600020905b815481529060010190602001808311611adf57829003601f168201915b50505050508152602001600282018054611b1590613e50565b80601f0160208091040260200160405190810160405280929190818152602001828054611b4190613e50565b8015611b8e5780601f10611b6357610100808354040283529160200191611b8e565b820191906000526020600020905b815481529060010190602001808311611b7157829003601f168201915b50505050508152602001600382018054611ba790613e50565b80601f0160208091040260200160405190810160405280929190818152602001828054611bd390613e50565b8015611c205780601f10611bf557610100808354040283529160200191611c20565b820191906000526020600020905b815481529060010190602001808311611c0357829003601f168201915b5050505050815260200160048201548152602001600582015481526020016006820160009054906101000a900460ff161515151581526020016006820160019054906101000a900460ff16151515158152505090505b611c7e613314565b611c86613314565b858015611c9457508260c001515b15611e6557611ca16106a0565b9150611cac876103f1565b90506000600460003373ffffffffffffffffffffffffffffffffffffffff1673ffffffffffffffffffffffffffffffffffffffff16815260200190815260200160002060008973ffffffffffffffffffffffffffffffffffffffff1673ffffffffffffffffffffffffffffffffffffffff1681526020019081526020016000205490506000600360008a73ffffffffffffffffffffffffffffffffffffffff1673ffffffffffffffffffffffffffffffffffffffff1681526020019081526020016000208781548110611d8257611d81613f3b565b5b906000526020600020906007020160060160006101000a81548160ff0219169083151502179055506000600560003373ffffffffffffffffffffffffffffffffffffffff1673ffffffffffffffffffffffffffffffffffffffff1681526020019081526020016000208281548110611dfd57611dfc613f3b565b5b906000526020600020906007020160060160016101000a81548160ff021916908315150217905550611e3f8860018460800151611e3a9190613eb1565b610d49565b611e593360018560a00151611e549190613eb1565b610d93565b50505050505050612422565b8515611e7657505050505050612422565b611e7e6106a0565b9150611e89876103f1565b905033826000019073ffffffffffffffffffffffffffffffffffffffff16908173ffffffffffffffffffffffffffffffffffffffff168152505086816000019073ffffffffffffffffffffffffffffffffffffffff16908173ffffffffffffffffffffffffffffffffffffffff1681525050600360008873ffffffffffffffffffffffffffffffffffffffff1673ffffffffffffffffffffffffffffffffffffffff16815260200190815260200160002082908060018154018082558091505060019003906000526020600020906007020160009091909190915060008201518160000160006101000a81548173ffffffffffffffffffffffffffffffffffffffff021916908373ffffffffffffffffffffffffffffffffffffffff1602179055506020820151816001019080519060200190611fc79291906133d7565b506040820151816002019080519060200190611fe49291906133d7565b5060608201518160030190805190602001906120019291906133d7565b506080820151816004015560a0820151816005015560c08201518160060160006101000a81548160ff02191690831515021790555060e08201518160060160016101000a81548160ff0219169083151502179055505050600560003373ffffffffffffffffffffffffffffffffffffffff1673ffffffffffffffffffffffffffffffffffffffff16815260200190815260200160002081908060018154018082558091505060019003906000526020600020906007020160009091909190915060008201518160000160006101000a81548173ffffffffffffffffffffffffffffffffffffffff021916908373ffffffffffffffffffffffffffffffffffffffff16021790555060208201518160010190805190602001906121249291906133d7565b5060408201518160020190805190602001906121419291906133d7565b50606082015181600301908051906020019061215e9291906133d7565b506080820151816004015560a0820151816005015560c08201518160060160006101000a81548160ff02191690831515021790555060e08201518160060160016101000a81548160ff02191690831515021790555050506001600360008973ffffffffffffffffffffffffffffffffffffffff1673ffffffffffffffffffffffffffffffffffffffff168152602001908152602001600020805490506122049190613f07565b600260008973ffffffffffffffffffffffffffffffffffffffff1673ffffffffffffffffffffffffffffffffffffffff16815260200190815260200160002060003373ffffffffffffffffffffffffffffffffffffffff1673ffffffffffffffffffffffffffffffffffffffff168152602001908152602001600020819055506001600560003373ffffffffffffffffffffffffffffffffffffffff1673ffffffffffffffffffffffffffffffffffffffff168152602001908152602001600020805490506122d39190613f07565b600460003373ffffffffffffffffffffffffffffffffffffffff1673ffffffffffffffffffffffffffffffffffffffff16815260200190815260200160002060008973ffffffffffffffffffffffffffffffffffffffff1673ffffffffffffffffffffffffffffffffffffffff1681526020019081526020016000208190555060018060003373ffffffffffffffffffffffffffffffffffffffff1673ffffffffffffffffffffffffffffffffffffffff16815260200190815260200160002060008973ffffffffffffffffffffffffffffffffffffffff1673ffffffffffffffffffffffffffffffffffffffff16815260200190815260200160002060006101000a81548160ff02191690831515021790555061240187600183608001516123fc9190613eb1565b610d49565b61241b3360018460a001516124169190613eb1565b610d93565b5050505050505b50565b6060600360008373ffffffffffffffffffffffffffffffffffffffff1673ffffffffffffffffffffffffffffffffffffffff168152602001908152602001600020805480602002602001604051908101604052809291908181526020016000905b8282101561270f5783829060005260206000209060070201604051806101000160405290816000820160009054906101000a900473ffffffffffffffffffffffffffffffffffffffff1673ffffffffffffffffffffffffffffffffffffffff1673ffffffffffffffffffffffffffffffffffffffff16815260200160018201805461251090613e50565b80601f016020809104026020016040519081016040528092919081815260200182805461253c90613e50565b80156125895780601f1061255e57610100808354040283529160200191612589565b820191906000526020600020905b81548152906001019060200180831161256c57829003601f168201915b505050505081526020016002820180546125a290613e50565b80601f01602080910402602001604051908101604052809291908181526020018280546125ce90613e50565b801561261b5780601f106125f05761010080835404028352916020019161261b565b820191906000526020600020905b8154815290600101906020018083116125fe57829003601f168201915b5050505050815260200160038201805461263490613e50565b80601f016020809104026020016040519081016040528092919081815260200182805461266090613e50565b80156126ad5780601f10612682576101008083540402835291602001916126ad565b820191906000526020600020905b81548152906001019060200180831161269057829003601f168201915b5050505050815260200160048201548152602001600582015481526020016006820160009054906101000a900460ff161515151581526020016006820160019054906101000a900460ff16151515158152505081526020019060010190612486565b505050509050919050565b606061272733848461094d565b905092915050565b806000803373ffffffffffffffffffffffffffffffffffffffff1673ffffffffffffffffffffffffffffffffffffffff16815260200190815260200160002060010190805190602001906127849291906133d7565b5050565b6060600560008373ffffffffffffffffffffffffffffffffffffffff1673ffffffffffffffffffffffffffffffffffffffff168152602001908152602001600020805480602002602001604051908101604052809291908181526020016000905b82821015612a725783829060005260206000209060070201604051806101000160405290816000820160009054906101000a900473ffffffffffffffffffffffffffffffffffffffff1673ffffffffffffffffffffffffffffffffffffffff1673ffffffffffffffffffffffffffffffffffffffff16815260200160018201805461287390613e50565b80601f016020809104026020016040519081016040528092919081815260200182805461289f90613e50565b80156128ec5780601f106128c1576101008083540402835291602001916128ec565b820191906000526020600020905b8154815290600101906020018083116128cf57829003601f168201915b5050505050815260200160028201805461290590613e50565b80601f016020809104026020016040519081016040528092919081815260200182805461293190613e50565b801561297e5780601f106129535761010080835404028352916020019161297e565b820191906000526020600020905b81548152906001019060200180831161296157829003601f168201915b5050505050815260200160038201805461299790613e50565b80601f01602080910402602001604051908101604052809291908181526020018280546129c390613e50565b8015612a105780601f106129e557610100808354040283529160200191612a10565b820191906000526020600020905b8154815290600101906020018083116129f357829003601f168201915b5050505050815260200160048201548152602001600582015481526020016006820160009054906101000a900460ff161515151581526020016006820160019054906101000a900460ff161515151581525050815260200190600101906127e9565b505050509050919050565b6000600160003373ffffffffffffffffffffffffffffffffffffffff1673ffffffffffffffffffffffffffffffffffffffff16815260200190815260200160002060008373ffffffffffffffffffffffffffffffffffffffff1673ffffffffffffffffffffffffffffffffffffffff16815260200190815260200160002060009054906101000a900460ff1690506000600260008473ffffffffffffffffffffffffffffffffffffffff1673ffffffffffffffffffffffffffffffffffffffff16815260200190815260200160002060003373ffffffffffffffffffffffffffffffffffffffff1673ffffffffffffffffffffffffffffffffffffffff1681526020019081526020016000205490506000600360008573ffffffffffffffffffffffffffffffffffffffff1673ffffffffffffffffffffffffffffffffffffffff1681526020019081526020016000208281548110612bdf57612bde613f3b565b5b90600052602060002090600702019050828015612c0b57508060060160009054906101000a900460ff16155b15612ddf576000612c1a6106a0565b90506000612c27866103f1565b90506000600460003373ffffffffffffffffffffffffffffffffffffffff1673ffffffffffffffffffffffffffffffffffffffff16815260200190815260200160002060008873ffffffffffffffffffffffffffffffffffffffff1673ffffffffffffffffffffffffffffffffffffffff1681526020019081526020016000205490506001600360008973ffffffffffffffffffffffffffffffffffffffff1673ffffffffffffffffffffffffffffffffffffffff1681526020019081526020016000208681548110612cfd57612cfc613f3b565b5b906000526020600020906007020160060160006101000a81548160ff0219169083151502179055506001600560003373ffffffffffffffffffffffffffffffffffffffff1673ffffffffffffffffffffffffffffffffffffffff1681526020019081526020016000208281548110612d7857612d77613f3b565b5b906000526020600020906007020160060160016101000a81548160ff021916908315150217905550612dba8760018460800151612db59190613f07565b610d49565b612dd43360018560a00151612dcf9190613f07565b610d93565b505050505050612de3565b5050505b50565b806000803373ffffffffffffffffffffffffffffffffffffffff1673ffffffffffffffffffffffffffffffffffffffff1681526020019081526020016000206003019080519060200190612e3b9291906133d7565b5050565b6000600143612e4e9190613f07565b4060001c905060006040518061012001604052803373ffffffffffffffffffffffffffffffffffffffff16815260200183815260200185815260200184815260200160405180602001604052806000815250815260200160008152602001600081526020016000815260200160001515815250905080600860003373ffffffffffffffffffffffffffffffffffffffff1673ffffffffffffffffffffffffffffffffffffffff168152602001908152602001600020600084815260200190815260200160002060008201518160000160006101000a81548173ffffffffffffffffffffffffffffffffffffffff021916908373ffffffffffffffffffffffffffffffffffffffff160217905550602082015181600101556040820151816002019080519060200190612f819291906133d7565b506060820151816003019080519060200190612f9e9291906133d7565b506080820151816004019080519060200190612fbb9291906133d7565b5060a0820151816005015560c0820151816006015560e082015181600701556101008201518160080160006101000a81548160ff021916908315150217905550905050600760003373ffffffffffffffffffffffffffffffffffffffff1673ffffffffffffffffffffffffffffffffffffffff16815260200190815260200160002082908060018154018082558091505060019003906000526020600020016000909190919091505550505050565b6000613074610ddd565b905060005b81518110156130e25781818151811061309557613094613f3b565b5b602002602001015160c001516130cf576130ce8282815181106130bb576130ba613f3b565b5b60200260200101516000015185856130e8565b5b80806130da90613f6a565b915050613079565b50505050565b60006001436130f79190613f07565b4060001c905060006040518061012001604052803373ffffffffffffffffffffffffffffffffffffffff16815260200183815260200185815260200184815260200160405180602001604052806000815250815260200160008152602001600081526020016000815260200160001515815250905080600a60008773ffffffffffffffffffffffffffffffffffffffff1673ffffffffffffffffffffffffffffffffffffffff168152602001908152602001600020600084815260200190815260200160002060008201518160000160006101000a81548173ffffffffffffffffffffffffffffffffffffffff021916908373ffffffffffffffffffffffffffffffffffffffff16021790555060208201518160010155604082015181600201908051906020019061322a9291906133d7565b5060608201518160030190805190602001906132479291906133d7565b5060808201518160040190805190602001906132649291906133d7565b5060a0820151816005015560c0820151816006015560e082015181600701556101008201518160080160006101000a81548160ff021916908315150217905550905050600960008673ffffffffffffffffffffffffffffffffffffffff1673ffffffffffffffffffffffffffffffffffffffff1681526020019081526020016000208290806001815401808255809150506001900390600052602060002001600090919091909150555050505050565b604051806101000160405280600073ffffffffffffffffffffffffffffffffffffffff16815260200160608152602001606081526020016060815260200160008152602001600081526020016000151581526020016000151581525090565b604051806101200160405280600073ffffffffffffffffffffffffffffffffffffffff168152602001600081526020016060815260200160608152602001606081526020016000815260200160008152602001600081526020016000151581525090565b8280546133e390613e50565b90600052602060002090601f016020900481019282613405576000855561344c565b82601f1061341e57805160ff191683800117855561344c565b8280016001018555821561344c579182015b8281111561344b578251825591602001919060010190613430565b5b509050613459919061345d565b5090565b5b8082111561347657600081600090555060010161345e565b5090565b6000604051905090565b600080fd5b600080fd5b600073ffffffffffffffffffffffffffffffffffffffff82169050919050565b60006134b98261348e565b9050919050565b6134c9816134ae565b81146134d457600080fd5b50565b6000813590506134e6816134c0565b92915050565b60006020828403121561350257613501613484565b5b6000613510848285016134d7565b91505092915050565b613522816134ae565b82525050565b600081519050919050565b600082825260208201905092915050565b60005b83811015613562578082015181840152602081019050613547565b83811115613571576000848401525b50505050565b6000601f19601f8301169050919050565b600061359382613528565b61359d8185613533565b93506135ad818560208601613544565b6135b681613577565b840191505092915050565b6000819050919050565b6135d4816135c1565b82525050565b60008115159050919050565b6135ef816135da565b82525050565b60006101008301600083015161360e6000860182613519565b50602083015184820360208601526136268282613588565b915050604083015184820360408601526136408282613588565b9150506060830151848203606086015261365a8282613588565b915050608083015161366f60808601826135cb565b5060a083015161368260a08601826135cb565b5060c083015161369560c08601826135e6565b5060e08301516136a860e08601826135e6565b508091505092915050565b600060208201905081810360008301526136cd81846135f5565b905092915050565b6136de816135c1565b81146136e957600080fd5b50565b6000813590506136fb816136d5565b92915050565b60008060006060848603121561371a57613719613484565b5b6000613728868287016134d7565b9350506020613739868287016136ec565b925050604061374a868287016136ec565b9150509250925092565b600081519050919050565b600082825260208201905092915050565b6000819050602082019050919050565b6000610120830160008301516137996000860182613519565b5060208301516137ac60208601826135cb565b50604083015184820360408601526137c48282613588565b915050606083015184820360608601526137de8282613588565b915050608083015184820360808601526137f88282613588565b91505060a083015161380d60a08601826135cb565b5060c083015161382060c08601826135cb565b5060e083015161383360e08601826135cb565b506101008301516138486101008601826135e6565b508091505092915050565b600061385f8383613780565b905092915050565b6000602082019050919050565b600061387f82613754565b613889818561375f565b93508360208202850161389b85613770565b8060005b858110156138d757848403895281516138b88582613853565b94506138c383613867565b925060208a0199505060018101905061389f565b50829750879550505050505092915050565b600060208201905081810360008301526139038184613874565b905092915050565b6000806040838503121561392257613921613484565b5b6000613930858286016134d7565b9250506020613941858286016136ec565b9150509250929050565b600081519050919050565b600082825260208201905092915050565b6000819050602082019050919050565b6000610100830160008301516139906000860182613519565b50602083015184820360208601526139a88282613588565b915050604083015184820360408601526139c28282613588565b915050606083015184820360608601526139dc8282613588565b91505060808301516139f160808601826135cb565b5060a0830151613a0460a08601826135cb565b5060c0830151613a1760c08601826135e6565b5060e0830151613a2a60e08601826135e6565b508091505092915050565b6000613a418383613977565b905092915050565b6000602082019050919050565b6000613a618261394b565b613a6b8185613956565b935083602082028501613a7d85613967565b8060005b85811015613ab95784840389528151613a9a8582613a35565b9450613aa583613a49565b925060208a01995050600181019050613a81565b50829750879550505050505092915050565b60006020820190508181036000830152613ae58184613a56565b905092915050565b600080fd5b600080fd5b7f4e487b7100000000000000000000000000000000000000000000000000000000600052604160045260246000fd5b613b2f82613577565b810181811067ffffffffffffffff82111715613b4e57613b4d613af7565b5b80604052505050565b6000613b6161347a565b9050613b6d8282613b26565b919050565b600067ffffffffffffffff821115613b8d57613b8c613af7565b5b613b9682613577565b9050602081019050919050565b82818337600083830152505050565b6000613bc5613bc084613b72565b613b57565b905082815260208101848484011115613be157613be0613af2565b5b613bec848285613ba3565b509392505050565b600082601f830112613c0957613c08613aed565b5b8135613c19848260208601613bb2565b91505092915050565b60008060408385031215613c3957613c38613484565b5b600083013567ffffffffffffffff811115613c5757613c56613489565b5b613c6385828601613bf4565b925050602083013567ffffffffffffffff811115613c8457613c83613489565b5b613c9085828601613bf4565b9150509250929050565b600060208284031215613cb057613caf613484565b5b6000613cbe848285016136ec565b91505092915050565b600080600060608486031215613ce057613cdf613484565b5b600084013567ffffffffffffffff811115613cfe57613cfd613489565b5b613d0a86828701613bf4565b935050602084013567ffffffffffffffff811115613d2b57613d2a613489565b5b613d3786828701613bf4565b925050604084013567ffffffffffffffff811115613d5857613d57613489565b5b613d6486828701613bf4565b9150509250925092565b600060208284031215613d8457613d83613484565b5b600082013567ffffffffffffffff811115613da257613da1613489565b5b613dae84828501613bf4565b91505092915050565b60008060408385031215613dce57613dcd613484565b5b6000613ddc858286016136ec565b9250506020613ded858286016136ec565b9150509250929050565b613e00816135da565b82525050565b6000602082019050613e1b6000830184613df7565b92915050565b7f4e487b7100000000000000000000000000000000000000000000000000000000600052602260045260246000fd5b60006002820490506001821680613e6857607f821691505b60208210811415613e7c57613e7b613e21565b5b50919050565b7f4e487b7100000000000000000000000000000000000000000000000000000000600052601160045260246000fd5b6000613ebc826135c1565b9150613ec7836135c1565b9250827fffffffffffffffffffffffffffffffffffffffffffffffffffffffffffffffff03821115613efc57613efb613e82565b5b828201905092915050565b6000613f12826135c1565b9150613f1d836135c1565b925082821015613f3057613f2f613e82565b5b828203905092915050565b7f4e487b7100000000000000000000000000000000000000000000000000000000600052603260045260246000fd5b6000613f75826135c1565b91507fffffffffffffffffffffffffffffffffffffffffffffffffffffffffffffffff821415613fa857613fa7613e82565b5b60018201905091905056fea2646970667358221220835a86f699e4f8c805a0cb3c40a1444d33ea32a4c2a6750bd216ee5d8f5d7a2764736f6c634300080a0033",
  "immutableReferences": {},
  "source": "// SPDX-License-Identifier: GPL-3.0\n\npragma solidity >=0.7.0 <0.9.0;\n\nimport './FollowProfiles.sol';\n\ncontract UserPosts is FollowProfiles {\n\n    uint SMALL_FRY_THRESHOLD = 500; // a small-fry is someone with less than 500 followers\n\n    struct Post {\n        address author; // the author of the post\n        uint postId; // id of the psot\n        string title; // title of the post\n        string description; // description of the post\n        string externalLink; // external link on the post, i.e an image, article, etc..\n        uint likeCount; // number of likes the post has\n        uint replyCount; // number of replies the post has\n        uint shareCount; // number of shares the post has\n        bool isReply; // true if the post is a reply, otherwise false\n    }\n\n    mapping(address => uint[]) userPostKeys; // mapping of addresses to list of corresponding user's post keys\n    mapping(address => mapping(uint => Post)) userPosts; // mapping of postIds to list of corresponding post's po keys\n\n    mapping(address => uint[]) smallFryFeedKeys; // mapping of addresses to the corresponding small-fry user's posts\n    mapping(address => mapping(uint => Post)) smallFryFeeds; // mapping of postIds to the corresponding post's replies\n\n    /**\n     * @dev Add a post -- only to your user posts list if you're a large account, \n     * but to all your followers' small-fry feeds if you're a small-fry\n     * @param description the title of the post\n     * @param description the description of the post\n     */\n    function postToMyFeed(string memory title, string memory description) public {\n\n        addPost(title, description);\n\n        Profile memory profile = getMyProfile();\n\n        if (profile.followerCount < SMALL_FRY_THRESHOLD) {\n            sendPostToAllSmallFryFeeds(title, description);\n        }\n    }\n\n    /**\n     * @dev Add a post to all small-fry feeds of your followers\n     * @param description the title of the post\n     * @param description the description of the post\n     */\n    function sendPostToAllSmallFryFeeds(string memory title, string memory description) internal {\n        Profile[] memory followers = getMyFollowers();\n        for (uint x = 0; x < followers.length; x ++) {\n            if (!followers[x].unfollowed) {\n                addPostToSmallFryFeed(followers[x].adr, title, description);\n            }\n        }\n    }\n\n    /**\n     * @dev Add a post to a single small-fry feed\n     * @param adr the address of the user that follows you\n     * @param description the title of the post\n     * @param description the description of the post\n     */\n    function addPostToSmallFryFeed(address adr, string memory title, string memory description) internal {\n        uint randomNum = uint(blockhash(block.number - 1));\n        Post memory smallFryPost = Post(msg.sender, randomNum, title, description, \"\", 0, 0, 0, false);   \n        smallFryFeeds[adr][randomNum] = smallFryPost;\n        smallFryFeedKeys[adr].push(randomNum);\n    }\n\n    /**\n     * @dev Add a post your own user post list\n     * @param description the title of the post\n     * @param description the description of the post\n     */\n    function addPost(string memory title, string memory description) internal {\n        uint randomNum = uint(blockhash(block.number - 1));\n        Post memory userPost = Post(msg.sender, randomNum, title, description, \"\", 0, 0, 0, false);   \n        userPosts[msg.sender][randomNum] = userPost;\n        userPostKeys[msg.sender].push(randomNum);\n    }\n\n    /**\n     * @dev Get your own user posts\n     * @param limit the max number of posts to fetch\n     * @param offset the offset of the starting index of posts to fetch\n     * @return user posts by msg.sender, bounded by limit and offset\n     */\n    function getMyPosts(uint limit, uint offset) public view returns (Post[] memory) {\n        return getUserPosts(msg.sender, limit, offset);\n    }\n\n    /**\n     * @dev Get a user's posts\n     * @param limit the max number of posts to fetch\n     * @param offset the offset of the starting index of posts to fetch\n     * @return user posts by adr, bounded by limit and offset\n     */\n    function getUserPosts(address adr, uint limit, uint offset) public view returns (Post[] memory) {\n        Post[] memory postsSubset = new Post[](limit);\n        mapping(uint => Post) storage currentUserPosts = userPosts[adr];\n        uint[] storage currentUserPostKeys = userPostKeys[adr];\n        uint length = currentUserPostKeys.length;\n        for (uint x = 0; x < limit && (x + offset) < length; x++) {\n            uint postId = currentUserPostKeys[length - (x + 1) - offset];\n            postsSubset[x] = currentUserPosts[postId];\n        }\n\n        return postsSubset;\n    }\n\n    /**\n     * @dev Get your own small-fry feed, which is the list of posts made by small accounts you follow\n     * @param limit the max number of posts to fetch\n     * @param offset the offset of the starting index of posts to fetch\n     * @return small-fry feed for msg.sender, bounded by limit and offset\n     */\n    function getMySmallFryFeed(uint limit, uint offset) public view returns (Post[] memory) {\n        Post[] memory postsSubset = new Post[](limit);\n        mapping(uint => Post) storage currentUserPosts = smallFryFeeds[msg.sender];\n        uint[] storage currentUserPostKeys = smallFryFeedKeys[msg.sender];\n        uint length = currentUserPostKeys.length;\n        for (uint x = 0; x < limit && (x + offset) < length; x++) {\n            uint postId = currentUserPostKeys[length - (x + 1) - offset];\n            postsSubset[x] = currentUserPosts[postId];\n        }\n\n        return postsSubset;\n    }\n}",
  "sourcePath": "/Users/chriscushman/smartcontract/contracts/UserPosts.sol",
  "compiler": {
    "name": "solc",
    "version": "0.8.10+commit.fc410830.Emscripten.clang"
  },
  "schemaVersion": "3.4.3",
  "updatedAt": "2021-11-29T13:27:10.076Z",
  "devdoc": {
    "kind": "dev",
    "methods": {
      "followUser(address)": {
        "details": "Follow a user",
        "params": {
          "adr": "address of the user to follow"
        }
      },
      "getFollowers(address)": {
        "details": "Fetch profiles that follow a user",
        "params": {
          "adr": "the address of the profile"
        },
        "returns": {
          "_0": "profiles that follow a user"
        }
      },
      "getFollowing(address)": {
        "details": "Fetch profiles a user is following",
        "params": {
          "adr": "the address of the profile"
        },
        "returns": {
          "_0": "profiles the user is following"
        }
      },
      "getIsUserFollowingMe(address)": {
        "details": "Fetch if a user is following 'me'",
        "params": {
          "adr": "the address of the profile"
        },
        "returns": {
          "_0": "true if user is following msg.sender, otherwise false"
        }
      },
      "getMyFollowers()": {
        "details": "Fetch profiles that follow 'me'",
        "returns": {
          "_0": "profiles that follow msg.sender"
        }
      },
      "getMyPosts(uint256,uint256)": {
        "details": "Get your own user posts",
        "params": {
          "limit": "the max number of posts to fetch",
          "offset": "the offset of the starting index of posts to fetch"
        },
        "returns": {
          "_0": "user posts by msg.sender, bounded by limit and offset"
        }
      },
      "getMyProfile()": {
        "details": "Fetch own profile",
        "returns": {
          "_0": "profile"
        }
      },
      "getMySmallFryFeed(uint256,uint256)": {
        "details": "Get your own small-fry feed, which is the list of posts made by small accounts you follow",
        "params": {
          "limit": "the max number of posts to fetch",
          "offset": "the offset of the starting index of posts to fetch"
        },
        "returns": {
          "_0": "small-fry feed for msg.sender, bounded by limit and offset"
        }
      },
      "getProfile(address)": {
        "details": "Fetch user's profile",
        "params": {
          "adr": "the address of the profile"
        },
        "returns": {
          "_0": "profile"
        }
      },
      "getUserPosts(address,uint256,uint256)": {
        "details": "Get a user's posts",
        "params": {
          "limit": "the max number of posts to fetch",
          "offset": "the offset of the starting index of posts to fetch"
        },
        "returns": {
          "_0": "user posts by adr, bounded by limit and offset"
        }
      },
      "postToMyFeed(string,string)": {
        "details": "Add a post -- only to your user posts list if you're a large account,  but to all your followers' small-fry feeds if you're a small-fry",
        "params": {
          "description": "the description of the post"
        }
      },
      "setBio(string)": {
        "details": "Set bio on own profile",
        "params": {
          "bio": "the bio to be set"
        }
      },
      "setFollowerCount(uint256)": {
        "details": "Set the follower count of own profile",
        "params": {
          "followerCount": "the follower count to be set"
        }
      },
      "setFollowerCountForAddress(address,uint256)": {
        "details": "Set the follower count of a profile",
        "params": {
          "adr": "the address of the profile",
          "followerCount": "the follower count to be set"
        }
      },
      "setFollowingCount(uint256)": {
        "details": "Set the following count of own profile",
        "params": {
          "followingCount": "the following count to be set"
        }
      },
      "setFollowingCountForAddress(address,uint256)": {
        "details": "Set the following count of a profile",
        "params": {
          "adr": "the address of the profile",
          "followingCount": "the following count to be set"
        }
      },
      "setName(string)": {
        "details": "Set name on own profile",
        "params": {
          "name": "the name to be set"
        }
      },
      "setProfileInfo(string,string,string)": {
        "details": "Set name, profile picture url, & bio on profile",
        "params": {
          "bio": "the bio to be set",
          "name": "the name to be set",
          "profilePictureUrl": "the profile picture url to be set"
        }
      },
      "setProfilePictureUrl(string)": {
        "details": "Set profile picture url on own profile",
        "params": {
          "profilePictureUrl": "the profile picture url to be set"
        }
      },
      "unfollowUser(address)": {
        "details": "Follow a user",
        "params": {
          "adr": "address of the user to unfollow"
        }
      }
    },
    "version": 1
  },
  "userdoc": {
    "kind": "user",
    "methods": {},
    "version": 1
  }
}